
Alarma_v1.elf:     file format elf32-littlearm

Sections:
Idx Name          Size      VMA       LMA       File off  Algn
  0 .isr_vector   00000188  08000000  08000000  00010000  2**0
                  CONTENTS, ALLOC, LOAD, READONLY, DATA
  1 .text         00005380  08000188  08000188  00010188  2**2
                  CONTENTS, ALLOC, LOAD, READONLY, CODE
  2 .rodata       00001734  08005508  08005508  00015508  2**2
                  CONTENTS, ALLOC, LOAD, READONLY, DATA
  3 .ARM.extab    00000000  08006c3c  08006c3c  0002001c  2**0
                  CONTENTS
  4 .ARM          00000008  08006c3c  08006c3c  00016c3c  2**2
                  CONTENTS, ALLOC, LOAD, READONLY, DATA
  5 .preinit_array 00000000  08006c44  08006c44  0002001c  2**0
                  CONTENTS, ALLOC, LOAD, DATA
  6 .init_array   00000004  08006c44  08006c44  00016c44  2**2
                  CONTENTS, ALLOC, LOAD, DATA
  7 .fini_array   00000004  08006c48  08006c48  00016c48  2**2
                  CONTENTS, ALLOC, LOAD, DATA
  8 .data         0000001c  20000000  08006c4c  00020000  2**2
                  CONTENTS, ALLOC, LOAD, DATA
  9 .bss          000001f8  2000001c  08006c68  0002001c  2**2
                  ALLOC
 10 ._user_heap_stack 00000604  20000214  08006c68  00020214  2**0
                  ALLOC
 11 .ARM.attributes 00000030  00000000  00000000  0002001c  2**0
                  CONTENTS, READONLY
 12 .debug_info   00010480  00000000  00000000  0002004c  2**0
                  CONTENTS, READONLY, DEBUGGING
 13 .debug_abbrev 0000242c  00000000  00000000  000304cc  2**0
                  CONTENTS, READONLY, DEBUGGING
 14 .debug_aranges 00000f50  00000000  00000000  000328f8  2**3
                  CONTENTS, READONLY, DEBUGGING
 15 .debug_ranges 00000e20  00000000  00000000  00033848  2**3
                  CONTENTS, READONLY, DEBUGGING
 16 .debug_macro  00021b56  00000000  00000000  00034668  2**0
                  CONTENTS, READONLY, DEBUGGING
 17 .debug_line   0000bf00  00000000  00000000  000561be  2**0
                  CONTENTS, READONLY, DEBUGGING
 18 .debug_str    000cd85f  00000000  00000000  000620be  2**0
                  CONTENTS, READONLY, DEBUGGING
 19 .comment      0000007b  00000000  00000000  0012f91d  2**0
                  CONTENTS, READONLY
 20 .debug_frame  00004094  00000000  00000000  0012f998  2**2
                  CONTENTS, READONLY, DEBUGGING

Disassembly of section .text:

08000188 <__do_global_dtors_aux>:
 8000188:	b510      	push	{r4, lr}
 800018a:	4c05      	ldr	r4, [pc, #20]	; (80001a0 <__do_global_dtors_aux+0x18>)
 800018c:	7823      	ldrb	r3, [r4, #0]
 800018e:	b933      	cbnz	r3, 800019e <__do_global_dtors_aux+0x16>
 8000190:	4b04      	ldr	r3, [pc, #16]	; (80001a4 <__do_global_dtors_aux+0x1c>)
 8000192:	b113      	cbz	r3, 800019a <__do_global_dtors_aux+0x12>
 8000194:	4804      	ldr	r0, [pc, #16]	; (80001a8 <__do_global_dtors_aux+0x20>)
 8000196:	f3af 8000 	nop.w
 800019a:	2301      	movs	r3, #1
 800019c:	7023      	strb	r3, [r4, #0]
 800019e:	bd10      	pop	{r4, pc}
 80001a0:	2000001c 	.word	0x2000001c
 80001a4:	00000000 	.word	0x00000000
 80001a8:	080054f0 	.word	0x080054f0

080001ac <frame_dummy>:
 80001ac:	b508      	push	{r3, lr}
 80001ae:	4b03      	ldr	r3, [pc, #12]	; (80001bc <frame_dummy+0x10>)
 80001b0:	b11b      	cbz	r3, 80001ba <frame_dummy+0xe>
 80001b2:	4903      	ldr	r1, [pc, #12]	; (80001c0 <frame_dummy+0x14>)
 80001b4:	4803      	ldr	r0, [pc, #12]	; (80001c4 <frame_dummy+0x18>)
 80001b6:	f3af 8000 	nop.w
 80001ba:	bd08      	pop	{r3, pc}
 80001bc:	00000000 	.word	0x00000000
 80001c0:	20000020 	.word	0x20000020
 80001c4:	080054f0 	.word	0x080054f0

080001c8 <__aeabi_uldivmod>:
 80001c8:	b953      	cbnz	r3, 80001e0 <__aeabi_uldivmod+0x18>
 80001ca:	b94a      	cbnz	r2, 80001e0 <__aeabi_uldivmod+0x18>
 80001cc:	2900      	cmp	r1, #0
 80001ce:	bf08      	it	eq
 80001d0:	2800      	cmpeq	r0, #0
 80001d2:	bf1c      	itt	ne
 80001d4:	f04f 31ff 	movne.w	r1, #4294967295
 80001d8:	f04f 30ff 	movne.w	r0, #4294967295
 80001dc:	f000 b972 	b.w	80004c4 <__aeabi_idiv0>
 80001e0:	f1ad 0c08 	sub.w	ip, sp, #8
 80001e4:	e96d ce04 	strd	ip, lr, [sp, #-16]!
 80001e8:	f000 f806 	bl	80001f8 <__udivmoddi4>
 80001ec:	f8dd e004 	ldr.w	lr, [sp, #4]
 80001f0:	e9dd 2302 	ldrd	r2, r3, [sp, #8]
 80001f4:	b004      	add	sp, #16
 80001f6:	4770      	bx	lr

080001f8 <__udivmoddi4>:
 80001f8:	e92d 47f0 	stmdb	sp!, {r4, r5, r6, r7, r8, r9, sl, lr}
 80001fc:	9e08      	ldr	r6, [sp, #32]
 80001fe:	4604      	mov	r4, r0
 8000200:	4688      	mov	r8, r1
 8000202:	2b00      	cmp	r3, #0
 8000204:	d14b      	bne.n	800029e <__udivmoddi4+0xa6>
 8000206:	428a      	cmp	r2, r1
 8000208:	4615      	mov	r5, r2
 800020a:	d967      	bls.n	80002dc <__udivmoddi4+0xe4>
 800020c:	fab2 f282 	clz	r2, r2
 8000210:	b14a      	cbz	r2, 8000226 <__udivmoddi4+0x2e>
 8000212:	f1c2 0720 	rsb	r7, r2, #32
 8000216:	fa01 f302 	lsl.w	r3, r1, r2
 800021a:	fa20 f707 	lsr.w	r7, r0, r7
 800021e:	4095      	lsls	r5, r2
 8000220:	ea47 0803 	orr.w	r8, r7, r3
 8000224:	4094      	lsls	r4, r2
 8000226:	ea4f 4e15 	mov.w	lr, r5, lsr #16
 800022a:	0c23      	lsrs	r3, r4, #16
 800022c:	fbb8 f7fe 	udiv	r7, r8, lr
 8000230:	fa1f fc85 	uxth.w	ip, r5
 8000234:	fb0e 8817 	mls	r8, lr, r7, r8
 8000238:	ea43 4308 	orr.w	r3, r3, r8, lsl #16
 800023c:	fb07 f10c 	mul.w	r1, r7, ip
 8000240:	4299      	cmp	r1, r3
 8000242:	d909      	bls.n	8000258 <__udivmoddi4+0x60>
 8000244:	18eb      	adds	r3, r5, r3
 8000246:	f107 30ff 	add.w	r0, r7, #4294967295
 800024a:	f080 811b 	bcs.w	8000484 <__udivmoddi4+0x28c>
 800024e:	4299      	cmp	r1, r3
 8000250:	f240 8118 	bls.w	8000484 <__udivmoddi4+0x28c>
 8000254:	3f02      	subs	r7, #2
 8000256:	442b      	add	r3, r5
 8000258:	1a5b      	subs	r3, r3, r1
 800025a:	b2a4      	uxth	r4, r4
 800025c:	fbb3 f0fe 	udiv	r0, r3, lr
 8000260:	fb0e 3310 	mls	r3, lr, r0, r3
 8000264:	ea44 4403 	orr.w	r4, r4, r3, lsl #16
 8000268:	fb00 fc0c 	mul.w	ip, r0, ip
 800026c:	45a4      	cmp	ip, r4
 800026e:	d909      	bls.n	8000284 <__udivmoddi4+0x8c>
 8000270:	192c      	adds	r4, r5, r4
 8000272:	f100 33ff 	add.w	r3, r0, #4294967295
 8000276:	f080 8107 	bcs.w	8000488 <__udivmoddi4+0x290>
 800027a:	45a4      	cmp	ip, r4
 800027c:	f240 8104 	bls.w	8000488 <__udivmoddi4+0x290>
 8000280:	3802      	subs	r0, #2
 8000282:	442c      	add	r4, r5
 8000284:	ea40 4007 	orr.w	r0, r0, r7, lsl #16
 8000288:	eba4 040c 	sub.w	r4, r4, ip
 800028c:	2700      	movs	r7, #0
 800028e:	b11e      	cbz	r6, 8000298 <__udivmoddi4+0xa0>
 8000290:	40d4      	lsrs	r4, r2
 8000292:	2300      	movs	r3, #0
 8000294:	e9c6 4300 	strd	r4, r3, [r6]
 8000298:	4639      	mov	r1, r7
 800029a:	e8bd 87f0 	ldmia.w	sp!, {r4, r5, r6, r7, r8, r9, sl, pc}
 800029e:	428b      	cmp	r3, r1
 80002a0:	d909      	bls.n	80002b6 <__udivmoddi4+0xbe>
 80002a2:	2e00      	cmp	r6, #0
 80002a4:	f000 80eb 	beq.w	800047e <__udivmoddi4+0x286>
 80002a8:	2700      	movs	r7, #0
 80002aa:	e9c6 0100 	strd	r0, r1, [r6]
 80002ae:	4638      	mov	r0, r7
 80002b0:	4639      	mov	r1, r7
 80002b2:	e8bd 87f0 	ldmia.w	sp!, {r4, r5, r6, r7, r8, r9, sl, pc}
 80002b6:	fab3 f783 	clz	r7, r3
 80002ba:	2f00      	cmp	r7, #0
 80002bc:	d147      	bne.n	800034e <__udivmoddi4+0x156>
 80002be:	428b      	cmp	r3, r1
 80002c0:	d302      	bcc.n	80002c8 <__udivmoddi4+0xd0>
 80002c2:	4282      	cmp	r2, r0
 80002c4:	f200 80fa 	bhi.w	80004bc <__udivmoddi4+0x2c4>
 80002c8:	1a84      	subs	r4, r0, r2
 80002ca:	eb61 0303 	sbc.w	r3, r1, r3
 80002ce:	2001      	movs	r0, #1
 80002d0:	4698      	mov	r8, r3
 80002d2:	2e00      	cmp	r6, #0
 80002d4:	d0e0      	beq.n	8000298 <__udivmoddi4+0xa0>
 80002d6:	e9c6 4800 	strd	r4, r8, [r6]
 80002da:	e7dd      	b.n	8000298 <__udivmoddi4+0xa0>
 80002dc:	b902      	cbnz	r2, 80002e0 <__udivmoddi4+0xe8>
 80002de:	deff      	udf	#255	; 0xff
 80002e0:	fab2 f282 	clz	r2, r2
 80002e4:	2a00      	cmp	r2, #0
 80002e6:	f040 808f 	bne.w	8000408 <__udivmoddi4+0x210>
 80002ea:	1b49      	subs	r1, r1, r5
 80002ec:	ea4f 4e15 	mov.w	lr, r5, lsr #16
 80002f0:	fa1f f885 	uxth.w	r8, r5
 80002f4:	2701      	movs	r7, #1
 80002f6:	fbb1 fcfe 	udiv	ip, r1, lr
 80002fa:	0c23      	lsrs	r3, r4, #16
 80002fc:	fb0e 111c 	mls	r1, lr, ip, r1
 8000300:	ea43 4301 	orr.w	r3, r3, r1, lsl #16
 8000304:	fb08 f10c 	mul.w	r1, r8, ip
 8000308:	4299      	cmp	r1, r3
 800030a:	d907      	bls.n	800031c <__udivmoddi4+0x124>
 800030c:	18eb      	adds	r3, r5, r3
 800030e:	f10c 30ff 	add.w	r0, ip, #4294967295
 8000312:	d202      	bcs.n	800031a <__udivmoddi4+0x122>
 8000314:	4299      	cmp	r1, r3
 8000316:	f200 80cd 	bhi.w	80004b4 <__udivmoddi4+0x2bc>
 800031a:	4684      	mov	ip, r0
 800031c:	1a59      	subs	r1, r3, r1
 800031e:	b2a3      	uxth	r3, r4
 8000320:	fbb1 f0fe 	udiv	r0, r1, lr
 8000324:	fb0e 1410 	mls	r4, lr, r0, r1
 8000328:	ea43 4404 	orr.w	r4, r3, r4, lsl #16
 800032c:	fb08 f800 	mul.w	r8, r8, r0
 8000330:	45a0      	cmp	r8, r4
 8000332:	d907      	bls.n	8000344 <__udivmoddi4+0x14c>
 8000334:	192c      	adds	r4, r5, r4
 8000336:	f100 33ff 	add.w	r3, r0, #4294967295
 800033a:	d202      	bcs.n	8000342 <__udivmoddi4+0x14a>
 800033c:	45a0      	cmp	r8, r4
 800033e:	f200 80b6 	bhi.w	80004ae <__udivmoddi4+0x2b6>
 8000342:	4618      	mov	r0, r3
 8000344:	eba4 0408 	sub.w	r4, r4, r8
 8000348:	ea40 400c 	orr.w	r0, r0, ip, lsl #16
 800034c:	e79f      	b.n	800028e <__udivmoddi4+0x96>
 800034e:	f1c7 0c20 	rsb	ip, r7, #32
 8000352:	40bb      	lsls	r3, r7
 8000354:	fa22 fe0c 	lsr.w	lr, r2, ip
 8000358:	ea4e 0e03 	orr.w	lr, lr, r3
 800035c:	fa01 f407 	lsl.w	r4, r1, r7
 8000360:	fa20 f50c 	lsr.w	r5, r0, ip
 8000364:	fa21 f30c 	lsr.w	r3, r1, ip
 8000368:	ea4f 481e 	mov.w	r8, lr, lsr #16
 800036c:	4325      	orrs	r5, r4
 800036e:	fbb3 f9f8 	udiv	r9, r3, r8
 8000372:	0c2c      	lsrs	r4, r5, #16
 8000374:	fb08 3319 	mls	r3, r8, r9, r3
 8000378:	fa1f fa8e 	uxth.w	sl, lr
 800037c:	ea44 4303 	orr.w	r3, r4, r3, lsl #16
 8000380:	fb09 f40a 	mul.w	r4, r9, sl
 8000384:	429c      	cmp	r4, r3
 8000386:	fa02 f207 	lsl.w	r2, r2, r7
 800038a:	fa00 f107 	lsl.w	r1, r0, r7
 800038e:	d90b      	bls.n	80003a8 <__udivmoddi4+0x1b0>
 8000390:	eb1e 0303 	adds.w	r3, lr, r3
 8000394:	f109 30ff 	add.w	r0, r9, #4294967295
 8000398:	f080 8087 	bcs.w	80004aa <__udivmoddi4+0x2b2>
 800039c:	429c      	cmp	r4, r3
 800039e:	f240 8084 	bls.w	80004aa <__udivmoddi4+0x2b2>
 80003a2:	f1a9 0902 	sub.w	r9, r9, #2
 80003a6:	4473      	add	r3, lr
 80003a8:	1b1b      	subs	r3, r3, r4
 80003aa:	b2ad      	uxth	r5, r5
 80003ac:	fbb3 f0f8 	udiv	r0, r3, r8
 80003b0:	fb08 3310 	mls	r3, r8, r0, r3
 80003b4:	ea45 4403 	orr.w	r4, r5, r3, lsl #16
 80003b8:	fb00 fa0a 	mul.w	sl, r0, sl
 80003bc:	45a2      	cmp	sl, r4
 80003be:	d908      	bls.n	80003d2 <__udivmoddi4+0x1da>
 80003c0:	eb1e 0404 	adds.w	r4, lr, r4
 80003c4:	f100 33ff 	add.w	r3, r0, #4294967295
 80003c8:	d26b      	bcs.n	80004a2 <__udivmoddi4+0x2aa>
 80003ca:	45a2      	cmp	sl, r4
 80003cc:	d969      	bls.n	80004a2 <__udivmoddi4+0x2aa>
 80003ce:	3802      	subs	r0, #2
 80003d0:	4474      	add	r4, lr
 80003d2:	ea40 4009 	orr.w	r0, r0, r9, lsl #16
 80003d6:	fba0 8902 	umull	r8, r9, r0, r2
 80003da:	eba4 040a 	sub.w	r4, r4, sl
 80003de:	454c      	cmp	r4, r9
 80003e0:	46c2      	mov	sl, r8
 80003e2:	464b      	mov	r3, r9
 80003e4:	d354      	bcc.n	8000490 <__udivmoddi4+0x298>
 80003e6:	d051      	beq.n	800048c <__udivmoddi4+0x294>
 80003e8:	2e00      	cmp	r6, #0
 80003ea:	d069      	beq.n	80004c0 <__udivmoddi4+0x2c8>
 80003ec:	ebb1 050a 	subs.w	r5, r1, sl
 80003f0:	eb64 0403 	sbc.w	r4, r4, r3
 80003f4:	fa04 fc0c 	lsl.w	ip, r4, ip
 80003f8:	40fd      	lsrs	r5, r7
 80003fa:	40fc      	lsrs	r4, r7
 80003fc:	ea4c 0505 	orr.w	r5, ip, r5
 8000400:	e9c6 5400 	strd	r5, r4, [r6]
 8000404:	2700      	movs	r7, #0
 8000406:	e747      	b.n	8000298 <__udivmoddi4+0xa0>
 8000408:	f1c2 0320 	rsb	r3, r2, #32
 800040c:	fa20 f703 	lsr.w	r7, r0, r3
 8000410:	4095      	lsls	r5, r2
 8000412:	fa01 f002 	lsl.w	r0, r1, r2
 8000416:	fa21 f303 	lsr.w	r3, r1, r3
 800041a:	ea4f 4e15 	mov.w	lr, r5, lsr #16
 800041e:	4338      	orrs	r0, r7
 8000420:	0c01      	lsrs	r1, r0, #16
 8000422:	fbb3 f7fe 	udiv	r7, r3, lr
 8000426:	fa1f f885 	uxth.w	r8, r5
 800042a:	fb0e 3317 	mls	r3, lr, r7, r3
 800042e:	ea41 4103 	orr.w	r1, r1, r3, lsl #16
 8000432:	fb07 f308 	mul.w	r3, r7, r8
 8000436:	428b      	cmp	r3, r1
 8000438:	fa04 f402 	lsl.w	r4, r4, r2
 800043c:	d907      	bls.n	800044e <__udivmoddi4+0x256>
 800043e:	1869      	adds	r1, r5, r1
 8000440:	f107 3cff 	add.w	ip, r7, #4294967295
 8000444:	d22f      	bcs.n	80004a6 <__udivmoddi4+0x2ae>
 8000446:	428b      	cmp	r3, r1
 8000448:	d92d      	bls.n	80004a6 <__udivmoddi4+0x2ae>
 800044a:	3f02      	subs	r7, #2
 800044c:	4429      	add	r1, r5
 800044e:	1acb      	subs	r3, r1, r3
 8000450:	b281      	uxth	r1, r0
 8000452:	fbb3 f0fe 	udiv	r0, r3, lr
 8000456:	fb0e 3310 	mls	r3, lr, r0, r3
 800045a:	ea41 4103 	orr.w	r1, r1, r3, lsl #16
 800045e:	fb00 f308 	mul.w	r3, r0, r8
 8000462:	428b      	cmp	r3, r1
 8000464:	d907      	bls.n	8000476 <__udivmoddi4+0x27e>
 8000466:	1869      	adds	r1, r5, r1
 8000468:	f100 3cff 	add.w	ip, r0, #4294967295
 800046c:	d217      	bcs.n	800049e <__udivmoddi4+0x2a6>
 800046e:	428b      	cmp	r3, r1
 8000470:	d915      	bls.n	800049e <__udivmoddi4+0x2a6>
 8000472:	3802      	subs	r0, #2
 8000474:	4429      	add	r1, r5
 8000476:	1ac9      	subs	r1, r1, r3
 8000478:	ea40 4707 	orr.w	r7, r0, r7, lsl #16
 800047c:	e73b      	b.n	80002f6 <__udivmoddi4+0xfe>
 800047e:	4637      	mov	r7, r6
 8000480:	4630      	mov	r0, r6
 8000482:	e709      	b.n	8000298 <__udivmoddi4+0xa0>
 8000484:	4607      	mov	r7, r0
 8000486:	e6e7      	b.n	8000258 <__udivmoddi4+0x60>
 8000488:	4618      	mov	r0, r3
 800048a:	e6fb      	b.n	8000284 <__udivmoddi4+0x8c>
 800048c:	4541      	cmp	r1, r8
 800048e:	d2ab      	bcs.n	80003e8 <__udivmoddi4+0x1f0>
 8000490:	ebb8 0a02 	subs.w	sl, r8, r2
 8000494:	eb69 020e 	sbc.w	r2, r9, lr
 8000498:	3801      	subs	r0, #1
 800049a:	4613      	mov	r3, r2
 800049c:	e7a4      	b.n	80003e8 <__udivmoddi4+0x1f0>
 800049e:	4660      	mov	r0, ip
 80004a0:	e7e9      	b.n	8000476 <__udivmoddi4+0x27e>
 80004a2:	4618      	mov	r0, r3
 80004a4:	e795      	b.n	80003d2 <__udivmoddi4+0x1da>
 80004a6:	4667      	mov	r7, ip
 80004a8:	e7d1      	b.n	800044e <__udivmoddi4+0x256>
 80004aa:	4681      	mov	r9, r0
 80004ac:	e77c      	b.n	80003a8 <__udivmoddi4+0x1b0>
 80004ae:	3802      	subs	r0, #2
 80004b0:	442c      	add	r4, r5
 80004b2:	e747      	b.n	8000344 <__udivmoddi4+0x14c>
 80004b4:	f1ac 0c02 	sub.w	ip, ip, #2
 80004b8:	442b      	add	r3, r5
 80004ba:	e72f      	b.n	800031c <__udivmoddi4+0x124>
 80004bc:	4638      	mov	r0, r7
 80004be:	e708      	b.n	80002d2 <__udivmoddi4+0xda>
 80004c0:	4637      	mov	r7, r6
 80004c2:	e6e9      	b.n	8000298 <__udivmoddi4+0xa0>

080004c4 <__aeabi_idiv0>:
 80004c4:	4770      	bx	lr
 80004c6:	bf00      	nop

080004c8 <fillRect>:
{
	ST7735_DrawPixel(x, y, color);
}

void fillRect(int16_t x, int16_t y, int16_t w, int16_t h, uint16_t color)
{
 80004c8:	b590      	push	{r4, r7, lr}
 80004ca:	b085      	sub	sp, #20
 80004cc:	af02      	add	r7, sp, #8
 80004ce:	4604      	mov	r4, r0
 80004d0:	4608      	mov	r0, r1
 80004d2:	4611      	mov	r1, r2
 80004d4:	461a      	mov	r2, r3
 80004d6:	4623      	mov	r3, r4
 80004d8:	80fb      	strh	r3, [r7, #6]
 80004da:	4603      	mov	r3, r0
 80004dc:	80bb      	strh	r3, [r7, #4]
 80004de:	460b      	mov	r3, r1
 80004e0:	807b      	strh	r3, [r7, #2]
 80004e2:	4613      	mov	r3, r2
 80004e4:	803b      	strh	r3, [r7, #0]
	ST7735_FillRectangle(x, y, w, h, color);
 80004e6:	88f8      	ldrh	r0, [r7, #6]
 80004e8:	88b9      	ldrh	r1, [r7, #4]
 80004ea:	887a      	ldrh	r2, [r7, #2]
 80004ec:	883c      	ldrh	r4, [r7, #0]
 80004ee:	8b3b      	ldrh	r3, [r7, #24]
 80004f0:	9300      	str	r3, [sp, #0]
 80004f2:	4623      	mov	r3, r4
 80004f4:	f000 fa84 	bl	8000a00 <ST7735_FillRectangle>
}
 80004f8:	bf00      	nop
 80004fa:	370c      	adds	r7, #12
 80004fc:	46bd      	mov	sp, r7
 80004fe:	bd90      	pop	{r4, r7, pc}

08000500 <fillScreen>:
        if(a > b) _swap_int16_t(a,b);
        drawFastHLine(a, y, b-a+1, color);
    }
}

void fillScreen(uint16_t color) {
 8000500:	b580      	push	{r7, lr}
 8000502:	b084      	sub	sp, #16
 8000504:	af02      	add	r7, sp, #8
 8000506:	4603      	mov	r3, r0
 8000508:	80fb      	strh	r3, [r7, #6]
    fillRect(0, 0, _width, _height, color);
 800050a:	4b08      	ldr	r3, [pc, #32]	; (800052c <fillScreen+0x2c>)
 800050c:	f9b3 2000 	ldrsh.w	r2, [r3]
 8000510:	4b07      	ldr	r3, [pc, #28]	; (8000530 <fillScreen+0x30>)
 8000512:	f9b3 1000 	ldrsh.w	r1, [r3]
 8000516:	88fb      	ldrh	r3, [r7, #6]
 8000518:	9300      	str	r3, [sp, #0]
 800051a:	460b      	mov	r3, r1
 800051c:	2100      	movs	r1, #0
 800051e:	2000      	movs	r0, #0
 8000520:	f7ff ffd2 	bl	80004c8 <fillRect>
}
 8000524:	bf00      	nop
 8000526:	3708      	adds	r7, #8
 8000528:	46bd      	mov	sp, r7
 800052a:	bd80      	pop	{r7, pc}
 800052c:	20000060 	.word	0x20000060
 8000530:	20000064 	.word	0x20000064

08000534 <ST7735_Select>:
      10,                     //     10 ms delay
    ST7735_DISPON ,    DELAY, //  4: Main screen turn on, no args w/delay
      100 };                  //     100 ms delay

void ST7735_Select()
{
 8000534:	b580      	push	{r7, lr}
 8000536:	af00      	add	r7, sp, #0
    HAL_GPIO_WritePin(CS_PORT, CS_PIN, GPIO_PIN_RESET);
 8000538:	2200      	movs	r2, #0
 800053a:	2180      	movs	r1, #128	; 0x80
 800053c:	4802      	ldr	r0, [pc, #8]	; (8000548 <ST7735_Select+0x14>)
 800053e:	f003 fb11 	bl	8003b64 <HAL_GPIO_WritePin>
}
 8000542:	bf00      	nop
 8000544:	bd80      	pop	{r7, pc}
 8000546:	bf00      	nop
 8000548:	40021000 	.word	0x40021000

0800054c <ST7735_Unselect>:

void ST7735_Unselect()
{
 800054c:	b580      	push	{r7, lr}
 800054e:	af00      	add	r7, sp, #0
    HAL_GPIO_WritePin(CS_PORT, CS_PIN, GPIO_PIN_SET);
 8000550:	2201      	movs	r2, #1
 8000552:	2180      	movs	r1, #128	; 0x80
 8000554:	4802      	ldr	r0, [pc, #8]	; (8000560 <ST7735_Unselect+0x14>)
 8000556:	f003 fb05 	bl	8003b64 <HAL_GPIO_WritePin>
}
 800055a:	bf00      	nop
 800055c:	bd80      	pop	{r7, pc}
 800055e:	bf00      	nop
 8000560:	40021000 	.word	0x40021000

08000564 <ST7735_Reset>:

void ST7735_Reset()
{
 8000564:	b580      	push	{r7, lr}
 8000566:	af00      	add	r7, sp, #0
    HAL_GPIO_WritePin(RST_PORT, RST_PIN, GPIO_PIN_RESET);
 8000568:	2200      	movs	r2, #0
 800056a:	2102      	movs	r1, #2
 800056c:	4806      	ldr	r0, [pc, #24]	; (8000588 <ST7735_Reset+0x24>)
 800056e:	f003 faf9 	bl	8003b64 <HAL_GPIO_WritePin>
    HAL_Delay(5);
 8000572:	2005      	movs	r0, #5
 8000574:	f001 fece 	bl	8002314 <HAL_Delay>
    HAL_GPIO_WritePin(RST_PORT, RST_PIN, GPIO_PIN_SET);
 8000578:	2201      	movs	r2, #1
 800057a:	2102      	movs	r1, #2
 800057c:	4802      	ldr	r0, [pc, #8]	; (8000588 <ST7735_Reset+0x24>)
 800057e:	f003 faf1 	bl	8003b64 <HAL_GPIO_WritePin>
}
 8000582:	bf00      	nop
 8000584:	bd80      	pop	{r7, pc}
 8000586:	bf00      	nop
 8000588:	40020400 	.word	0x40020400

0800058c <ST7735_WriteCommand>:

  void ST7735_WriteCommand(uint8_t cmd)
  {
 800058c:	b580      	push	{r7, lr}
 800058e:	b082      	sub	sp, #8
 8000590:	af00      	add	r7, sp, #0
 8000592:	4603      	mov	r3, r0
 8000594:	71fb      	strb	r3, [r7, #7]
    HAL_GPIO_WritePin(DC_PORT, DC_PIN, GPIO_PIN_RESET);
 8000596:	2200      	movs	r2, #0
 8000598:	2120      	movs	r1, #32
 800059a:	4807      	ldr	r0, [pc, #28]	; (80005b8 <ST7735_WriteCommand+0x2c>)
 800059c:	f003 fae2 	bl	8003b64 <HAL_GPIO_WritePin>
    HAL_SPI_Transmit(&ST7735_SPI_PORT, &cmd, sizeof(cmd), HAL_MAX_DELAY);
 80005a0:	1df9      	adds	r1, r7, #7
 80005a2:	f04f 33ff 	mov.w	r3, #4294967295
 80005a6:	2201      	movs	r2, #1
 80005a8:	4804      	ldr	r0, [pc, #16]	; (80005bc <ST7735_WriteCommand+0x30>)
 80005aa:	f003 ff9f 	bl	80044ec <HAL_SPI_Transmit>
}
 80005ae:	bf00      	nop
 80005b0:	3708      	adds	r7, #8
 80005b2:	46bd      	mov	sp, r7
 80005b4:	bd80      	pop	{r7, pc}
 80005b6:	bf00      	nop
 80005b8:	40020800 	.word	0x40020800
 80005bc:	200001ac 	.word	0x200001ac

080005c0 <ST7735_WriteData>:

void ST7735_WriteData(uint8_t* buff, size_t buff_size)
{
 80005c0:	b580      	push	{r7, lr}
 80005c2:	b082      	sub	sp, #8
 80005c4:	af00      	add	r7, sp, #0
 80005c6:	6078      	str	r0, [r7, #4]
 80005c8:	6039      	str	r1, [r7, #0]
    HAL_GPIO_WritePin(DC_PORT, DC_PIN, GPIO_PIN_SET);
 80005ca:	2201      	movs	r2, #1
 80005cc:	2120      	movs	r1, #32
 80005ce:	4807      	ldr	r0, [pc, #28]	; (80005ec <ST7735_WriteData+0x2c>)
 80005d0:	f003 fac8 	bl	8003b64 <HAL_GPIO_WritePin>
    HAL_SPI_Transmit(&ST7735_SPI_PORT, buff, buff_size, HAL_MAX_DELAY);
 80005d4:	683b      	ldr	r3, [r7, #0]
 80005d6:	b29a      	uxth	r2, r3
 80005d8:	f04f 33ff 	mov.w	r3, #4294967295
 80005dc:	6879      	ldr	r1, [r7, #4]
 80005de:	4804      	ldr	r0, [pc, #16]	; (80005f0 <ST7735_WriteData+0x30>)
 80005e0:	f003 ff84 	bl	80044ec <HAL_SPI_Transmit>
}
 80005e4:	bf00      	nop
 80005e6:	3708      	adds	r7, #8
 80005e8:	46bd      	mov	sp, r7
 80005ea:	bd80      	pop	{r7, pc}
 80005ec:	40020800 	.word	0x40020800
 80005f0:	200001ac 	.word	0x200001ac

080005f4 <DisplayInit>:

void DisplayInit(const uint8_t *addr)
{
 80005f4:	b580      	push	{r7, lr}
 80005f6:	b084      	sub	sp, #16
 80005f8:	af00      	add	r7, sp, #0
 80005fa:	6078      	str	r0, [r7, #4]
    uint8_t numCommands, numArgs;
    uint16_t ms;

    numCommands = *addr++;
 80005fc:	687b      	ldr	r3, [r7, #4]
 80005fe:	1c5a      	adds	r2, r3, #1
 8000600:	607a      	str	r2, [r7, #4]
 8000602:	781b      	ldrb	r3, [r3, #0]
 8000604:	73fb      	strb	r3, [r7, #15]
    while(numCommands--) {
 8000606:	e034      	b.n	8000672 <DisplayInit+0x7e>
        uint8_t cmd = *addr++;
 8000608:	687b      	ldr	r3, [r7, #4]
 800060a:	1c5a      	adds	r2, r3, #1
 800060c:	607a      	str	r2, [r7, #4]
 800060e:	781b      	ldrb	r3, [r3, #0]
 8000610:	72fb      	strb	r3, [r7, #11]
        ST7735_WriteCommand(cmd);
 8000612:	7afb      	ldrb	r3, [r7, #11]
 8000614:	4618      	mov	r0, r3
 8000616:	f7ff ffb9 	bl	800058c <ST7735_WriteCommand>

        numArgs = *addr++;
 800061a:	687b      	ldr	r3, [r7, #4]
 800061c:	1c5a      	adds	r2, r3, #1
 800061e:	607a      	str	r2, [r7, #4]
 8000620:	781b      	ldrb	r3, [r3, #0]
 8000622:	72bb      	strb	r3, [r7, #10]
        // If high bit set, delay follows args
        ms = numArgs & DELAY;
 8000624:	7abb      	ldrb	r3, [r7, #10]
 8000626:	b29b      	uxth	r3, r3
 8000628:	f003 0380 	and.w	r3, r3, #128	; 0x80
 800062c:	81bb      	strh	r3, [r7, #12]
        numArgs &= ~DELAY;
 800062e:	7abb      	ldrb	r3, [r7, #10]
 8000630:	f003 037f 	and.w	r3, r3, #127	; 0x7f
 8000634:	72bb      	strb	r3, [r7, #10]
        if(numArgs) {
 8000636:	7abb      	ldrb	r3, [r7, #10]
 8000638:	2b00      	cmp	r3, #0
 800063a:	d008      	beq.n	800064e <DisplayInit+0x5a>
            ST7735_WriteData((uint8_t*)addr, numArgs);
 800063c:	7abb      	ldrb	r3, [r7, #10]
 800063e:	4619      	mov	r1, r3
 8000640:	6878      	ldr	r0, [r7, #4]
 8000642:	f7ff ffbd 	bl	80005c0 <ST7735_WriteData>
            addr += numArgs;
 8000646:	7abb      	ldrb	r3, [r7, #10]
 8000648:	687a      	ldr	r2, [r7, #4]
 800064a:	4413      	add	r3, r2
 800064c:	607b      	str	r3, [r7, #4]
        }

        if(ms) {
 800064e:	89bb      	ldrh	r3, [r7, #12]
 8000650:	2b00      	cmp	r3, #0
 8000652:	d00e      	beq.n	8000672 <DisplayInit+0x7e>
            ms = *addr++;
 8000654:	687b      	ldr	r3, [r7, #4]
 8000656:	1c5a      	adds	r2, r3, #1
 8000658:	607a      	str	r2, [r7, #4]
 800065a:	781b      	ldrb	r3, [r3, #0]
 800065c:	81bb      	strh	r3, [r7, #12]
            if(ms == 255) ms = 500;
 800065e:	89bb      	ldrh	r3, [r7, #12]
 8000660:	2bff      	cmp	r3, #255	; 0xff
 8000662:	d102      	bne.n	800066a <DisplayInit+0x76>
 8000664:	f44f 73fa 	mov.w	r3, #500	; 0x1f4
 8000668:	81bb      	strh	r3, [r7, #12]
            HAL_Delay(ms);
 800066a:	89bb      	ldrh	r3, [r7, #12]
 800066c:	4618      	mov	r0, r3
 800066e:	f001 fe51 	bl	8002314 <HAL_Delay>
    while(numCommands--) {
 8000672:	7bfb      	ldrb	r3, [r7, #15]
 8000674:	1e5a      	subs	r2, r3, #1
 8000676:	73fa      	strb	r2, [r7, #15]
 8000678:	2b00      	cmp	r3, #0
 800067a:	d1c5      	bne.n	8000608 <DisplayInit+0x14>
        }
    }
}
 800067c:	bf00      	nop
 800067e:	3710      	adds	r7, #16
 8000680:	46bd      	mov	sp, r7
 8000682:	bd80      	pop	{r7, pc}

08000684 <ST7735_SetAddressWindow>:

void ST7735_SetAddressWindow(uint8_t x0, uint8_t y0, uint8_t x1, uint8_t y1)
{
 8000684:	b590      	push	{r4, r7, lr}
 8000686:	b085      	sub	sp, #20
 8000688:	af00      	add	r7, sp, #0
 800068a:	4604      	mov	r4, r0
 800068c:	4608      	mov	r0, r1
 800068e:	4611      	mov	r1, r2
 8000690:	461a      	mov	r2, r3
 8000692:	4623      	mov	r3, r4
 8000694:	71fb      	strb	r3, [r7, #7]
 8000696:	4603      	mov	r3, r0
 8000698:	71bb      	strb	r3, [r7, #6]
 800069a:	460b      	mov	r3, r1
 800069c:	717b      	strb	r3, [r7, #5]
 800069e:	4613      	mov	r3, r2
 80006a0:	713b      	strb	r3, [r7, #4]
    // column address set
    ST7735_WriteCommand(ST7735_CASET);
 80006a2:	202a      	movs	r0, #42	; 0x2a
 80006a4:	f7ff ff72 	bl	800058c <ST7735_WriteCommand>
    uint8_t data[] = { 0x00, x0 + _xstart, 0x00, x1 + _xstart };
 80006a8:	2300      	movs	r3, #0
 80006aa:	733b      	strb	r3, [r7, #12]
 80006ac:	4b17      	ldr	r3, [pc, #92]	; (800070c <ST7735_SetAddressWindow+0x88>)
 80006ae:	781a      	ldrb	r2, [r3, #0]
 80006b0:	79fb      	ldrb	r3, [r7, #7]
 80006b2:	4413      	add	r3, r2
 80006b4:	b2db      	uxtb	r3, r3
 80006b6:	737b      	strb	r3, [r7, #13]
 80006b8:	2300      	movs	r3, #0
 80006ba:	73bb      	strb	r3, [r7, #14]
 80006bc:	4b13      	ldr	r3, [pc, #76]	; (800070c <ST7735_SetAddressWindow+0x88>)
 80006be:	781a      	ldrb	r2, [r3, #0]
 80006c0:	797b      	ldrb	r3, [r7, #5]
 80006c2:	4413      	add	r3, r2
 80006c4:	b2db      	uxtb	r3, r3
 80006c6:	73fb      	strb	r3, [r7, #15]
    ST7735_WriteData(data, sizeof(data));
 80006c8:	f107 030c 	add.w	r3, r7, #12
 80006cc:	2104      	movs	r1, #4
 80006ce:	4618      	mov	r0, r3
 80006d0:	f7ff ff76 	bl	80005c0 <ST7735_WriteData>

    // row address set
    ST7735_WriteCommand(ST7735_RASET);
 80006d4:	202b      	movs	r0, #43	; 0x2b
 80006d6:	f7ff ff59 	bl	800058c <ST7735_WriteCommand>
    data[1] = y0 + _ystart;
 80006da:	4b0d      	ldr	r3, [pc, #52]	; (8000710 <ST7735_SetAddressWindow+0x8c>)
 80006dc:	781a      	ldrb	r2, [r3, #0]
 80006de:	79bb      	ldrb	r3, [r7, #6]
 80006e0:	4413      	add	r3, r2
 80006e2:	b2db      	uxtb	r3, r3
 80006e4:	737b      	strb	r3, [r7, #13]
    data[3] = y1 + _ystart;
 80006e6:	4b0a      	ldr	r3, [pc, #40]	; (8000710 <ST7735_SetAddressWindow+0x8c>)
 80006e8:	781a      	ldrb	r2, [r3, #0]
 80006ea:	793b      	ldrb	r3, [r7, #4]
 80006ec:	4413      	add	r3, r2
 80006ee:	b2db      	uxtb	r3, r3
 80006f0:	73fb      	strb	r3, [r7, #15]
    ST7735_WriteData(data, sizeof(data));
 80006f2:	f107 030c 	add.w	r3, r7, #12
 80006f6:	2104      	movs	r1, #4
 80006f8:	4618      	mov	r0, r3
 80006fa:	f7ff ff61 	bl	80005c0 <ST7735_WriteData>

    // write to RAM
    ST7735_WriteCommand(ST7735_RAMWR);
 80006fe:	202c      	movs	r0, #44	; 0x2c
 8000700:	f7ff ff44 	bl	800058c <ST7735_WriteCommand>
}
 8000704:	bf00      	nop
 8000706:	3714      	adds	r7, #20
 8000708:	46bd      	mov	sp, r7
 800070a:	bd90      	pop	{r4, r7, pc}
 800070c:	20000058 	.word	0x20000058
 8000710:	2000005c 	.word	0x2000005c

08000714 <ST7735_Init>:

void ST7735_Init(uint8_t rotation)
{
 8000714:	b580      	push	{r7, lr}
 8000716:	b082      	sub	sp, #8
 8000718:	af00      	add	r7, sp, #0
 800071a:	4603      	mov	r3, r0
 800071c:	71fb      	strb	r3, [r7, #7]
    ST7735_Select();
 800071e:	f7ff ff09 	bl	8000534 <ST7735_Select>
    ST7735_Reset();
 8000722:	f7ff ff1f 	bl	8000564 <ST7735_Reset>
    DisplayInit(init_cmds1);
 8000726:	480c      	ldr	r0, [pc, #48]	; (8000758 <ST7735_Init+0x44>)
 8000728:	f7ff ff64 	bl	80005f4 <DisplayInit>
    DisplayInit(init_cmds2);
 800072c:	480b      	ldr	r0, [pc, #44]	; (800075c <ST7735_Init+0x48>)
 800072e:	f7ff ff61 	bl	80005f4 <DisplayInit>
    DisplayInit(init_cmds3);
 8000732:	480b      	ldr	r0, [pc, #44]	; (8000760 <ST7735_Init+0x4c>)
 8000734:	f7ff ff5e 	bl	80005f4 <DisplayInit>

#elif ST7735_IS_128X128
    _colstart = 2;
    _rowstart = 3;
#else
    _colstart = 0;
 8000738:	4b0a      	ldr	r3, [pc, #40]	; (8000764 <ST7735_Init+0x50>)
 800073a:	2200      	movs	r2, #0
 800073c:	701a      	strb	r2, [r3, #0]
    _rowstart = 0;
 800073e:	4b0a      	ldr	r3, [pc, #40]	; (8000768 <ST7735_Init+0x54>)
 8000740:	2200      	movs	r2, #0
 8000742:	701a      	strb	r2, [r3, #0]
#endif
    ST7735_SetRotation (rotation);
 8000744:	79fb      	ldrb	r3, [r7, #7]
 8000746:	4618      	mov	r0, r3
 8000748:	f000 f810 	bl	800076c <ST7735_SetRotation>
    ST7735_Unselect();
 800074c:	f7ff fefe 	bl	800054c <ST7735_Unselect>

}
 8000750:	bf00      	nop
 8000752:	3708      	adds	r7, #8
 8000754:	46bd      	mov	sp, r7
 8000756:	bd80      	pop	{r7, pc}
 8000758:	080056c0 	.word	0x080056c0
 800075c:	080056f8 	.word	0x080056f8
 8000760:	08005708 	.word	0x08005708
 8000764:	20000059 	.word	0x20000059
 8000768:	2000005d 	.word	0x2000005d

0800076c <ST7735_SetRotation>:

void ST7735_SetRotation(uint8_t m)
{
 800076c:	b580      	push	{r7, lr}
 800076e:	b084      	sub	sp, #16
 8000770:	af00      	add	r7, sp, #0
 8000772:	4603      	mov	r3, r0
 8000774:	71fb      	strb	r3, [r7, #7]

  uint8_t madctl = 0;
 8000776:	2300      	movs	r3, #0
 8000778:	73fb      	strb	r3, [r7, #15]

  rotation = m % 4; // can't be higher than 3
 800077a:	79fb      	ldrb	r3, [r7, #7]
 800077c:	f003 0303 	and.w	r3, r3, #3
 8000780:	b2da      	uxtb	r2, r3
 8000782:	4b33      	ldr	r3, [pc, #204]	; (8000850 <ST7735_SetRotation+0xe4>)
 8000784:	701a      	strb	r2, [r3, #0]

  switch (rotation)
 8000786:	4b32      	ldr	r3, [pc, #200]	; (8000850 <ST7735_SetRotation+0xe4>)
 8000788:	781b      	ldrb	r3, [r3, #0]
 800078a:	2b03      	cmp	r3, #3
 800078c:	d84e      	bhi.n	800082c <ST7735_SetRotation+0xc0>
 800078e:	a201      	add	r2, pc, #4	; (adr r2, 8000794 <ST7735_SetRotation+0x28>)
 8000790:	f852 f023 	ldr.w	pc, [r2, r3, lsl #2]
 8000794:	080007a5 	.word	0x080007a5
 8000798:	080007c7 	.word	0x080007c7
 800079c:	080007e9 	.word	0x080007e9
 80007a0:	0800080b 	.word	0x0800080b
  {
  case 0:
#if ST7735_IS_160X80
	  madctl = ST7735_MADCTL_MX | ST7735_MADCTL_MY | ST7735_MADCTL_BGR;
#else
      madctl = ST7735_MADCTL_MX | ST7735_MADCTL_MY | ST7735_MADCTL_RGB;
 80007a4:	23c0      	movs	r3, #192	; 0xc0
 80007a6:	73fb      	strb	r3, [r7, #15]
      _height = ST7735_HEIGHT;
 80007a8:	4b2a      	ldr	r3, [pc, #168]	; (8000854 <ST7735_SetRotation+0xe8>)
 80007aa:	22a0      	movs	r2, #160	; 0xa0
 80007ac:	801a      	strh	r2, [r3, #0]
      _width = ST7735_WIDTH;
 80007ae:	4b2a      	ldr	r3, [pc, #168]	; (8000858 <ST7735_SetRotation+0xec>)
 80007b0:	2280      	movs	r2, #128	; 0x80
 80007b2:	801a      	strh	r2, [r3, #0]
      _xstart = _colstart;
 80007b4:	4b29      	ldr	r3, [pc, #164]	; (800085c <ST7735_SetRotation+0xf0>)
 80007b6:	781a      	ldrb	r2, [r3, #0]
 80007b8:	4b29      	ldr	r3, [pc, #164]	; (8000860 <ST7735_SetRotation+0xf4>)
 80007ba:	701a      	strb	r2, [r3, #0]
      _ystart = _rowstart;
 80007bc:	4b29      	ldr	r3, [pc, #164]	; (8000864 <ST7735_SetRotation+0xf8>)
 80007be:	781a      	ldrb	r2, [r3, #0]
 80007c0:	4b29      	ldr	r3, [pc, #164]	; (8000868 <ST7735_SetRotation+0xfc>)
 80007c2:	701a      	strb	r2, [r3, #0]
#endif
    break;
 80007c4:	e032      	b.n	800082c <ST7735_SetRotation+0xc0>
  case 1:
#if ST7735_IS_160X80
	  madctl = ST7735_MADCTL_MY | ST7735_MADCTL_MV | ST7735_MADCTL_BGR;
#else
      madctl = ST7735_MADCTL_MY | ST7735_MADCTL_MV | ST7735_MADCTL_RGB;
 80007c6:	23a0      	movs	r3, #160	; 0xa0
 80007c8:	73fb      	strb	r3, [r7, #15]
      _width = ST7735_HEIGHT;
 80007ca:	4b23      	ldr	r3, [pc, #140]	; (8000858 <ST7735_SetRotation+0xec>)
 80007cc:	22a0      	movs	r2, #160	; 0xa0
 80007ce:	801a      	strh	r2, [r3, #0]
      _height = ST7735_WIDTH;
 80007d0:	4b20      	ldr	r3, [pc, #128]	; (8000854 <ST7735_SetRotation+0xe8>)
 80007d2:	2280      	movs	r2, #128	; 0x80
 80007d4:	801a      	strh	r2, [r3, #0]
    _ystart = _colstart;
 80007d6:	4b21      	ldr	r3, [pc, #132]	; (800085c <ST7735_SetRotation+0xf0>)
 80007d8:	781a      	ldrb	r2, [r3, #0]
 80007da:	4b23      	ldr	r3, [pc, #140]	; (8000868 <ST7735_SetRotation+0xfc>)
 80007dc:	701a      	strb	r2, [r3, #0]
    _xstart = _rowstart;
 80007de:	4b21      	ldr	r3, [pc, #132]	; (8000864 <ST7735_SetRotation+0xf8>)
 80007e0:	781a      	ldrb	r2, [r3, #0]
 80007e2:	4b1f      	ldr	r3, [pc, #124]	; (8000860 <ST7735_SetRotation+0xf4>)
 80007e4:	701a      	strb	r2, [r3, #0]
#endif
    break;
 80007e6:	e021      	b.n	800082c <ST7735_SetRotation+0xc0>
  case 2:
#if ST7735_IS_160X80
	  madctl = ST7735_MADCTL_BGR;
#else
      madctl = ST7735_MADCTL_RGB;
 80007e8:	2300      	movs	r3, #0
 80007ea:	73fb      	strb	r3, [r7, #15]
      _height = ST7735_HEIGHT;
 80007ec:	4b19      	ldr	r3, [pc, #100]	; (8000854 <ST7735_SetRotation+0xe8>)
 80007ee:	22a0      	movs	r2, #160	; 0xa0
 80007f0:	801a      	strh	r2, [r3, #0]
      _width = ST7735_WIDTH;
 80007f2:	4b19      	ldr	r3, [pc, #100]	; (8000858 <ST7735_SetRotation+0xec>)
 80007f4:	2280      	movs	r2, #128	; 0x80
 80007f6:	801a      	strh	r2, [r3, #0]
    _xstart = _colstart;
 80007f8:	4b18      	ldr	r3, [pc, #96]	; (800085c <ST7735_SetRotation+0xf0>)
 80007fa:	781a      	ldrb	r2, [r3, #0]
 80007fc:	4b18      	ldr	r3, [pc, #96]	; (8000860 <ST7735_SetRotation+0xf4>)
 80007fe:	701a      	strb	r2, [r3, #0]
    _ystart = _rowstart;
 8000800:	4b18      	ldr	r3, [pc, #96]	; (8000864 <ST7735_SetRotation+0xf8>)
 8000802:	781a      	ldrb	r2, [r3, #0]
 8000804:	4b18      	ldr	r3, [pc, #96]	; (8000868 <ST7735_SetRotation+0xfc>)
 8000806:	701a      	strb	r2, [r3, #0]
#endif
    break;
 8000808:	e010      	b.n	800082c <ST7735_SetRotation+0xc0>
  case 3:
#if ST7735_IS_160X80
	  madctl = ST7735_MADCTL_MX | ST7735_MADCTL_MV | ST7735_MADCTL_BGR;
#else
      madctl = ST7735_MADCTL_MX | ST7735_MADCTL_MV | ST7735_MADCTL_RGB;
 800080a:	2360      	movs	r3, #96	; 0x60
 800080c:	73fb      	strb	r3, [r7, #15]
      _width = ST7735_HEIGHT;
 800080e:	4b12      	ldr	r3, [pc, #72]	; (8000858 <ST7735_SetRotation+0xec>)
 8000810:	22a0      	movs	r2, #160	; 0xa0
 8000812:	801a      	strh	r2, [r3, #0]
      _height = ST7735_WIDTH;
 8000814:	4b0f      	ldr	r3, [pc, #60]	; (8000854 <ST7735_SetRotation+0xe8>)
 8000816:	2280      	movs	r2, #128	; 0x80
 8000818:	801a      	strh	r2, [r3, #0]
    _ystart = _colstart;
 800081a:	4b10      	ldr	r3, [pc, #64]	; (800085c <ST7735_SetRotation+0xf0>)
 800081c:	781a      	ldrb	r2, [r3, #0]
 800081e:	4b12      	ldr	r3, [pc, #72]	; (8000868 <ST7735_SetRotation+0xfc>)
 8000820:	701a      	strb	r2, [r3, #0]
    _xstart = _rowstart;
 8000822:	4b10      	ldr	r3, [pc, #64]	; (8000864 <ST7735_SetRotation+0xf8>)
 8000824:	781a      	ldrb	r2, [r3, #0]
 8000826:	4b0e      	ldr	r3, [pc, #56]	; (8000860 <ST7735_SetRotation+0xf4>)
 8000828:	701a      	strb	r2, [r3, #0]
#endif
    break;
 800082a:	bf00      	nop
  }
  ST7735_Select();
 800082c:	f7ff fe82 	bl	8000534 <ST7735_Select>
  ST7735_WriteCommand(ST7735_MADCTL);
 8000830:	2036      	movs	r0, #54	; 0x36
 8000832:	f7ff feab 	bl	800058c <ST7735_WriteCommand>
  ST7735_WriteData(&madctl,1);
 8000836:	f107 030f 	add.w	r3, r7, #15
 800083a:	2101      	movs	r1, #1
 800083c:	4618      	mov	r0, r3
 800083e:	f7ff febf 	bl	80005c0 <ST7735_WriteData>
  ST7735_Unselect();
 8000842:	f7ff fe83 	bl	800054c <ST7735_Unselect>
}
 8000846:	bf00      	nop
 8000848:	3710      	adds	r7, #16
 800084a:	46bd      	mov	sp, r7
 800084c:	bd80      	pop	{r7, pc}
 800084e:	bf00      	nop
 8000850:	2000005e 	.word	0x2000005e
 8000854:	20000064 	.word	0x20000064
 8000858:	20000060 	.word	0x20000060
 800085c:	20000059 	.word	0x20000059
 8000860:	20000058 	.word	0x20000058
 8000864:	2000005d 	.word	0x2000005d
 8000868:	2000005c 	.word	0x2000005c

0800086c <ST7735_WriteChar>:
    ST7735_WriteData(data, sizeof(data));

    ST7735_Unselect();
}

void ST7735_WriteChar(uint16_t x, uint16_t y, char ch, FontDef font, uint16_t color, uint16_t bgcolor) {
 800086c:	b082      	sub	sp, #8
 800086e:	b590      	push	{r4, r7, lr}
 8000870:	b089      	sub	sp, #36	; 0x24
 8000872:	af00      	add	r7, sp, #0
 8000874:	637b      	str	r3, [r7, #52]	; 0x34
 8000876:	4603      	mov	r3, r0
 8000878:	80fb      	strh	r3, [r7, #6]
 800087a:	460b      	mov	r3, r1
 800087c:	80bb      	strh	r3, [r7, #4]
 800087e:	4613      	mov	r3, r2
 8000880:	70fb      	strb	r3, [r7, #3]
    uint32_t i, b, j;

    ST7735_SetAddressWindow(x, y, x+font.width-1, y+font.height-1);
 8000882:	88fb      	ldrh	r3, [r7, #6]
 8000884:	b2d8      	uxtb	r0, r3
 8000886:	88bb      	ldrh	r3, [r7, #4]
 8000888:	b2d9      	uxtb	r1, r3
 800088a:	88fb      	ldrh	r3, [r7, #6]
 800088c:	b2da      	uxtb	r2, r3
 800088e:	f897 3034 	ldrb.w	r3, [r7, #52]	; 0x34
 8000892:	4413      	add	r3, r2
 8000894:	b2db      	uxtb	r3, r3
 8000896:	3b01      	subs	r3, #1
 8000898:	b2dc      	uxtb	r4, r3
 800089a:	88bb      	ldrh	r3, [r7, #4]
 800089c:	b2da      	uxtb	r2, r3
 800089e:	f897 3035 	ldrb.w	r3, [r7, #53]	; 0x35
 80008a2:	4413      	add	r3, r2
 80008a4:	b2db      	uxtb	r3, r3
 80008a6:	3b01      	subs	r3, #1
 80008a8:	b2db      	uxtb	r3, r3
 80008aa:	4622      	mov	r2, r4
 80008ac:	f7ff feea 	bl	8000684 <ST7735_SetAddressWindow>

    for(i = 0; i < font.height; i++) {
 80008b0:	2300      	movs	r3, #0
 80008b2:	61fb      	str	r3, [r7, #28]
 80008b4:	e043      	b.n	800093e <ST7735_WriteChar+0xd2>
        b = font.data[(ch - 32) * font.height + i];
 80008b6:	6bba      	ldr	r2, [r7, #56]	; 0x38
 80008b8:	78fb      	ldrb	r3, [r7, #3]
 80008ba:	3b20      	subs	r3, #32
 80008bc:	f897 1035 	ldrb.w	r1, [r7, #53]	; 0x35
 80008c0:	fb01 f303 	mul.w	r3, r1, r3
 80008c4:	4619      	mov	r1, r3
 80008c6:	69fb      	ldr	r3, [r7, #28]
 80008c8:	440b      	add	r3, r1
 80008ca:	005b      	lsls	r3, r3, #1
 80008cc:	4413      	add	r3, r2
 80008ce:	881b      	ldrh	r3, [r3, #0]
 80008d0:	617b      	str	r3, [r7, #20]
        for(j = 0; j < font.width; j++) {
 80008d2:	2300      	movs	r3, #0
 80008d4:	61bb      	str	r3, [r7, #24]
 80008d6:	e029      	b.n	800092c <ST7735_WriteChar+0xc0>
            if((b << j) & 0x8000)  {
 80008d8:	697a      	ldr	r2, [r7, #20]
 80008da:	69bb      	ldr	r3, [r7, #24]
 80008dc:	fa02 f303 	lsl.w	r3, r2, r3
 80008e0:	f403 4300 	and.w	r3, r3, #32768	; 0x8000
 80008e4:	2b00      	cmp	r3, #0
 80008e6:	d00e      	beq.n	8000906 <ST7735_WriteChar+0x9a>
                uint8_t data[] = { color >> 8, color & 0xFF };
 80008e8:	8fbb      	ldrh	r3, [r7, #60]	; 0x3c
 80008ea:	0a1b      	lsrs	r3, r3, #8
 80008ec:	b29b      	uxth	r3, r3
 80008ee:	b2db      	uxtb	r3, r3
 80008f0:	743b      	strb	r3, [r7, #16]
 80008f2:	8fbb      	ldrh	r3, [r7, #60]	; 0x3c
 80008f4:	b2db      	uxtb	r3, r3
 80008f6:	747b      	strb	r3, [r7, #17]
                ST7735_WriteData(data, sizeof(data));
 80008f8:	f107 0310 	add.w	r3, r7, #16
 80008fc:	2102      	movs	r1, #2
 80008fe:	4618      	mov	r0, r3
 8000900:	f7ff fe5e 	bl	80005c0 <ST7735_WriteData>
 8000904:	e00f      	b.n	8000926 <ST7735_WriteChar+0xba>
            } else {
                uint8_t data[] = { bgcolor >> 8, bgcolor & 0xFF };
 8000906:	f8b7 3040 	ldrh.w	r3, [r7, #64]	; 0x40
 800090a:	0a1b      	lsrs	r3, r3, #8
 800090c:	b29b      	uxth	r3, r3
 800090e:	b2db      	uxtb	r3, r3
 8000910:	733b      	strb	r3, [r7, #12]
 8000912:	f8b7 3040 	ldrh.w	r3, [r7, #64]	; 0x40
 8000916:	b2db      	uxtb	r3, r3
 8000918:	737b      	strb	r3, [r7, #13]
                ST7735_WriteData(data, sizeof(data));
 800091a:	f107 030c 	add.w	r3, r7, #12
 800091e:	2102      	movs	r1, #2
 8000920:	4618      	mov	r0, r3
 8000922:	f7ff fe4d 	bl	80005c0 <ST7735_WriteData>
        for(j = 0; j < font.width; j++) {
 8000926:	69bb      	ldr	r3, [r7, #24]
 8000928:	3301      	adds	r3, #1
 800092a:	61bb      	str	r3, [r7, #24]
 800092c:	f897 3034 	ldrb.w	r3, [r7, #52]	; 0x34
 8000930:	461a      	mov	r2, r3
 8000932:	69bb      	ldr	r3, [r7, #24]
 8000934:	4293      	cmp	r3, r2
 8000936:	d3cf      	bcc.n	80008d8 <ST7735_WriteChar+0x6c>
    for(i = 0; i < font.height; i++) {
 8000938:	69fb      	ldr	r3, [r7, #28]
 800093a:	3301      	adds	r3, #1
 800093c:	61fb      	str	r3, [r7, #28]
 800093e:	f897 3035 	ldrb.w	r3, [r7, #53]	; 0x35
 8000942:	461a      	mov	r2, r3
 8000944:	69fb      	ldr	r3, [r7, #28]
 8000946:	4293      	cmp	r3, r2
 8000948:	d3b5      	bcc.n	80008b6 <ST7735_WriteChar+0x4a>
            }
        }
    }
}
 800094a:	bf00      	nop
 800094c:	3724      	adds	r7, #36	; 0x24
 800094e:	46bd      	mov	sp, r7
 8000950:	e8bd 4090 	ldmia.w	sp!, {r4, r7, lr}
 8000954:	b002      	add	sp, #8
 8000956:	4770      	bx	lr

08000958 <ST7735_WriteString>:

void ST7735_WriteString(uint16_t x, uint16_t y, const char* str, FontDef font, uint16_t color, uint16_t bgcolor) {
 8000958:	b082      	sub	sp, #8
 800095a:	b580      	push	{r7, lr}
 800095c:	b086      	sub	sp, #24
 800095e:	af04      	add	r7, sp, #16
 8000960:	603a      	str	r2, [r7, #0]
 8000962:	617b      	str	r3, [r7, #20]
 8000964:	4603      	mov	r3, r0
 8000966:	80fb      	strh	r3, [r7, #6]
 8000968:	460b      	mov	r3, r1
 800096a:	80bb      	strh	r3, [r7, #4]
    ST7735_Select();
 800096c:	f7ff fde2 	bl	8000534 <ST7735_Select>

    while(*str) {
 8000970:	e033      	b.n	80009da <ST7735_WriteString+0x82>
        if(x + font.width >= _width) {
 8000972:	88fb      	ldrh	r3, [r7, #6]
 8000974:	7d3a      	ldrb	r2, [r7, #20]
 8000976:	4413      	add	r3, r2
 8000978:	4a1f      	ldr	r2, [pc, #124]	; (80009f8 <ST7735_WriteString+0xa0>)
 800097a:	f9b2 2000 	ldrsh.w	r2, [r2]
 800097e:	4293      	cmp	r3, r2
 8000980:	db16      	blt.n	80009b0 <ST7735_WriteString+0x58>
            x = 0;
 8000982:	2300      	movs	r3, #0
 8000984:	80fb      	strh	r3, [r7, #6]
            y += font.height;
 8000986:	7d7b      	ldrb	r3, [r7, #21]
 8000988:	b29a      	uxth	r2, r3
 800098a:	88bb      	ldrh	r3, [r7, #4]
 800098c:	4413      	add	r3, r2
 800098e:	80bb      	strh	r3, [r7, #4]
            if(y + font.height >= _height) {
 8000990:	88bb      	ldrh	r3, [r7, #4]
 8000992:	7d7a      	ldrb	r2, [r7, #21]
 8000994:	4413      	add	r3, r2
 8000996:	4a19      	ldr	r2, [pc, #100]	; (80009fc <ST7735_WriteString+0xa4>)
 8000998:	f9b2 2000 	ldrsh.w	r2, [r2]
 800099c:	4293      	cmp	r3, r2
 800099e:	da21      	bge.n	80009e4 <ST7735_WriteString+0x8c>
                break;
            }

            if(*str == ' ') {
 80009a0:	683b      	ldr	r3, [r7, #0]
 80009a2:	781b      	ldrb	r3, [r3, #0]
 80009a4:	2b20      	cmp	r3, #32
 80009a6:	d103      	bne.n	80009b0 <ST7735_WriteString+0x58>
                // skip spaces in the beginning of the new line
                str++;
 80009a8:	683b      	ldr	r3, [r7, #0]
 80009aa:	3301      	adds	r3, #1
 80009ac:	603b      	str	r3, [r7, #0]
                continue;
 80009ae:	e014      	b.n	80009da <ST7735_WriteString+0x82>
            }
        }

        ST7735_WriteChar(x, y, *str, font, color, bgcolor);
 80009b0:	683b      	ldr	r3, [r7, #0]
 80009b2:	781a      	ldrb	r2, [r3, #0]
 80009b4:	88b9      	ldrh	r1, [r7, #4]
 80009b6:	88f8      	ldrh	r0, [r7, #6]
 80009b8:	8c3b      	ldrh	r3, [r7, #32]
 80009ba:	9302      	str	r3, [sp, #8]
 80009bc:	8bbb      	ldrh	r3, [r7, #28]
 80009be:	9301      	str	r3, [sp, #4]
 80009c0:	69bb      	ldr	r3, [r7, #24]
 80009c2:	9300      	str	r3, [sp, #0]
 80009c4:	697b      	ldr	r3, [r7, #20]
 80009c6:	f7ff ff51 	bl	800086c <ST7735_WriteChar>
        x += font.width;
 80009ca:	7d3b      	ldrb	r3, [r7, #20]
 80009cc:	b29a      	uxth	r2, r3
 80009ce:	88fb      	ldrh	r3, [r7, #6]
 80009d0:	4413      	add	r3, r2
 80009d2:	80fb      	strh	r3, [r7, #6]
        str++;
 80009d4:	683b      	ldr	r3, [r7, #0]
 80009d6:	3301      	adds	r3, #1
 80009d8:	603b      	str	r3, [r7, #0]
    while(*str) {
 80009da:	683b      	ldr	r3, [r7, #0]
 80009dc:	781b      	ldrb	r3, [r3, #0]
 80009de:	2b00      	cmp	r3, #0
 80009e0:	d1c7      	bne.n	8000972 <ST7735_WriteString+0x1a>
 80009e2:	e000      	b.n	80009e6 <ST7735_WriteString+0x8e>
                break;
 80009e4:	bf00      	nop
    }

    ST7735_Unselect();
 80009e6:	f7ff fdb1 	bl	800054c <ST7735_Unselect>
}
 80009ea:	bf00      	nop
 80009ec:	3708      	adds	r7, #8
 80009ee:	46bd      	mov	sp, r7
 80009f0:	e8bd 4080 	ldmia.w	sp!, {r7, lr}
 80009f4:	b002      	add	sp, #8
 80009f6:	4770      	bx	lr
 80009f8:	20000060 	.word	0x20000060
 80009fc:	20000064 	.word	0x20000064

08000a00 <ST7735_FillRectangle>:

void ST7735_FillRectangle(uint16_t x, uint16_t y, uint16_t w, uint16_t h, uint16_t color)
{
 8000a00:	b590      	push	{r4, r7, lr}
 8000a02:	b085      	sub	sp, #20
 8000a04:	af00      	add	r7, sp, #0
 8000a06:	4604      	mov	r4, r0
 8000a08:	4608      	mov	r0, r1
 8000a0a:	4611      	mov	r1, r2
 8000a0c:	461a      	mov	r2, r3
 8000a0e:	4623      	mov	r3, r4
 8000a10:	80fb      	strh	r3, [r7, #6]
 8000a12:	4603      	mov	r3, r0
 8000a14:	80bb      	strh	r3, [r7, #4]
 8000a16:	460b      	mov	r3, r1
 8000a18:	807b      	strh	r3, [r7, #2]
 8000a1a:	4613      	mov	r3, r2
 8000a1c:	803b      	strh	r3, [r7, #0]
    if((x >= _width) || (y >= _height)) return;
 8000a1e:	88fb      	ldrh	r3, [r7, #6]
 8000a20:	4a38      	ldr	r2, [pc, #224]	; (8000b04 <ST7735_FillRectangle+0x104>)
 8000a22:	f9b2 2000 	ldrsh.w	r2, [r2]
 8000a26:	4293      	cmp	r3, r2
 8000a28:	da68      	bge.n	8000afc <ST7735_FillRectangle+0xfc>
 8000a2a:	88bb      	ldrh	r3, [r7, #4]
 8000a2c:	4a36      	ldr	r2, [pc, #216]	; (8000b08 <ST7735_FillRectangle+0x108>)
 8000a2e:	f9b2 2000 	ldrsh.w	r2, [r2]
 8000a32:	4293      	cmp	r3, r2
 8000a34:	da62      	bge.n	8000afc <ST7735_FillRectangle+0xfc>
    if((x + w - 1) >= _width) w = _width - x;
 8000a36:	88fa      	ldrh	r2, [r7, #6]
 8000a38:	887b      	ldrh	r3, [r7, #2]
 8000a3a:	4413      	add	r3, r2
 8000a3c:	3b01      	subs	r3, #1
 8000a3e:	4a31      	ldr	r2, [pc, #196]	; (8000b04 <ST7735_FillRectangle+0x104>)
 8000a40:	f9b2 2000 	ldrsh.w	r2, [r2]
 8000a44:	4293      	cmp	r3, r2
 8000a46:	db06      	blt.n	8000a56 <ST7735_FillRectangle+0x56>
 8000a48:	4b2e      	ldr	r3, [pc, #184]	; (8000b04 <ST7735_FillRectangle+0x104>)
 8000a4a:	f9b3 3000 	ldrsh.w	r3, [r3]
 8000a4e:	b29a      	uxth	r2, r3
 8000a50:	88fb      	ldrh	r3, [r7, #6]
 8000a52:	1ad3      	subs	r3, r2, r3
 8000a54:	807b      	strh	r3, [r7, #2]
    if((y + h - 1) >= _height) h = _height - y;
 8000a56:	88ba      	ldrh	r2, [r7, #4]
 8000a58:	883b      	ldrh	r3, [r7, #0]
 8000a5a:	4413      	add	r3, r2
 8000a5c:	3b01      	subs	r3, #1
 8000a5e:	4a2a      	ldr	r2, [pc, #168]	; (8000b08 <ST7735_FillRectangle+0x108>)
 8000a60:	f9b2 2000 	ldrsh.w	r2, [r2]
 8000a64:	4293      	cmp	r3, r2
 8000a66:	db06      	blt.n	8000a76 <ST7735_FillRectangle+0x76>
 8000a68:	4b27      	ldr	r3, [pc, #156]	; (8000b08 <ST7735_FillRectangle+0x108>)
 8000a6a:	f9b3 3000 	ldrsh.w	r3, [r3]
 8000a6e:	b29a      	uxth	r2, r3
 8000a70:	88bb      	ldrh	r3, [r7, #4]
 8000a72:	1ad3      	subs	r3, r2, r3
 8000a74:	803b      	strh	r3, [r7, #0]

    ST7735_Select();
 8000a76:	f7ff fd5d 	bl	8000534 <ST7735_Select>
    ST7735_SetAddressWindow(x, y, x+w-1, y+h-1);
 8000a7a:	88fb      	ldrh	r3, [r7, #6]
 8000a7c:	b2d8      	uxtb	r0, r3
 8000a7e:	88bb      	ldrh	r3, [r7, #4]
 8000a80:	b2d9      	uxtb	r1, r3
 8000a82:	88fb      	ldrh	r3, [r7, #6]
 8000a84:	b2da      	uxtb	r2, r3
 8000a86:	887b      	ldrh	r3, [r7, #2]
 8000a88:	b2db      	uxtb	r3, r3
 8000a8a:	4413      	add	r3, r2
 8000a8c:	b2db      	uxtb	r3, r3
 8000a8e:	3b01      	subs	r3, #1
 8000a90:	b2dc      	uxtb	r4, r3
 8000a92:	88bb      	ldrh	r3, [r7, #4]
 8000a94:	b2da      	uxtb	r2, r3
 8000a96:	883b      	ldrh	r3, [r7, #0]
 8000a98:	b2db      	uxtb	r3, r3
 8000a9a:	4413      	add	r3, r2
 8000a9c:	b2db      	uxtb	r3, r3
 8000a9e:	3b01      	subs	r3, #1
 8000aa0:	b2db      	uxtb	r3, r3
 8000aa2:	4622      	mov	r2, r4
 8000aa4:	f7ff fdee 	bl	8000684 <ST7735_SetAddressWindow>

    uint8_t data[] = { color >> 8, color & 0xFF };
 8000aa8:	8c3b      	ldrh	r3, [r7, #32]
 8000aaa:	0a1b      	lsrs	r3, r3, #8
 8000aac:	b29b      	uxth	r3, r3
 8000aae:	b2db      	uxtb	r3, r3
 8000ab0:	733b      	strb	r3, [r7, #12]
 8000ab2:	8c3b      	ldrh	r3, [r7, #32]
 8000ab4:	b2db      	uxtb	r3, r3
 8000ab6:	737b      	strb	r3, [r7, #13]
    HAL_GPIO_WritePin(DC_PORT, DC_PIN, GPIO_PIN_SET);
 8000ab8:	2201      	movs	r2, #1
 8000aba:	2120      	movs	r1, #32
 8000abc:	4813      	ldr	r0, [pc, #76]	; (8000b0c <ST7735_FillRectangle+0x10c>)
 8000abe:	f003 f851 	bl	8003b64 <HAL_GPIO_WritePin>
    for(y = h; y > 0; y--) {
 8000ac2:	883b      	ldrh	r3, [r7, #0]
 8000ac4:	80bb      	strh	r3, [r7, #4]
 8000ac6:	e013      	b.n	8000af0 <ST7735_FillRectangle+0xf0>
        for(x = w; x > 0; x--) {
 8000ac8:	887b      	ldrh	r3, [r7, #2]
 8000aca:	80fb      	strh	r3, [r7, #6]
 8000acc:	e00a      	b.n	8000ae4 <ST7735_FillRectangle+0xe4>
            HAL_SPI_Transmit(&ST7735_SPI_PORT, data, sizeof(data), HAL_MAX_DELAY);
 8000ace:	f107 010c 	add.w	r1, r7, #12
 8000ad2:	f04f 33ff 	mov.w	r3, #4294967295
 8000ad6:	2202      	movs	r2, #2
 8000ad8:	480d      	ldr	r0, [pc, #52]	; (8000b10 <ST7735_FillRectangle+0x110>)
 8000ada:	f003 fd07 	bl	80044ec <HAL_SPI_Transmit>
        for(x = w; x > 0; x--) {
 8000ade:	88fb      	ldrh	r3, [r7, #6]
 8000ae0:	3b01      	subs	r3, #1
 8000ae2:	80fb      	strh	r3, [r7, #6]
 8000ae4:	88fb      	ldrh	r3, [r7, #6]
 8000ae6:	2b00      	cmp	r3, #0
 8000ae8:	d1f1      	bne.n	8000ace <ST7735_FillRectangle+0xce>
    for(y = h; y > 0; y--) {
 8000aea:	88bb      	ldrh	r3, [r7, #4]
 8000aec:	3b01      	subs	r3, #1
 8000aee:	80bb      	strh	r3, [r7, #4]
 8000af0:	88bb      	ldrh	r3, [r7, #4]
 8000af2:	2b00      	cmp	r3, #0
 8000af4:	d1e8      	bne.n	8000ac8 <ST7735_FillRectangle+0xc8>
        }
    }

    ST7735_Unselect();
 8000af6:	f7ff fd29 	bl	800054c <ST7735_Unselect>
 8000afa:	e000      	b.n	8000afe <ST7735_FillRectangle+0xfe>
    if((x >= _width) || (y >= _height)) return;
 8000afc:	bf00      	nop
}
 8000afe:	3714      	adds	r7, #20
 8000b00:	46bd      	mov	sp, r7
 8000b02:	bd90      	pop	{r4, r7, pc}
 8000b04:	20000060 	.word	0x20000060
 8000b08:	20000064 	.word	0x20000064
 8000b0c:	40020800 	.word	0x40020800
 8000b10:	200001ac 	.word	0x200001ac

08000b14 <HX711_Average_Value>:
#include "hx711.h"



int HX711_Average_Value(HX711 data, uint8_t times)
{
 8000b14:	b084      	sub	sp, #16
 8000b16:	b580      	push	{r7, lr}
 8000b18:	b084      	sub	sp, #16
 8000b1a:	af02      	add	r7, sp, #8
 8000b1c:	f107 0c10 	add.w	ip, r7, #16
 8000b20:	e88c 000f 	stmia.w	ip, {r0, r1, r2, r3}
    int sum = 0;
 8000b24:	2300      	movs	r3, #0
 8000b26:	607b      	str	r3, [r7, #4]
    for (int i = 0; i < times; i++)
 8000b28:	2300      	movs	r3, #0
 8000b2a:	603b      	str	r3, [r7, #0]
 8000b2c:	e00d      	b.n	8000b4a <HX711_Average_Value+0x36>
    {
        sum += HX711_Value(data);
 8000b2e:	6a3b      	ldr	r3, [r7, #32]
 8000b30:	9300      	str	r3, [sp, #0]
 8000b32:	f107 0310 	add.w	r3, r7, #16
 8000b36:	cb0f      	ldmia	r3, {r0, r1, r2, r3}
 8000b38:	f000 f818 	bl	8000b6c <HX711_Value>
 8000b3c:	4602      	mov	r2, r0
 8000b3e:	687b      	ldr	r3, [r7, #4]
 8000b40:	4413      	add	r3, r2
 8000b42:	607b      	str	r3, [r7, #4]
    for (int i = 0; i < times; i++)
 8000b44:	683b      	ldr	r3, [r7, #0]
 8000b46:	3301      	adds	r3, #1
 8000b48:	603b      	str	r3, [r7, #0]
 8000b4a:	f897 3024 	ldrb.w	r3, [r7, #36]	; 0x24
 8000b4e:	683a      	ldr	r2, [r7, #0]
 8000b50:	429a      	cmp	r2, r3
 8000b52:	dbec      	blt.n	8000b2e <HX711_Average_Value+0x1a>
    }

    return sum / times;
 8000b54:	f897 3024 	ldrb.w	r3, [r7, #36]	; 0x24
 8000b58:	687a      	ldr	r2, [r7, #4]
 8000b5a:	fb92 f3f3 	sdiv	r3, r2, r3
}
 8000b5e:	4618      	mov	r0, r3
 8000b60:	3708      	adds	r7, #8
 8000b62:	46bd      	mov	sp, r7
 8000b64:	e8bd 4080 	ldmia.w	sp!, {r7, lr}
 8000b68:	b004      	add	sp, #16
 8000b6a:	4770      	bx	lr

08000b6c <HX711_Value>:

int HX711_Value(HX711 data)
{
 8000b6c:	b084      	sub	sp, #16
 8000b6e:	b580      	push	{r7, lr}
 8000b70:	b082      	sub	sp, #8
 8000b72:	af00      	add	r7, sp, #0
 8000b74:	f107 0c10 	add.w	ip, r7, #16
 8000b78:	e88c 000f 	stmia.w	ip, {r0, r1, r2, r3}
    int buffer;
    buffer = 0;
 8000b7c:	2300      	movs	r3, #0
 8000b7e:	607b      	str	r3, [r7, #4]

    while (HAL_GPIO_ReadPin(data.gpioData, data.pinData)==1);
 8000b80:	bf00      	nop
 8000b82:	697b      	ldr	r3, [r7, #20]
 8000b84:	8b7a      	ldrh	r2, [r7, #26]
 8000b86:	4611      	mov	r1, r2
 8000b88:	4618      	mov	r0, r3
 8000b8a:	f002 ffd3 	bl	8003b34 <HAL_GPIO_ReadPin>
 8000b8e:	4603      	mov	r3, r0
 8000b90:	2b01      	cmp	r3, #1
 8000b92:	d0f6      	beq.n	8000b82 <HX711_Value+0x16>

    for (uint8_t i = 0; i < 24; i++)
 8000b94:	2300      	movs	r3, #0
 8000b96:	70fb      	strb	r3, [r7, #3]
 8000b98:	e01d      	b.n	8000bd6 <HX711_Value+0x6a>
    {
    	HAL_GPIO_WritePin(data.gpioSck, data.pinSck, GPIO_PIN_SET);
 8000b9a:	693b      	ldr	r3, [r7, #16]
 8000b9c:	8b39      	ldrh	r1, [r7, #24]
 8000b9e:	2201      	movs	r2, #1
 8000ba0:	4618      	mov	r0, r3
 8000ba2:	f002 ffdf 	bl	8003b64 <HAL_GPIO_WritePin>

        buffer = buffer << 1 ;
 8000ba6:	687b      	ldr	r3, [r7, #4]
 8000ba8:	005b      	lsls	r3, r3, #1
 8000baa:	607b      	str	r3, [r7, #4]

        if (HAL_GPIO_ReadPin(data.gpioData, data.pinData))
 8000bac:	697b      	ldr	r3, [r7, #20]
 8000bae:	8b7a      	ldrh	r2, [r7, #26]
 8000bb0:	4611      	mov	r1, r2
 8000bb2:	4618      	mov	r0, r3
 8000bb4:	f002 ffbe 	bl	8003b34 <HAL_GPIO_ReadPin>
 8000bb8:	4603      	mov	r3, r0
 8000bba:	2b00      	cmp	r3, #0
 8000bbc:	d002      	beq.n	8000bc4 <HX711_Value+0x58>
        {
            buffer ++;
 8000bbe:	687b      	ldr	r3, [r7, #4]
 8000bc0:	3301      	adds	r3, #1
 8000bc2:	607b      	str	r3, [r7, #4]
        }

        HAL_GPIO_WritePin(data.gpioSck, data.pinSck, GPIO_PIN_RESET);
 8000bc4:	693b      	ldr	r3, [r7, #16]
 8000bc6:	8b39      	ldrh	r1, [r7, #24]
 8000bc8:	2200      	movs	r2, #0
 8000bca:	4618      	mov	r0, r3
 8000bcc:	f002 ffca 	bl	8003b64 <HAL_GPIO_WritePin>
    for (uint8_t i = 0; i < 24; i++)
 8000bd0:	78fb      	ldrb	r3, [r7, #3]
 8000bd2:	3301      	adds	r3, #1
 8000bd4:	70fb      	strb	r3, [r7, #3]
 8000bd6:	78fb      	ldrb	r3, [r7, #3]
 8000bd8:	2b17      	cmp	r3, #23
 8000bda:	d9de      	bls.n	8000b9a <HX711_Value+0x2e>
    }


    buffer = buffer ^ 0x800000; //xor
 8000bdc:	687b      	ldr	r3, [r7, #4]
 8000bde:	f483 0300 	eor.w	r3, r3, #8388608	; 0x800000
 8000be2:	607b      	str	r3, [r7, #4]

    return buffer;
 8000be4:	687b      	ldr	r3, [r7, #4]
}
 8000be6:	4618      	mov	r0, r3
 8000be8:	3708      	adds	r7, #8
 8000bea:	46bd      	mov	sp, r7
 8000bec:	e8bd 4080 	ldmia.w	sp!, {r7, lr}
 8000bf0:	b004      	add	sp, #16
 8000bf2:	4770      	bx	lr

08000bf4 <xfallo>:
/* Private user code ---------------------------------------------------------*/
/* USER CODE BEGIN 0 */


int  xfallo()
{
 8000bf4:	b580      	push	{r7, lr}
 8000bf6:	b084      	sub	sp, #16
 8000bf8:	af04      	add	r7, sp, #16
	//Imprimir por pantalla la info del fallo y el valor de los sensores

	  //Lectura de los sensores
	  itoa(deg, puerta, 10);
 8000bfa:	4b8c      	ldr	r3, [pc, #560]	; (8000e2c <xfallo+0x238>)
 8000bfc:	681b      	ldr	r3, [r3, #0]
 8000bfe:	220a      	movs	r2, #10
 8000c00:	498b      	ldr	r1, [pc, #556]	; (8000e30 <xfallo+0x23c>)
 8000c02:	4618      	mov	r0, r3
 8000c04:	f004 fc2c 	bl	8005460 <itoa>

	  //Lectura del sensor de peso
	  p = HX711_Average_Value(peso, 4);
 8000c08:	4b8a      	ldr	r3, [pc, #552]	; (8000e34 <xfallo+0x240>)
 8000c0a:	2204      	movs	r2, #4
 8000c0c:	9201      	str	r2, [sp, #4]
 8000c0e:	691a      	ldr	r2, [r3, #16]
 8000c10:	9200      	str	r2, [sp, #0]
 8000c12:	cb0f      	ldmia	r3, {r0, r1, r2, r3}
 8000c14:	f7ff ff7e 	bl	8000b14 <HX711_Average_Value>
 8000c18:	4602      	mov	r2, r0
 8000c1a:	4b87      	ldr	r3, [pc, #540]	; (8000e38 <xfallo+0x244>)
 8000c1c:	601a      	str	r2, [r3, #0]
	  p = p - tara;
 8000c1e:	4b86      	ldr	r3, [pc, #536]	; (8000e38 <xfallo+0x244>)
 8000c20:	681a      	ldr	r2, [r3, #0]
 8000c22:	4b86      	ldr	r3, [pc, #536]	; (8000e3c <xfallo+0x248>)
 8000c24:	681b      	ldr	r3, [r3, #0]
 8000c26:	1ad3      	subs	r3, r2, r3
 8000c28:	4a83      	ldr	r2, [pc, #524]	; (8000e38 <xfallo+0x244>)
 8000c2a:	6013      	str	r3, [r2, #0]
	  itoa(p, presion, 10);
 8000c2c:	4b82      	ldr	r3, [pc, #520]	; (8000e38 <xfallo+0x244>)
 8000c2e:	681b      	ldr	r3, [r3, #0]
 8000c30:	220a      	movs	r2, #10
 8000c32:	4983      	ldr	r1, [pc, #524]	; (8000e40 <xfallo+0x24c>)
 8000c34:	4618      	mov	r0, r3
 8000c36:	f004 fc13 	bl	8005460 <itoa>

	  //Pantalla
	  ST7735_SetRotation(1);
 8000c3a:	2001      	movs	r0, #1
 8000c3c:	f7ff fd96 	bl	800076c <ST7735_SetRotation>
	  ST7735_WriteString(0, 0, "Fallo en los sensores", Font_7x10, WHITE,BLACK);
 8000c40:	4b80      	ldr	r3, [pc, #512]	; (8000e44 <xfallo+0x250>)
 8000c42:	2200      	movs	r2, #0
 8000c44:	9202      	str	r2, [sp, #8]
 8000c46:	f64f 72ff 	movw	r2, #65535	; 0xffff
 8000c4a:	9201      	str	r2, [sp, #4]
 8000c4c:	685a      	ldr	r2, [r3, #4]
 8000c4e:	9200      	str	r2, [sp, #0]
 8000c50:	681b      	ldr	r3, [r3, #0]
 8000c52:	4a7d      	ldr	r2, [pc, #500]	; (8000e48 <xfallo+0x254>)
 8000c54:	2100      	movs	r1, #0
 8000c56:	2000      	movs	r0, #0
 8000c58:	f7ff fe7e 	bl	8000958 <ST7735_WriteString>

	  ST7735_WriteString(0, 10, "Puerta: ", Font_7x10, GREEN,BLACK);
 8000c5c:	4b79      	ldr	r3, [pc, #484]	; (8000e44 <xfallo+0x250>)
 8000c5e:	2200      	movs	r2, #0
 8000c60:	9202      	str	r2, [sp, #8]
 8000c62:	f44f 62fc 	mov.w	r2, #2016	; 0x7e0
 8000c66:	9201      	str	r2, [sp, #4]
 8000c68:	685a      	ldr	r2, [r3, #4]
 8000c6a:	9200      	str	r2, [sp, #0]
 8000c6c:	681b      	ldr	r3, [r3, #0]
 8000c6e:	4a77      	ldr	r2, [pc, #476]	; (8000e4c <xfallo+0x258>)
 8000c70:	210a      	movs	r1, #10
 8000c72:	2000      	movs	r0, #0
 8000c74:	f7ff fe70 	bl	8000958 <ST7735_WriteString>
	  if(deg>deg_max)
 8000c78:	4b6c      	ldr	r3, [pc, #432]	; (8000e2c <xfallo+0x238>)
 8000c7a:	681b      	ldr	r3, [r3, #0]
 8000c7c:	2b14      	cmp	r3, #20
 8000c7e:	dd0e      	ble.n	8000c9e <xfallo+0xaa>
		  ST7735_WriteString(50, 10, puerta, Font_7x10, RED,BLACK);
 8000c80:	4b70      	ldr	r3, [pc, #448]	; (8000e44 <xfallo+0x250>)
 8000c82:	2200      	movs	r2, #0
 8000c84:	9202      	str	r2, [sp, #8]
 8000c86:	f44f 4278 	mov.w	r2, #63488	; 0xf800
 8000c8a:	9201      	str	r2, [sp, #4]
 8000c8c:	685a      	ldr	r2, [r3, #4]
 8000c8e:	9200      	str	r2, [sp, #0]
 8000c90:	681b      	ldr	r3, [r3, #0]
 8000c92:	4a67      	ldr	r2, [pc, #412]	; (8000e30 <xfallo+0x23c>)
 8000c94:	210a      	movs	r1, #10
 8000c96:	2032      	movs	r0, #50	; 0x32
 8000c98:	f7ff fe5e 	bl	8000958 <ST7735_WriteString>
 8000c9c:	e00d      	b.n	8000cba <xfallo+0xc6>
	  else
		  ST7735_WriteString(50, 10, puerta, Font_7x10, WHITE,BLACK);
 8000c9e:	4b69      	ldr	r3, [pc, #420]	; (8000e44 <xfallo+0x250>)
 8000ca0:	2200      	movs	r2, #0
 8000ca2:	9202      	str	r2, [sp, #8]
 8000ca4:	f64f 72ff 	movw	r2, #65535	; 0xffff
 8000ca8:	9201      	str	r2, [sp, #4]
 8000caa:	685a      	ldr	r2, [r3, #4]
 8000cac:	9200      	str	r2, [sp, #0]
 8000cae:	681b      	ldr	r3, [r3, #0]
 8000cb0:	4a5f      	ldr	r2, [pc, #380]	; (8000e30 <xfallo+0x23c>)
 8000cb2:	210a      	movs	r1, #10
 8000cb4:	2032      	movs	r0, #50	; 0x32
 8000cb6:	f7ff fe4f 	bl	8000958 <ST7735_WriteString>


	  ST7735_WriteString(0, 20, "Presion: ", Font_7x10, GREEN,BLACK);
 8000cba:	4b62      	ldr	r3, [pc, #392]	; (8000e44 <xfallo+0x250>)
 8000cbc:	2200      	movs	r2, #0
 8000cbe:	9202      	str	r2, [sp, #8]
 8000cc0:	f44f 62fc 	mov.w	r2, #2016	; 0x7e0
 8000cc4:	9201      	str	r2, [sp, #4]
 8000cc6:	685a      	ldr	r2, [r3, #4]
 8000cc8:	9200      	str	r2, [sp, #0]
 8000cca:	681b      	ldr	r3, [r3, #0]
 8000ccc:	4a60      	ldr	r2, [pc, #384]	; (8000e50 <xfallo+0x25c>)
 8000cce:	2114      	movs	r1, #20
 8000cd0:	2000      	movs	r0, #0
 8000cd2:	f7ff fe41 	bl	8000958 <ST7735_WriteString>
	  if(p<-100000)
 8000cd6:	4b58      	ldr	r3, [pc, #352]	; (8000e38 <xfallo+0x244>)
 8000cd8:	681b      	ldr	r3, [r3, #0]
 8000cda:	4a5e      	ldr	r2, [pc, #376]	; (8000e54 <xfallo+0x260>)
 8000cdc:	4293      	cmp	r3, r2
 8000cde:	da0e      	bge.n	8000cfe <xfallo+0x10a>
		  ST7735_WriteString(50, 10, puerta, Font_7x10, RED,BLACK);
 8000ce0:	4b58      	ldr	r3, [pc, #352]	; (8000e44 <xfallo+0x250>)
 8000ce2:	2200      	movs	r2, #0
 8000ce4:	9202      	str	r2, [sp, #8]
 8000ce6:	f44f 4278 	mov.w	r2, #63488	; 0xf800
 8000cea:	9201      	str	r2, [sp, #4]
 8000cec:	685a      	ldr	r2, [r3, #4]
 8000cee:	9200      	str	r2, [sp, #0]
 8000cf0:	681b      	ldr	r3, [r3, #0]
 8000cf2:	4a4f      	ldr	r2, [pc, #316]	; (8000e30 <xfallo+0x23c>)
 8000cf4:	210a      	movs	r1, #10
 8000cf6:	2032      	movs	r0, #50	; 0x32
 8000cf8:	f7ff fe2e 	bl	8000958 <ST7735_WriteString>
 8000cfc:	e00d      	b.n	8000d1a <xfallo+0x126>
	  else
		  ST7735_WriteString(50, 20, presion, Font_7x10, WHITE,BLACK);
 8000cfe:	4b51      	ldr	r3, [pc, #324]	; (8000e44 <xfallo+0x250>)
 8000d00:	2200      	movs	r2, #0
 8000d02:	9202      	str	r2, [sp, #8]
 8000d04:	f64f 72ff 	movw	r2, #65535	; 0xffff
 8000d08:	9201      	str	r2, [sp, #4]
 8000d0a:	685a      	ldr	r2, [r3, #4]
 8000d0c:	9200      	str	r2, [sp, #0]
 8000d0e:	681b      	ldr	r3, [r3, #0]
 8000d10:	4a4b      	ldr	r2, [pc, #300]	; (8000e40 <xfallo+0x24c>)
 8000d12:	2114      	movs	r1, #20
 8000d14:	2032      	movs	r0, #50	; 0x32
 8000d16:	f7ff fe1f 	bl	8000958 <ST7735_WriteString>

	  ST7735_WriteString(0, 30, "Ventana: ", Font_7x10, GREEN,BLACK);
 8000d1a:	4b4a      	ldr	r3, [pc, #296]	; (8000e44 <xfallo+0x250>)
 8000d1c:	2200      	movs	r2, #0
 8000d1e:	9202      	str	r2, [sp, #8]
 8000d20:	f44f 62fc 	mov.w	r2, #2016	; 0x7e0
 8000d24:	9201      	str	r2, [sp, #4]
 8000d26:	685a      	ldr	r2, [r3, #4]
 8000d28:	9200      	str	r2, [sp, #0]
 8000d2a:	681b      	ldr	r3, [r3, #0]
 8000d2c:	4a4a      	ldr	r2, [pc, #296]	; (8000e58 <xfallo+0x264>)
 8000d2e:	211e      	movs	r1, #30
 8000d30:	2000      	movs	r0, #0
 8000d32:	f7ff fe11 	bl	8000958 <ST7735_WriteString>
	  if(ventana==1)
 8000d36:	4b49      	ldr	r3, [pc, #292]	; (8000e5c <xfallo+0x268>)
 8000d38:	681b      	ldr	r3, [r3, #0]
 8000d3a:	2b01      	cmp	r3, #1
 8000d3c:	d10e      	bne.n	8000d5c <xfallo+0x168>
		  ST7735_WriteString(50, 30, "abierta", Font_7x10, RED,BLACK);
 8000d3e:	4b41      	ldr	r3, [pc, #260]	; (8000e44 <xfallo+0x250>)
 8000d40:	2200      	movs	r2, #0
 8000d42:	9202      	str	r2, [sp, #8]
 8000d44:	f44f 4278 	mov.w	r2, #63488	; 0xf800
 8000d48:	9201      	str	r2, [sp, #4]
 8000d4a:	685a      	ldr	r2, [r3, #4]
 8000d4c:	9200      	str	r2, [sp, #0]
 8000d4e:	681b      	ldr	r3, [r3, #0]
 8000d50:	4a43      	ldr	r2, [pc, #268]	; (8000e60 <xfallo+0x26c>)
 8000d52:	211e      	movs	r1, #30
 8000d54:	2032      	movs	r0, #50	; 0x32
 8000d56:	f7ff fdff 	bl	8000958 <ST7735_WriteString>
 8000d5a:	e00d      	b.n	8000d78 <xfallo+0x184>
	  else
		  ST7735_WriteString(50, 30, "cerrada", Font_7x10, WHITE,BLACK);
 8000d5c:	4b39      	ldr	r3, [pc, #228]	; (8000e44 <xfallo+0x250>)
 8000d5e:	2200      	movs	r2, #0
 8000d60:	9202      	str	r2, [sp, #8]
 8000d62:	f64f 72ff 	movw	r2, #65535	; 0xffff
 8000d66:	9201      	str	r2, [sp, #4]
 8000d68:	685a      	ldr	r2, [r3, #4]
 8000d6a:	9200      	str	r2, [sp, #0]
 8000d6c:	681b      	ldr	r3, [r3, #0]
 8000d6e:	4a3d      	ldr	r2, [pc, #244]	; (8000e64 <xfallo+0x270>)
 8000d70:	211e      	movs	r1, #30
 8000d72:	2032      	movs	r0, #50	; 0x32
 8000d74:	f7ff fdf0 	bl	8000958 <ST7735_WriteString>

	  ST7735_WriteString(0, 50, "Compruebe que los", Font_7x10, WHITE,BLACK);
 8000d78:	4b32      	ldr	r3, [pc, #200]	; (8000e44 <xfallo+0x250>)
 8000d7a:	2200      	movs	r2, #0
 8000d7c:	9202      	str	r2, [sp, #8]
 8000d7e:	f64f 72ff 	movw	r2, #65535	; 0xffff
 8000d82:	9201      	str	r2, [sp, #4]
 8000d84:	685a      	ldr	r2, [r3, #4]
 8000d86:	9200      	str	r2, [sp, #0]
 8000d88:	681b      	ldr	r3, [r3, #0]
 8000d8a:	4a37      	ldr	r2, [pc, #220]	; (8000e68 <xfallo+0x274>)
 8000d8c:	2132      	movs	r1, #50	; 0x32
 8000d8e:	2000      	movs	r0, #0
 8000d90:	f7ff fde2 	bl	8000958 <ST7735_WriteString>
	  ST7735_WriteString(0, 60, "sensores estan", Font_7x10, WHITE,BLACK);
 8000d94:	4b2b      	ldr	r3, [pc, #172]	; (8000e44 <xfallo+0x250>)
 8000d96:	2200      	movs	r2, #0
 8000d98:	9202      	str	r2, [sp, #8]
 8000d9a:	f64f 72ff 	movw	r2, #65535	; 0xffff
 8000d9e:	9201      	str	r2, [sp, #4]
 8000da0:	685a      	ldr	r2, [r3, #4]
 8000da2:	9200      	str	r2, [sp, #0]
 8000da4:	681b      	ldr	r3, [r3, #0]
 8000da6:	4a31      	ldr	r2, [pc, #196]	; (8000e6c <xfallo+0x278>)
 8000da8:	213c      	movs	r1, #60	; 0x3c
 8000daa:	2000      	movs	r0, #0
 8000dac:	f7ff fdd4 	bl	8000958 <ST7735_WriteString>
	  ST7735_WriteString(0, 70, "por debajo del umbral", Font_7x10, WHITE,BLACK);
 8000db0:	4b24      	ldr	r3, [pc, #144]	; (8000e44 <xfallo+0x250>)
 8000db2:	2200      	movs	r2, #0
 8000db4:	9202      	str	r2, [sp, #8]
 8000db6:	f64f 72ff 	movw	r2, #65535	; 0xffff
 8000dba:	9201      	str	r2, [sp, #4]
 8000dbc:	685a      	ldr	r2, [r3, #4]
 8000dbe:	9200      	str	r2, [sp, #0]
 8000dc0:	681b      	ldr	r3, [r3, #0]
 8000dc2:	4a2b      	ldr	r2, [pc, #172]	; (8000e70 <xfallo+0x27c>)
 8000dc4:	2146      	movs	r1, #70	; 0x46
 8000dc6:	2000      	movs	r0, #0
 8000dc8:	f7ff fdc6 	bl	8000958 <ST7735_WriteString>
	  ST7735_WriteString(0, 80, "de activacion antes de", Font_7x10, WHITE,BLACK);
 8000dcc:	4b1d      	ldr	r3, [pc, #116]	; (8000e44 <xfallo+0x250>)
 8000dce:	2200      	movs	r2, #0
 8000dd0:	9202      	str	r2, [sp, #8]
 8000dd2:	f64f 72ff 	movw	r2, #65535	; 0xffff
 8000dd6:	9201      	str	r2, [sp, #4]
 8000dd8:	685a      	ldr	r2, [r3, #4]
 8000dda:	9200      	str	r2, [sp, #0]
 8000ddc:	681b      	ldr	r3, [r3, #0]
 8000dde:	4a25      	ldr	r2, [pc, #148]	; (8000e74 <xfallo+0x280>)
 8000de0:	2150      	movs	r1, #80	; 0x50
 8000de2:	2000      	movs	r0, #0
 8000de4:	f7ff fdb8 	bl	8000958 <ST7735_WriteString>
	  ST7735_WriteString(0, 90, "conectar la alarma.", Font_7x10, WHITE,BLACK);
 8000de8:	4b16      	ldr	r3, [pc, #88]	; (8000e44 <xfallo+0x250>)
 8000dea:	2200      	movs	r2, #0
 8000dec:	9202      	str	r2, [sp, #8]
 8000dee:	f64f 72ff 	movw	r2, #65535	; 0xffff
 8000df2:	9201      	str	r2, [sp, #4]
 8000df4:	685a      	ldr	r2, [r3, #4]
 8000df6:	9200      	str	r2, [sp, #0]
 8000df8:	681b      	ldr	r3, [r3, #0]
 8000dfa:	4a1f      	ldr	r2, [pc, #124]	; (8000e78 <xfallo+0x284>)
 8000dfc:	215a      	movs	r1, #90	; 0x5a
 8000dfe:	2000      	movs	r0, #0
 8000e00:	f7ff fdaa 	bl	8000958 <ST7735_WriteString>

	  //Electroiman
	  HAL_GPIO_WritePin(GPIOA, GPIO_PIN_10, GPIO_PIN_SET);
 8000e04:	2201      	movs	r2, #1
 8000e06:	f44f 6180 	mov.w	r1, #1024	; 0x400
 8000e0a:	481c      	ldr	r0, [pc, #112]	; (8000e7c <xfallo+0x288>)
 8000e0c:	f002 feaa 	bl	8003b64 <HAL_GPIO_WritePin>

	  //LEDs
	  HAL_GPIO_WritePin(GPIOC, GPIO_PIN_8, GPIO_PIN_SET);
 8000e10:	2201      	movs	r2, #1
 8000e12:	f44f 7180 	mov.w	r1, #256	; 0x100
 8000e16:	481a      	ldr	r0, [pc, #104]	; (8000e80 <xfallo+0x28c>)
 8000e18:	f002 fea4 	bl	8003b64 <HAL_GPIO_WritePin>

	  //Buzzer
	  htim4.Instance->CCR1 = 0;
 8000e1c:	4b19      	ldr	r3, [pc, #100]	; (8000e84 <xfallo+0x290>)
 8000e1e:	681b      	ldr	r3, [r3, #0]
 8000e20:	2200      	movs	r2, #0
 8000e22:	635a      	str	r2, [r3, #52]	; 0x34

	  return 0;
 8000e24:	2300      	movs	r3, #0
}
 8000e26:	4618      	mov	r0, r3
 8000e28:	46bd      	mov	sp, r7
 8000e2a:	bd80      	pop	{r7, pc}
 8000e2c:	20000040 	.word	0x20000040
 8000e30:	200001a8 	.word	0x200001a8
 8000e34:	200000e8 	.word	0x200000e8
 8000e38:	20000038 	.word	0x20000038
 8000e3c:	2000003c 	.word	0x2000003c
 8000e40:	20000208 	.word	0x20000208
 8000e44:	20000000 	.word	0x20000000
 8000e48:	08005508 	.word	0x08005508
 8000e4c:	08005520 	.word	0x08005520
 8000e50:	0800552c 	.word	0x0800552c
 8000e54:	fffe7960 	.word	0xfffe7960
 8000e58:	08005538 	.word	0x08005538
 8000e5c:	20000048 	.word	0x20000048
 8000e60:	08005544 	.word	0x08005544
 8000e64:	0800554c 	.word	0x0800554c
 8000e68:	08005554 	.word	0x08005554
 8000e6c:	08005568 	.word	0x08005568
 8000e70:	08005578 	.word	0x08005578
 8000e74:	08005590 	.word	0x08005590
 8000e78:	080055a8 	.word	0x080055a8
 8000e7c:	40020000 	.word	0x40020000
 8000e80:	40020800 	.word	0x40020800
 8000e84:	20000068 	.word	0x20000068

08000e88 <xstb>:

int xstb()
{
 8000e88:	b580      	push	{r7, lr}
 8000e8a:	b086      	sub	sp, #24
 8000e8c:	af04      	add	r7, sp, #16
	uint32_t tickstart=0;
 8000e8e:	2300      	movs	r3, #0
 8000e90:	607b      	str	r3, [r7, #4]

	//Pantalla
	ST7735_SetRotation(1);
 8000e92:	2001      	movs	r0, #1
 8000e94:	f7ff fc6a 	bl	800076c <ST7735_SetRotation>
	ST7735_WriteString(0, 0, "Alarma", Font_11x18, YELLOW,BLACK);
 8000e98:	4b4e      	ldr	r3, [pc, #312]	; (8000fd4 <xstb+0x14c>)
 8000e9a:	2200      	movs	r2, #0
 8000e9c:	9202      	str	r2, [sp, #8]
 8000e9e:	f64f 72e0 	movw	r2, #65504	; 0xffe0
 8000ea2:	9201      	str	r2, [sp, #4]
 8000ea4:	685a      	ldr	r2, [r3, #4]
 8000ea6:	9200      	str	r2, [sp, #0]
 8000ea8:	681b      	ldr	r3, [r3, #0]
 8000eaa:	4a4b      	ldr	r2, [pc, #300]	; (8000fd8 <xstb+0x150>)
 8000eac:	2100      	movs	r1, #0
 8000eae:	2000      	movs	r0, #0
 8000eb0:	f7ff fd52 	bl	8000958 <ST7735_WriteString>
	ST7735_WriteString(0, 15, "desconectada", Font_11x18, YELLOW,BLACK);
 8000eb4:	4b47      	ldr	r3, [pc, #284]	; (8000fd4 <xstb+0x14c>)
 8000eb6:	2200      	movs	r2, #0
 8000eb8:	9202      	str	r2, [sp, #8]
 8000eba:	f64f 72e0 	movw	r2, #65504	; 0xffe0
 8000ebe:	9201      	str	r2, [sp, #4]
 8000ec0:	685a      	ldr	r2, [r3, #4]
 8000ec2:	9200      	str	r2, [sp, #0]
 8000ec4:	681b      	ldr	r3, [r3, #0]
 8000ec6:	4a45      	ldr	r2, [pc, #276]	; (8000fdc <xstb+0x154>)
 8000ec8:	210f      	movs	r1, #15
 8000eca:	2000      	movs	r0, #0
 8000ecc:	f7ff fd44 	bl	8000958 <ST7735_WriteString>
	ST7735_WriteString(0, 50, "Pulse el boton azul", Font_7x10, WHITE,BLACK);
 8000ed0:	4b43      	ldr	r3, [pc, #268]	; (8000fe0 <xstb+0x158>)
 8000ed2:	2200      	movs	r2, #0
 8000ed4:	9202      	str	r2, [sp, #8]
 8000ed6:	f64f 72ff 	movw	r2, #65535	; 0xffff
 8000eda:	9201      	str	r2, [sp, #4]
 8000edc:	685a      	ldr	r2, [r3, #4]
 8000ede:	9200      	str	r2, [sp, #0]
 8000ee0:	681b      	ldr	r3, [r3, #0]
 8000ee2:	4a40      	ldr	r2, [pc, #256]	; (8000fe4 <xstb+0x15c>)
 8000ee4:	2132      	movs	r1, #50	; 0x32
 8000ee6:	2000      	movs	r0, #0
 8000ee8:	f7ff fd36 	bl	8000958 <ST7735_WriteString>
	ST7735_WriteString(0, 60, "para conectar.", Font_7x10, WHITE,BLACK);
 8000eec:	4b3c      	ldr	r3, [pc, #240]	; (8000fe0 <xstb+0x158>)
 8000eee:	2200      	movs	r2, #0
 8000ef0:	9202      	str	r2, [sp, #8]
 8000ef2:	f64f 72ff 	movw	r2, #65535	; 0xffff
 8000ef6:	9201      	str	r2, [sp, #4]
 8000ef8:	685a      	ldr	r2, [r3, #4]
 8000efa:	9200      	str	r2, [sp, #0]
 8000efc:	681b      	ldr	r3, [r3, #0]
 8000efe:	4a3a      	ldr	r2, [pc, #232]	; (8000fe8 <xstb+0x160>)
 8000f00:	213c      	movs	r1, #60	; 0x3c
 8000f02:	2000      	movs	r0, #0
 8000f04:	f7ff fd28 	bl	8000958 <ST7735_WriteString>


	  //Lectura del sensor de peso
	  p = HX711_Average_Value(peso, 4);
 8000f08:	4b38      	ldr	r3, [pc, #224]	; (8000fec <xstb+0x164>)
 8000f0a:	2204      	movs	r2, #4
 8000f0c:	9201      	str	r2, [sp, #4]
 8000f0e:	691a      	ldr	r2, [r3, #16]
 8000f10:	9200      	str	r2, [sp, #0]
 8000f12:	cb0f      	ldmia	r3, {r0, r1, r2, r3}
 8000f14:	f7ff fdfe 	bl	8000b14 <HX711_Average_Value>
 8000f18:	4602      	mov	r2, r0
 8000f1a:	4b35      	ldr	r3, [pc, #212]	; (8000ff0 <xstb+0x168>)
 8000f1c:	601a      	str	r2, [r3, #0]
	  p = p - tara;
 8000f1e:	4b34      	ldr	r3, [pc, #208]	; (8000ff0 <xstb+0x168>)
 8000f20:	681a      	ldr	r2, [r3, #0]
 8000f22:	4b34      	ldr	r3, [pc, #208]	; (8000ff4 <xstb+0x16c>)
 8000f24:	681b      	ldr	r3, [r3, #0]
 8000f26:	1ad3      	subs	r3, r2, r3
 8000f28:	4a31      	ldr	r2, [pc, #196]	; (8000ff0 <xstb+0x168>)
 8000f2a:	6013      	str	r3, [r2, #0]
	  if(p<-pres_max)
 8000f2c:	4b30      	ldr	r3, [pc, #192]	; (8000ff0 <xstb+0x168>)
 8000f2e:	681b      	ldr	r3, [r3, #0]
 8000f30:	4a31      	ldr	r2, [pc, #196]	; (8000ff8 <xstb+0x170>)
 8000f32:	4293      	cmp	r3, r2
 8000f34:	da0a      	bge.n	8000f4c <xstb+0xc4>
	  {
			//LEDs
			HAL_GPIO_WritePin(GPIOC, GPIO_PIN_8, GPIO_PIN_RESET);
 8000f36:	2200      	movs	r2, #0
 8000f38:	f44f 7180 	mov.w	r1, #256	; 0x100
 8000f3c:	482f      	ldr	r0, [pc, #188]	; (8000ffc <xstb+0x174>)
 8000f3e:	f002 fe11 	bl	8003b64 <HAL_GPIO_WritePin>
			htim3.Instance->CCR2 = 20;
 8000f42:	4b2f      	ldr	r3, [pc, #188]	; (8001000 <xstb+0x178>)
 8000f44:	681b      	ldr	r3, [r3, #0]
 8000f46:	2214      	movs	r2, #20
 8000f48:	639a      	str	r2, [r3, #56]	; 0x38
 8000f4a:	e005      	b.n	8000f58 <xstb+0xd0>
	  }
	  else HAL_GPIO_WritePin(GPIOC, GPIO_PIN_8, GPIO_PIN_SET);
 8000f4c:	2201      	movs	r2, #1
 8000f4e:	f44f 7180 	mov.w	r1, #256	; 0x100
 8000f52:	482a      	ldr	r0, [pc, #168]	; (8000ffc <xstb+0x174>)
 8000f54:	f002 fe06 	bl	8003b64 <HAL_GPIO_WritePin>


	//electroiman
	HAL_GPIO_WritePin(GPIOA, GPIO_PIN_10, GPIO_PIN_SET);
 8000f58:	2201      	movs	r2, #1
 8000f5a:	f44f 6180 	mov.w	r1, #1024	; 0x400
 8000f5e:	4829      	ldr	r0, [pc, #164]	; (8001004 <xstb+0x17c>)
 8000f60:	f002 fe00 	bl	8003b64 <HAL_GPIO_WritePin>

	if(bdt==0)
 8000f64:	4b28      	ldr	r3, [pc, #160]	; (8001008 <xstb+0x180>)
 8000f66:	681b      	ldr	r3, [r3, #0]
 8000f68:	2b00      	cmp	r3, #0
 8000f6a:	d12a      	bne.n	8000fc2 <xstb+0x13a>
	{
		HAL_NVIC_DisableIRQ(EXTI0_IRQn);
 8000f6c:	2006      	movs	r0, #6
 8000f6e:	f002 f8a2 	bl	80030b6 <HAL_NVIC_DisableIRQ>
		//HAL_Delay(100);
		  tickstart = HAL_GetTick();
 8000f72:	f001 f9c3 	bl	80022fc <HAL_GetTick>
 8000f76:	6078      	str	r0, [r7, #4]
		  while((HAL_GetTick() - tickstart) < 100)
 8000f78:	e003      	b.n	8000f82 <xstb+0xfa>
		  {
			  htim4.Instance->CCR1 = 10; 		//sonido de confirmacion
 8000f7a:	4b24      	ldr	r3, [pc, #144]	; (800100c <xstb+0x184>)
 8000f7c:	681b      	ldr	r3, [r3, #0]
 8000f7e:	220a      	movs	r2, #10
 8000f80:	635a      	str	r2, [r3, #52]	; 0x34
		  while((HAL_GetTick() - tickstart) < 100)
 8000f82:	f001 f9bb 	bl	80022fc <HAL_GetTick>
 8000f86:	4602      	mov	r2, r0
 8000f88:	687b      	ldr	r3, [r7, #4]
 8000f8a:	1ad3      	subs	r3, r2, r3
 8000f8c:	2b63      	cmp	r3, #99	; 0x63
 8000f8e:	d9f4      	bls.n	8000f7a <xstb+0xf2>
		  }

	  	  HAL_NVIC_EnableIRQ(EXTI0_IRQn);
 8000f90:	2006      	movs	r0, #6
 8000f92:	f002 f882 	bl	800309a <HAL_NVIC_EnableIRQ>
		  while((HAL_NVIC_GetPendingIRQ(EXTI0_IRQn)))
 8000f96:	e005      	b.n	8000fa4 <xstb+0x11c>
		  {
			  __HAL_GPIO_EXTI_CLEAR_IT(GPIO_PIN_0);
 8000f98:	4b1d      	ldr	r3, [pc, #116]	; (8001010 <xstb+0x188>)
 8000f9a:	2201      	movs	r2, #1
 8000f9c:	615a      	str	r2, [r3, #20]
			  HAL_NVIC_ClearPendingIRQ(EXTI0_IRQn);
 8000f9e:	2006      	movs	r0, #6
 8000fa0:	f002 f8b2 	bl	8003108 <HAL_NVIC_ClearPendingIRQ>
		  while((HAL_NVIC_GetPendingIRQ(EXTI0_IRQn)))
 8000fa4:	2006      	movs	r0, #6
 8000fa6:	f002 f8a0 	bl	80030ea <HAL_NVIC_GetPendingIRQ>
 8000faa:	4603      	mov	r3, r0
 8000fac:	2b00      	cmp	r3, #0
 8000fae:	d1f3      	bne.n	8000f98 <xstb+0x110>
		  }
		  boton=0;
 8000fb0:	4b18      	ldr	r3, [pc, #96]	; (8001014 <xstb+0x18c>)
 8000fb2:	2200      	movs	r2, #0
 8000fb4:	601a      	str	r2, [r3, #0]
		  ventana=0;
 8000fb6:	4b18      	ldr	r3, [pc, #96]	; (8001018 <xstb+0x190>)
 8000fb8:	2200      	movs	r2, #0
 8000fba:	601a      	str	r2, [r3, #0]

		  bdt=1;
 8000fbc:	4b12      	ldr	r3, [pc, #72]	; (8001008 <xstb+0x180>)
 8000fbe:	2201      	movs	r2, #1
 8000fc0:	601a      	str	r2, [r3, #0]

	}


	//Buzzer
	htim4.Instance->CCR1 = 0;
 8000fc2:	4b12      	ldr	r3, [pc, #72]	; (800100c <xstb+0x184>)
 8000fc4:	681b      	ldr	r3, [r3, #0]
 8000fc6:	2200      	movs	r2, #0
 8000fc8:	635a      	str	r2, [r3, #52]	; 0x34

	return 0;
 8000fca:	2300      	movs	r3, #0


}
 8000fcc:	4618      	mov	r0, r3
 8000fce:	3708      	adds	r7, #8
 8000fd0:	46bd      	mov	sp, r7
 8000fd2:	bd80      	pop	{r7, pc}
 8000fd4:	20000008 	.word	0x20000008
 8000fd8:	080055bc 	.word	0x080055bc
 8000fdc:	080055c4 	.word	0x080055c4
 8000fe0:	20000000 	.word	0x20000000
 8000fe4:	080055d4 	.word	0x080055d4
 8000fe8:	080055e8 	.word	0x080055e8
 8000fec:	200000e8 	.word	0x200000e8
 8000ff0:	20000038 	.word	0x20000038
 8000ff4:	2000003c 	.word	0x2000003c
 8000ff8:	fffe7960 	.word	0xfffe7960
 8000ffc:	40020800 	.word	0x40020800
 8001000:	200000a8 	.word	0x200000a8
 8001004:	40020000 	.word	0x40020000
 8001008:	20000054 	.word	0x20000054
 800100c:	20000068 	.word	0x20000068
 8001010:	40013c00 	.word	0x40013c00
 8001014:	20000044 	.word	0x20000044
 8001018:	20000048 	.word	0x20000048

0800101c <xon>:

int xon()
{
 800101c:	b580      	push	{r7, lr}
 800101e:	b086      	sub	sp, #24
 8001020:	af04      	add	r7, sp, #16
	uint32_t tickstart=0;
 8001022:	2300      	movs	r3, #0
 8001024:	607b      	str	r3, [r7, #4]


	//Pantalla
	ST7735_SetRotation(1);
 8001026:	2001      	movs	r0, #1
 8001028:	f7ff fba0 	bl	800076c <ST7735_SetRotation>
	ST7735_WriteString(0, 0, "Alarma", Font_11x18, BLUE,BLACK);
 800102c:	4b3c      	ldr	r3, [pc, #240]	; (8001120 <xon+0x104>)
 800102e:	2200      	movs	r2, #0
 8001030:	9202      	str	r2, [sp, #8]
 8001032:	221f      	movs	r2, #31
 8001034:	9201      	str	r2, [sp, #4]
 8001036:	685a      	ldr	r2, [r3, #4]
 8001038:	9200      	str	r2, [sp, #0]
 800103a:	681b      	ldr	r3, [r3, #0]
 800103c:	4a39      	ldr	r2, [pc, #228]	; (8001124 <xon+0x108>)
 800103e:	2100      	movs	r1, #0
 8001040:	2000      	movs	r0, #0
 8001042:	f7ff fc89 	bl	8000958 <ST7735_WriteString>
	ST7735_WriteString(0, 15, "conectada", Font_11x18, BLUE,BLACK);
 8001046:	4b36      	ldr	r3, [pc, #216]	; (8001120 <xon+0x104>)
 8001048:	2200      	movs	r2, #0
 800104a:	9202      	str	r2, [sp, #8]
 800104c:	221f      	movs	r2, #31
 800104e:	9201      	str	r2, [sp, #4]
 8001050:	685a      	ldr	r2, [r3, #4]
 8001052:	9200      	str	r2, [sp, #0]
 8001054:	681b      	ldr	r3, [r3, #0]
 8001056:	4a34      	ldr	r2, [pc, #208]	; (8001128 <xon+0x10c>)
 8001058:	210f      	movs	r1, #15
 800105a:	2000      	movs	r0, #0
 800105c:	f7ff fc7c 	bl	8000958 <ST7735_WriteString>
	ST7735_WriteString(0, 50, "Pulse el boton azul", Font_7x10, WHITE,BLACK);
 8001060:	4b32      	ldr	r3, [pc, #200]	; (800112c <xon+0x110>)
 8001062:	2200      	movs	r2, #0
 8001064:	9202      	str	r2, [sp, #8]
 8001066:	f64f 72ff 	movw	r2, #65535	; 0xffff
 800106a:	9201      	str	r2, [sp, #4]
 800106c:	685a      	ldr	r2, [r3, #4]
 800106e:	9200      	str	r2, [sp, #0]
 8001070:	681b      	ldr	r3, [r3, #0]
 8001072:	4a2f      	ldr	r2, [pc, #188]	; (8001130 <xon+0x114>)
 8001074:	2132      	movs	r1, #50	; 0x32
 8001076:	2000      	movs	r0, #0
 8001078:	f7ff fc6e 	bl	8000958 <ST7735_WriteString>
	ST7735_WriteString(0, 60, "para desconectar.", Font_7x10, WHITE,BLACK);
 800107c:	4b2b      	ldr	r3, [pc, #172]	; (800112c <xon+0x110>)
 800107e:	2200      	movs	r2, #0
 8001080:	9202      	str	r2, [sp, #8]
 8001082:	f64f 72ff 	movw	r2, #65535	; 0xffff
 8001086:	9201      	str	r2, [sp, #4]
 8001088:	685a      	ldr	r2, [r3, #4]
 800108a:	9200      	str	r2, [sp, #0]
 800108c:	681b      	ldr	r3, [r3, #0]
 800108e:	4a29      	ldr	r2, [pc, #164]	; (8001134 <xon+0x118>)
 8001090:	213c      	movs	r1, #60	; 0x3c
 8001092:	2000      	movs	r0, #0
 8001094:	f7ff fc60 	bl	8000958 <ST7735_WriteString>

	//electroiman
	HAL_GPIO_WritePin(GPIOA, GPIO_PIN_10, GPIO_PIN_RESET);
 8001098:	2200      	movs	r2, #0
 800109a:	f44f 6180 	mov.w	r1, #1024	; 0x400
 800109e:	4826      	ldr	r0, [pc, #152]	; (8001138 <xon+0x11c>)
 80010a0:	f002 fd60 	bl	8003b64 <HAL_GPIO_WritePin>

	if(bdt==0)
 80010a4:	4b25      	ldr	r3, [pc, #148]	; (800113c <xon+0x120>)
 80010a6:	681b      	ldr	r3, [r3, #0]
 80010a8:	2b00      	cmp	r3, #0
 80010aa:	d12a      	bne.n	8001102 <xon+0xe6>
	{
		HAL_NVIC_DisableIRQ(EXTI0_IRQn);
 80010ac:	2006      	movs	r0, #6
 80010ae:	f002 f802 	bl	80030b6 <HAL_NVIC_DisableIRQ>
		//HAL_Delay(100);
		  tickstart = HAL_GetTick();
 80010b2:	f001 f923 	bl	80022fc <HAL_GetTick>
 80010b6:	6078      	str	r0, [r7, #4]
		  while((HAL_GetTick() - tickstart) < 100)
 80010b8:	e003      	b.n	80010c2 <xon+0xa6>
		  {
			  htim4.Instance->CCR1 = 10; 		//sonido de confirmacion
 80010ba:	4b21      	ldr	r3, [pc, #132]	; (8001140 <xon+0x124>)
 80010bc:	681b      	ldr	r3, [r3, #0]
 80010be:	220a      	movs	r2, #10
 80010c0:	635a      	str	r2, [r3, #52]	; 0x34
		  while((HAL_GetTick() - tickstart) < 100)
 80010c2:	f001 f91b 	bl	80022fc <HAL_GetTick>
 80010c6:	4602      	mov	r2, r0
 80010c8:	687b      	ldr	r3, [r7, #4]
 80010ca:	1ad3      	subs	r3, r2, r3
 80010cc:	2b63      	cmp	r3, #99	; 0x63
 80010ce:	d9f4      	bls.n	80010ba <xon+0x9e>
		  }

	  	  HAL_NVIC_EnableIRQ(EXTI0_IRQn);
 80010d0:	2006      	movs	r0, #6
 80010d2:	f001 ffe2 	bl	800309a <HAL_NVIC_EnableIRQ>
		  while((HAL_NVIC_GetPendingIRQ(EXTI0_IRQn)))
 80010d6:	e005      	b.n	80010e4 <xon+0xc8>
		  {
			  __HAL_GPIO_EXTI_CLEAR_IT(GPIO_PIN_0);
 80010d8:	4b1a      	ldr	r3, [pc, #104]	; (8001144 <xon+0x128>)
 80010da:	2201      	movs	r2, #1
 80010dc:	615a      	str	r2, [r3, #20]
			  HAL_NVIC_ClearPendingIRQ(EXTI0_IRQn);
 80010de:	2006      	movs	r0, #6
 80010e0:	f002 f812 	bl	8003108 <HAL_NVIC_ClearPendingIRQ>
		  while((HAL_NVIC_GetPendingIRQ(EXTI0_IRQn)))
 80010e4:	2006      	movs	r0, #6
 80010e6:	f002 f800 	bl	80030ea <HAL_NVIC_GetPendingIRQ>
 80010ea:	4603      	mov	r3, r0
 80010ec:	2b00      	cmp	r3, #0
 80010ee:	d1f3      	bne.n	80010d8 <xon+0xbc>
		  }
		  boton=0;
 80010f0:	4b15      	ldr	r3, [pc, #84]	; (8001148 <xon+0x12c>)
 80010f2:	2200      	movs	r2, #0
 80010f4:	601a      	str	r2, [r3, #0]
		  ventana=0;
 80010f6:	4b15      	ldr	r3, [pc, #84]	; (800114c <xon+0x130>)
 80010f8:	2200      	movs	r2, #0
 80010fa:	601a      	str	r2, [r3, #0]

		  bdt=1;
 80010fc:	4b0f      	ldr	r3, [pc, #60]	; (800113c <xon+0x120>)
 80010fe:	2201      	movs	r2, #1
 8001100:	601a      	str	r2, [r3, #0]

	}

	//LEDs
	HAL_GPIO_WritePin(GPIOC, GPIO_PIN_8, GPIO_PIN_SET);
 8001102:	2201      	movs	r2, #1
 8001104:	f44f 7180 	mov.w	r1, #256	; 0x100
 8001108:	4811      	ldr	r0, [pc, #68]	; (8001150 <xon+0x134>)
 800110a:	f002 fd2b 	bl	8003b64 <HAL_GPIO_WritePin>

	//Buzzer
	htim4.Instance->CCR1 = 0;
 800110e:	4b0c      	ldr	r3, [pc, #48]	; (8001140 <xon+0x124>)
 8001110:	681b      	ldr	r3, [r3, #0]
 8001112:	2200      	movs	r2, #0
 8001114:	635a      	str	r2, [r3, #52]	; 0x34

	return 0;
 8001116:	2300      	movs	r3, #0

}
 8001118:	4618      	mov	r0, r3
 800111a:	3708      	adds	r7, #8
 800111c:	46bd      	mov	sp, r7
 800111e:	bd80      	pop	{r7, pc}
 8001120:	20000008 	.word	0x20000008
 8001124:	080055bc 	.word	0x080055bc
 8001128:	080055f8 	.word	0x080055f8
 800112c:	20000000 	.word	0x20000000
 8001130:	080055d4 	.word	0x080055d4
 8001134:	08005604 	.word	0x08005604
 8001138:	40020000 	.word	0x40020000
 800113c:	20000054 	.word	0x20000054
 8001140:	20000068 	.word	0x20000068
 8001144:	40013c00 	.word	0x40013c00
 8001148:	20000044 	.word	0x20000044
 800114c:	20000048 	.word	0x20000048
 8001150:	40020800 	.word	0x40020800

08001154 <xemer>:

int xemer()
{
 8001154:	b580      	push	{r7, lr}
 8001156:	b088      	sub	sp, #32
 8001158:	af04      	add	r7, sp, #16
	uint32_t tickstart=0;
 800115a:	2300      	movs	r3, #0
 800115c:	60bb      	str	r3, [r7, #8]
	int t=0;
 800115e:	2300      	movs	r3, #0
 8001160:	60fb      	str	r3, [r7, #12]
	char tiempo[2];

	//Causa de la alarma por pantalla
	switch (alarm)
 8001162:	4bac      	ldr	r3, [pc, #688]	; (8001414 <xemer+0x2c0>)
 8001164:	681b      	ldr	r3, [r3, #0]
 8001166:	2b03      	cmp	r3, #3
 8001168:	d865      	bhi.n	8001236 <xemer+0xe2>
 800116a:	a201      	add	r2, pc, #4	; (adr r2, 8001170 <xemer+0x1c>)
 800116c:	f852 f023 	ldr.w	pc, [r2, r3, lsl #2]
 8001170:	08001181 	.word	0x08001181
 8001174:	080011dd 	.word	0x080011dd
 8001178:	080011fb 	.word	0x080011fb
 800117c:	08001219 	.word	0x08001219
	{
		case 0:
			//Pantalla
			ST7735_SetRotation(1);
 8001180:	2001      	movs	r0, #1
 8001182:	f7ff faf3 	bl	800076c <ST7735_SetRotation>
			ST7735_WriteString(0, 0, "ERROR", Font_11x18, RED,BLACK);
 8001186:	4ba4      	ldr	r3, [pc, #656]	; (8001418 <xemer+0x2c4>)
 8001188:	2200      	movs	r2, #0
 800118a:	9202      	str	r2, [sp, #8]
 800118c:	f44f 4278 	mov.w	r2, #63488	; 0xf800
 8001190:	9201      	str	r2, [sp, #4]
 8001192:	685a      	ldr	r2, [r3, #4]
 8001194:	9200      	str	r2, [sp, #0]
 8001196:	681b      	ldr	r3, [r3, #0]
 8001198:	4aa0      	ldr	r2, [pc, #640]	; (800141c <xemer+0x2c8>)
 800119a:	2100      	movs	r1, #0
 800119c:	2000      	movs	r0, #0
 800119e:	f7ff fbdb 	bl	8000958 <ST7735_WriteString>
			ST7735_WriteString(0, 15, "FATAL", Font_11x18, RED,BLACK);
 80011a2:	4b9d      	ldr	r3, [pc, #628]	; (8001418 <xemer+0x2c4>)
 80011a4:	2200      	movs	r2, #0
 80011a6:	9202      	str	r2, [sp, #8]
 80011a8:	f44f 4278 	mov.w	r2, #63488	; 0xf800
 80011ac:	9201      	str	r2, [sp, #4]
 80011ae:	685a      	ldr	r2, [r3, #4]
 80011b0:	9200      	str	r2, [sp, #0]
 80011b2:	681b      	ldr	r3, [r3, #0]
 80011b4:	4a9a      	ldr	r2, [pc, #616]	; (8001420 <xemer+0x2cc>)
 80011b6:	210f      	movs	r1, #15
 80011b8:	2000      	movs	r0, #0
 80011ba:	f7ff fbcd 	bl	8000958 <ST7735_WriteString>
			ST7735_WriteString(0, 50, "La alarma ha saltado sin motivo", Font_7x10, WHITE,BLACK);
 80011be:	4b99      	ldr	r3, [pc, #612]	; (8001424 <xemer+0x2d0>)
 80011c0:	2200      	movs	r2, #0
 80011c2:	9202      	str	r2, [sp, #8]
 80011c4:	f64f 72ff 	movw	r2, #65535	; 0xffff
 80011c8:	9201      	str	r2, [sp, #4]
 80011ca:	685a      	ldr	r2, [r3, #4]
 80011cc:	9200      	str	r2, [sp, #0]
 80011ce:	681b      	ldr	r3, [r3, #0]
 80011d0:	4a95      	ldr	r2, [pc, #596]	; (8001428 <xemer+0x2d4>)
 80011d2:	2132      	movs	r1, #50	; 0x32
 80011d4:	2000      	movs	r0, #0
 80011d6:	f7ff fbbf 	bl	8000958 <ST7735_WriteString>
			break;
 80011da:	e02c      	b.n	8001236 <xemer+0xe2>
		case 1:
			//Pantalla
			ST7735_WriteString(0, 90, "Causa: VENTANA", Font_7x10, WHITE,BLACK);
 80011dc:	4b91      	ldr	r3, [pc, #580]	; (8001424 <xemer+0x2d0>)
 80011de:	2200      	movs	r2, #0
 80011e0:	9202      	str	r2, [sp, #8]
 80011e2:	f64f 72ff 	movw	r2, #65535	; 0xffff
 80011e6:	9201      	str	r2, [sp, #4]
 80011e8:	685a      	ldr	r2, [r3, #4]
 80011ea:	9200      	str	r2, [sp, #0]
 80011ec:	681b      	ldr	r3, [r3, #0]
 80011ee:	4a8f      	ldr	r2, [pc, #572]	; (800142c <xemer+0x2d8>)
 80011f0:	215a      	movs	r1, #90	; 0x5a
 80011f2:	2000      	movs	r0, #0
 80011f4:	f7ff fbb0 	bl	8000958 <ST7735_WriteString>
			break;
 80011f8:	e01d      	b.n	8001236 <xemer+0xe2>
		case 2:
			//Pantalla
			ST7735_WriteString(0, 90, "Causa: PRESION", Font_7x10, WHITE,BLACK);
 80011fa:	4b8a      	ldr	r3, [pc, #552]	; (8001424 <xemer+0x2d0>)
 80011fc:	2200      	movs	r2, #0
 80011fe:	9202      	str	r2, [sp, #8]
 8001200:	f64f 72ff 	movw	r2, #65535	; 0xffff
 8001204:	9201      	str	r2, [sp, #4]
 8001206:	685a      	ldr	r2, [r3, #4]
 8001208:	9200      	str	r2, [sp, #0]
 800120a:	681b      	ldr	r3, [r3, #0]
 800120c:	4a88      	ldr	r2, [pc, #544]	; (8001430 <xemer+0x2dc>)
 800120e:	215a      	movs	r1, #90	; 0x5a
 8001210:	2000      	movs	r0, #0
 8001212:	f7ff fba1 	bl	8000958 <ST7735_WriteString>
			break;
 8001216:	e00e      	b.n	8001236 <xemer+0xe2>
		case 3:
			//Pantalla
			ST7735_WriteString(0, 90, "Causa: PUERTA", Font_7x10, WHITE,BLACK);
 8001218:	4b82      	ldr	r3, [pc, #520]	; (8001424 <xemer+0x2d0>)
 800121a:	2200      	movs	r2, #0
 800121c:	9202      	str	r2, [sp, #8]
 800121e:	f64f 72ff 	movw	r2, #65535	; 0xffff
 8001222:	9201      	str	r2, [sp, #4]
 8001224:	685a      	ldr	r2, [r3, #4]
 8001226:	9200      	str	r2, [sp, #0]
 8001228:	681b      	ldr	r3, [r3, #0]
 800122a:	4a82      	ldr	r2, [pc, #520]	; (8001434 <xemer+0x2e0>)
 800122c:	215a      	movs	r1, #90	; 0x5a
 800122e:	2000      	movs	r0, #0
 8001230:	f7ff fb92 	bl	8000958 <ST7735_WriteString>
			break;
 8001234:	bf00      	nop

	}

	if(bdt==0)
 8001236:	4b80      	ldr	r3, [pc, #512]	; (8001438 <xemer+0x2e4>)
 8001238:	681b      	ldr	r3, [r3, #0]
 800123a:	2b00      	cmp	r3, #0
 800123c:	d169      	bne.n	8001312 <xemer+0x1be>
	{
		//Temporizador 10s para desactivar la alarma antes de que salten los avisos
		t=0;
 800123e:	2300      	movs	r3, #0
 8001240:	60fb      	str	r3, [r7, #12]
		  tickstart = HAL_GetTick();
 8001242:	f001 f85b 	bl	80022fc <HAL_GetTick>
 8001246:	60b8      	str	r0, [r7, #8]
		  while(t <= tiempo_espera)
 8001248:	e05d      	b.n	8001306 <xemer+0x1b2>
		  {
			  if(boton==1)
 800124a:	4b7c      	ldr	r3, [pc, #496]	; (800143c <xemer+0x2e8>)
 800124c:	681b      	ldr	r3, [r3, #0]
 800124e:	2b01      	cmp	r3, #1
 8001250:	d101      	bne.n	8001256 <xemer+0x102>
				  return 1;
 8001252:	2301      	movs	r3, #1
 8001254:	e0d9      	b.n	800140a <xemer+0x2b6>

			  t=(HAL_GetTick() - tickstart)/1000;
 8001256:	f001 f851 	bl	80022fc <HAL_GetTick>
 800125a:	4602      	mov	r2, r0
 800125c:	68bb      	ldr	r3, [r7, #8]
 800125e:	1ad3      	subs	r3, r2, r3
 8001260:	4a77      	ldr	r2, [pc, #476]	; (8001440 <xemer+0x2ec>)
 8001262:	fba2 2303 	umull	r2, r3, r2, r3
 8001266:	099b      	lsrs	r3, r3, #6
 8001268:	60fb      	str	r3, [r7, #12]
			  itoa(t, tiempo, 10);
 800126a:	1d3b      	adds	r3, r7, #4
 800126c:	220a      	movs	r2, #10
 800126e:	4619      	mov	r1, r3
 8001270:	68f8      	ldr	r0, [r7, #12]
 8001272:	f004 f8f5 	bl	8005460 <itoa>

				//Pantalla
				ST7735_SetRotation(1);
 8001276:	2001      	movs	r0, #1
 8001278:	f7ff fa78 	bl	800076c <ST7735_SetRotation>
				ST7735_WriteString(0, 0, "Alarma", Font_11x18, RED,BLACK);
 800127c:	4b66      	ldr	r3, [pc, #408]	; (8001418 <xemer+0x2c4>)
 800127e:	2200      	movs	r2, #0
 8001280:	9202      	str	r2, [sp, #8]
 8001282:	f44f 4278 	mov.w	r2, #63488	; 0xf800
 8001286:	9201      	str	r2, [sp, #4]
 8001288:	685a      	ldr	r2, [r3, #4]
 800128a:	9200      	str	r2, [sp, #0]
 800128c:	681b      	ldr	r3, [r3, #0]
 800128e:	4a6d      	ldr	r2, [pc, #436]	; (8001444 <xemer+0x2f0>)
 8001290:	2100      	movs	r1, #0
 8001292:	2000      	movs	r0, #0
 8001294:	f7ff fb60 	bl	8000958 <ST7735_WriteString>
				ST7735_WriteString(0, 15, "ACTIVADA", Font_11x18, RED,BLACK);
 8001298:	4b5f      	ldr	r3, [pc, #380]	; (8001418 <xemer+0x2c4>)
 800129a:	2200      	movs	r2, #0
 800129c:	9202      	str	r2, [sp, #8]
 800129e:	f44f 4278 	mov.w	r2, #63488	; 0xf800
 80012a2:	9201      	str	r2, [sp, #4]
 80012a4:	685a      	ldr	r2, [r3, #4]
 80012a6:	9200      	str	r2, [sp, #0]
 80012a8:	681b      	ldr	r3, [r3, #0]
 80012aa:	4a67      	ldr	r2, [pc, #412]	; (8001448 <xemer+0x2f4>)
 80012ac:	210f      	movs	r1, #15
 80012ae:	2000      	movs	r0, #0
 80012b0:	f7ff fb52 	bl	8000958 <ST7735_WriteString>
				ST7735_WriteString(0, 50, "10s para desactivar", Font_7x10, WHITE,BLACK);
 80012b4:	4b5b      	ldr	r3, [pc, #364]	; (8001424 <xemer+0x2d0>)
 80012b6:	2200      	movs	r2, #0
 80012b8:	9202      	str	r2, [sp, #8]
 80012ba:	f64f 72ff 	movw	r2, #65535	; 0xffff
 80012be:	9201      	str	r2, [sp, #4]
 80012c0:	685a      	ldr	r2, [r3, #4]
 80012c2:	9200      	str	r2, [sp, #0]
 80012c4:	681b      	ldr	r3, [r3, #0]
 80012c6:	4a61      	ldr	r2, [pc, #388]	; (800144c <xemer+0x2f8>)
 80012c8:	2132      	movs	r1, #50	; 0x32
 80012ca:	2000      	movs	r0, #0
 80012cc:	f7ff fb44 	bl	8000958 <ST7735_WriteString>
				ST7735_WriteString(80, 60, tiempo, Font_11x18, WHITE,BLACK);
 80012d0:	4b51      	ldr	r3, [pc, #324]	; (8001418 <xemer+0x2c4>)
 80012d2:	1d39      	adds	r1, r7, #4
 80012d4:	2200      	movs	r2, #0
 80012d6:	9202      	str	r2, [sp, #8]
 80012d8:	f64f 72ff 	movw	r2, #65535	; 0xffff
 80012dc:	9201      	str	r2, [sp, #4]
 80012de:	685a      	ldr	r2, [r3, #4]
 80012e0:	9200      	str	r2, [sp, #0]
 80012e2:	681b      	ldr	r3, [r3, #0]
 80012e4:	460a      	mov	r2, r1
 80012e6:	213c      	movs	r1, #60	; 0x3c
 80012e8:	2050      	movs	r0, #80	; 0x50
 80012ea:	f7ff fb35 	bl	8000958 <ST7735_WriteString>
				ST7735_FillRectangle(0, 100, t*16, 28, RED);
 80012ee:	68fb      	ldr	r3, [r7, #12]
 80012f0:	b29b      	uxth	r3, r3
 80012f2:	011b      	lsls	r3, r3, #4
 80012f4:	b29a      	uxth	r2, r3
 80012f6:	f44f 4378 	mov.w	r3, #63488	; 0xf800
 80012fa:	9300      	str	r3, [sp, #0]
 80012fc:	231c      	movs	r3, #28
 80012fe:	2164      	movs	r1, #100	; 0x64
 8001300:	2000      	movs	r0, #0
 8001302:	f7ff fb7d 	bl	8000a00 <ST7735_FillRectangle>
		  while(t <= tiempo_espera)
 8001306:	68fb      	ldr	r3, [r7, #12]
 8001308:	2b0a      	cmp	r3, #10
 800130a:	dd9e      	ble.n	800124a <xemer+0xf6>
		  }
		  fillScreen(BLACK);
 800130c:	2000      	movs	r0, #0
 800130e:	f7ff f8f7 	bl	8000500 <fillScreen>

	}

	//Pantalla
	ST7735_SetRotation(1);
 8001312:	2001      	movs	r0, #1
 8001314:	f7ff fa2a 	bl	800076c <ST7735_SetRotation>
	ST7735_WriteString(0, 0, "Alarma", Font_11x18, RED,BLACK);
 8001318:	4b3f      	ldr	r3, [pc, #252]	; (8001418 <xemer+0x2c4>)
 800131a:	2200      	movs	r2, #0
 800131c:	9202      	str	r2, [sp, #8]
 800131e:	f44f 4278 	mov.w	r2, #63488	; 0xf800
 8001322:	9201      	str	r2, [sp, #4]
 8001324:	685a      	ldr	r2, [r3, #4]
 8001326:	9200      	str	r2, [sp, #0]
 8001328:	681b      	ldr	r3, [r3, #0]
 800132a:	4a46      	ldr	r2, [pc, #280]	; (8001444 <xemer+0x2f0>)
 800132c:	2100      	movs	r1, #0
 800132e:	2000      	movs	r0, #0
 8001330:	f7ff fb12 	bl	8000958 <ST7735_WriteString>
	ST7735_WriteString(0, 15, "ACTIVADA", Font_11x18, RED,BLACK);
 8001334:	4b38      	ldr	r3, [pc, #224]	; (8001418 <xemer+0x2c4>)
 8001336:	2200      	movs	r2, #0
 8001338:	9202      	str	r2, [sp, #8]
 800133a:	f44f 4278 	mov.w	r2, #63488	; 0xf800
 800133e:	9201      	str	r2, [sp, #4]
 8001340:	685a      	ldr	r2, [r3, #4]
 8001342:	9200      	str	r2, [sp, #0]
 8001344:	681b      	ldr	r3, [r3, #0]
 8001346:	4a40      	ldr	r2, [pc, #256]	; (8001448 <xemer+0x2f4>)
 8001348:	210f      	movs	r1, #15
 800134a:	2000      	movs	r0, #0
 800134c:	f7ff fb04 	bl	8000958 <ST7735_WriteString>
	ST7735_WriteString(0, 50, "Pulse el boton azul   para desactivar", Font_7x10, WHITE,BLACK);
 8001350:	4b34      	ldr	r3, [pc, #208]	; (8001424 <xemer+0x2d0>)
 8001352:	2200      	movs	r2, #0
 8001354:	9202      	str	r2, [sp, #8]
 8001356:	f64f 72ff 	movw	r2, #65535	; 0xffff
 800135a:	9201      	str	r2, [sp, #4]
 800135c:	685a      	ldr	r2, [r3, #4]
 800135e:	9200      	str	r2, [sp, #0]
 8001360:	681b      	ldr	r3, [r3, #0]
 8001362:	4a3b      	ldr	r2, [pc, #236]	; (8001450 <xemer+0x2fc>)
 8001364:	2132      	movs	r1, #50	; 0x32
 8001366:	2000      	movs	r0, #0
 8001368:	f7ff faf6 	bl	8000958 <ST7735_WriteString>

	//electroiman
	HAL_GPIO_WritePin(GPIOA, GPIO_PIN_10, GPIO_PIN_RESET);
 800136c:	2200      	movs	r2, #0
 800136e:	f44f 6180 	mov.w	r1, #1024	; 0x400
 8001372:	4838      	ldr	r0, [pc, #224]	; (8001454 <xemer+0x300>)
 8001374:	f002 fbf6 	bl	8003b64 <HAL_GPIO_WritePin>

	if(bdt==0)
 8001378:	4b2f      	ldr	r3, [pc, #188]	; (8001438 <xemer+0x2e4>)
 800137a:	681b      	ldr	r3, [r3, #0]
 800137c:	2b00      	cmp	r3, #0
 800137e:	d126      	bne.n	80013ce <xemer+0x27a>
	{
		HAL_NVIC_DisableIRQ(EXTI0_IRQn);
 8001380:	2006      	movs	r0, #6
 8001382:	f001 fe98 	bl	80030b6 <HAL_NVIC_DisableIRQ>
		//HAL_Delay(100);
		  tickstart = HAL_GetTick();
 8001386:	f000 ffb9 	bl	80022fc <HAL_GetTick>
 800138a:	60b8      	str	r0, [r7, #8]
		  while((HAL_GetTick() - tickstart) < 100)
 800138c:	bf00      	nop
 800138e:	f000 ffb5 	bl	80022fc <HAL_GetTick>
 8001392:	4602      	mov	r2, r0
 8001394:	68bb      	ldr	r3, [r7, #8]
 8001396:	1ad3      	subs	r3, r2, r3
 8001398:	2b63      	cmp	r3, #99	; 0x63
 800139a:	d9f8      	bls.n	800138e <xemer+0x23a>
		  {
			  //Tiempo de espera -> efectos parásitos
		  }

	  	  HAL_NVIC_EnableIRQ(EXTI0_IRQn);
 800139c:	2006      	movs	r0, #6
 800139e:	f001 fe7c 	bl	800309a <HAL_NVIC_EnableIRQ>
		  while((HAL_NVIC_GetPendingIRQ(EXTI0_IRQn)))
 80013a2:	e005      	b.n	80013b0 <xemer+0x25c>
		  {
			  __HAL_GPIO_EXTI_CLEAR_IT(GPIO_PIN_0);
 80013a4:	4b2c      	ldr	r3, [pc, #176]	; (8001458 <xemer+0x304>)
 80013a6:	2201      	movs	r2, #1
 80013a8:	615a      	str	r2, [r3, #20]
			  HAL_NVIC_ClearPendingIRQ(EXTI0_IRQn);
 80013aa:	2006      	movs	r0, #6
 80013ac:	f001 feac 	bl	8003108 <HAL_NVIC_ClearPendingIRQ>
		  while((HAL_NVIC_GetPendingIRQ(EXTI0_IRQn)))
 80013b0:	2006      	movs	r0, #6
 80013b2:	f001 fe9a 	bl	80030ea <HAL_NVIC_GetPendingIRQ>
 80013b6:	4603      	mov	r3, r0
 80013b8:	2b00      	cmp	r3, #0
 80013ba:	d1f3      	bne.n	80013a4 <xemer+0x250>
		  }
		  boton=0;
 80013bc:	4b1f      	ldr	r3, [pc, #124]	; (800143c <xemer+0x2e8>)
 80013be:	2200      	movs	r2, #0
 80013c0:	601a      	str	r2, [r3, #0]
		  ventana=0;
 80013c2:	4b26      	ldr	r3, [pc, #152]	; (800145c <xemer+0x308>)
 80013c4:	2200      	movs	r2, #0
 80013c6:	601a      	str	r2, [r3, #0]

		  bdt=1;
 80013c8:	4b1b      	ldr	r3, [pc, #108]	; (8001438 <xemer+0x2e4>)
 80013ca:	2201      	movs	r2, #1
 80013cc:	601a      	str	r2, [r3, #0]

	}

	//LEDs
	HAL_GPIO_WritePin(GPIOC, GPIO_PIN_8, GPIO_PIN_RESET);
 80013ce:	2200      	movs	r2, #0
 80013d0:	f44f 7180 	mov.w	r1, #256	; 0x100
 80013d4:	4822      	ldr	r0, [pc, #136]	; (8001460 <xemer+0x30c>)
 80013d6:	f002 fbc5 	bl	8003b64 <HAL_GPIO_WritePin>
	htim3.Instance->CCR2 = 50;
 80013da:	4b22      	ldr	r3, [pc, #136]	; (8001464 <xemer+0x310>)
 80013dc:	681b      	ldr	r3, [r3, #0]
 80013de:	2232      	movs	r2, #50	; 0x32
 80013e0:	639a      	str	r2, [r3, #56]	; 0x38


	//Buzzer
	tickstart=HAL_GetTick();
 80013e2:	f000 ff8b 	bl	80022fc <HAL_GetTick>
 80013e6:	60b8      	str	r0, [r7, #8]
	while((HAL_GetTick()-tickstart)<200)
 80013e8:	e007      	b.n	80013fa <xemer+0x2a6>
	{
		htim4.Instance->CCR1 = (HAL_GetTick()-tickstart);
 80013ea:	f000 ff87 	bl	80022fc <HAL_GetTick>
 80013ee:	4601      	mov	r1, r0
 80013f0:	4b1d      	ldr	r3, [pc, #116]	; (8001468 <xemer+0x314>)
 80013f2:	681b      	ldr	r3, [r3, #0]
 80013f4:	68ba      	ldr	r2, [r7, #8]
 80013f6:	1a8a      	subs	r2, r1, r2
 80013f8:	635a      	str	r2, [r3, #52]	; 0x34
	while((HAL_GetTick()-tickstart)<200)
 80013fa:	f000 ff7f 	bl	80022fc <HAL_GetTick>
 80013fe:	4602      	mov	r2, r0
 8001400:	68bb      	ldr	r3, [r7, #8]
 8001402:	1ad3      	subs	r3, r2, r3
 8001404:	2bc7      	cmp	r3, #199	; 0xc7
 8001406:	d9f0      	bls.n	80013ea <xemer+0x296>
	}

	return 0;
 8001408:	2300      	movs	r3, #0


}
 800140a:	4618      	mov	r0, r3
 800140c:	3710      	adds	r7, #16
 800140e:	46bd      	mov	sp, r7
 8001410:	bd80      	pop	{r7, pc}
 8001412:	bf00      	nop
 8001414:	20000050 	.word	0x20000050
 8001418:	20000008 	.word	0x20000008
 800141c:	08005618 	.word	0x08005618
 8001420:	08005620 	.word	0x08005620
 8001424:	20000000 	.word	0x20000000
 8001428:	08005628 	.word	0x08005628
 800142c:	08005648 	.word	0x08005648
 8001430:	08005658 	.word	0x08005658
 8001434:	08005668 	.word	0x08005668
 8001438:	20000054 	.word	0x20000054
 800143c:	20000044 	.word	0x20000044
 8001440:	10624dd3 	.word	0x10624dd3
 8001444:	080055bc 	.word	0x080055bc
 8001448:	08005678 	.word	0x08005678
 800144c:	08005684 	.word	0x08005684
 8001450:	08005698 	.word	0x08005698
 8001454:	40020000 	.word	0x40020000
 8001458:	40013c00 	.word	0x40013c00
 800145c:	20000048 	.word	0x20000048
 8001460:	40020800 	.word	0x40020800
 8001464:	200000a8 	.word	0x200000a8
 8001468:	20000068 	.word	0x20000068

0800146c <HAL_GPIO_EXTI_Callback>:


	//Bandera del botón de usuario
void HAL_GPIO_EXTI_Callback(uint16_t GPIO_Pin){
 800146c:	b480      	push	{r7}
 800146e:	b083      	sub	sp, #12
 8001470:	af00      	add	r7, sp, #0
 8001472:	4603      	mov	r3, r0
 8001474:	80fb      	strh	r3, [r7, #6]

	if (GPIO_Pin==GPIO_PIN_0)
 8001476:	88fb      	ldrh	r3, [r7, #6]
 8001478:	2b01      	cmp	r3, #1
 800147a:	d102      	bne.n	8001482 <HAL_GPIO_EXTI_Callback+0x16>
	{
		boton=1;
 800147c:	4b07      	ldr	r3, [pc, #28]	; (800149c <HAL_GPIO_EXTI_Callback+0x30>)
 800147e:	2201      	movs	r2, #1
 8001480:	601a      	str	r2, [r3, #0]
	}

	if (GPIO_Pin==GPIO_PIN_2)
 8001482:	88fb      	ldrh	r3, [r7, #6]
 8001484:	2b04      	cmp	r3, #4
 8001486:	d102      	bne.n	800148e <HAL_GPIO_EXTI_Callback+0x22>
	{
		ventana=1;
 8001488:	4b05      	ldr	r3, [pc, #20]	; (80014a0 <HAL_GPIO_EXTI_Callback+0x34>)
 800148a:	2201      	movs	r2, #1
 800148c:	601a      	str	r2, [r3, #0]
	}
}
 800148e:	bf00      	nop
 8001490:	370c      	adds	r7, #12
 8001492:	46bd      	mov	sp, r7
 8001494:	f85d 7b04 	ldr.w	r7, [sp], #4
 8001498:	4770      	bx	lr
 800149a:	bf00      	nop
 800149c:	20000044 	.word	0x20000044
 80014a0:	20000048 	.word	0x20000048

080014a4 <main>:
/**
  * @brief  The application entry point.
  * @retval int
  */
int main(void)
{
 80014a4:	b580      	push	{r7, lr}
 80014a6:	b082      	sub	sp, #8
 80014a8:	af02      	add	r7, sp, #8
  /* USER CODE BEGIN 1 */

		//Asignación del GPIO de la báscula
	peso.gpioSck = GPIOE;
 80014aa:	4ba0      	ldr	r3, [pc, #640]	; (800172c <main+0x288>)
 80014ac:	4aa0      	ldr	r2, [pc, #640]	; (8001730 <main+0x28c>)
 80014ae:	601a      	str	r2, [r3, #0]
	peso.gpioData = GPIOE;
 80014b0:	4b9e      	ldr	r3, [pc, #632]	; (800172c <main+0x288>)
 80014b2:	4a9f      	ldr	r2, [pc, #636]	; (8001730 <main+0x28c>)
 80014b4:	605a      	str	r2, [r3, #4]
	peso.pinSck = GPIO_PIN_1;
 80014b6:	4b9d      	ldr	r3, [pc, #628]	; (800172c <main+0x288>)
 80014b8:	2202      	movs	r2, #2
 80014ba:	811a      	strh	r2, [r3, #8]
	peso.pinData = GPIO_PIN_0;
 80014bc:	4b9b      	ldr	r3, [pc, #620]	; (800172c <main+0x288>)
 80014be:	2201      	movs	r2, #1
 80014c0:	815a      	strh	r2, [r3, #10]
  /* USER CODE END 1 */

  /* MCU Configuration--------------------------------------------------------*/

  /* Reset of all peripherals, Initializes the Flash interface and the Systick. */
  HAL_Init();
 80014c2:	f000 feb5 	bl	8002230 <HAL_Init>
  /* USER CODE BEGIN Init */

  /* USER CODE END Init */

  /* Configure the system clock */
  SystemClock_Config();
 80014c6:	f000 f9a1 	bl	800180c <SystemClock_Config>
  /* USER CODE BEGIN SysInit */

  /* USER CODE END SysInit */

  /* Initialize all configured peripherals */
  MX_GPIO_Init();
 80014ca:	f000 fb81 	bl	8001bd0 <MX_GPIO_Init>
  MX_DMA_Init();
 80014ce:	f000 fb5f 	bl	8001b90 <MX_DMA_Init>
  MX_SPI1_Init();
 80014d2:	f000 fa59 	bl	8001988 <MX_SPI1_Init>
  MX_TIM3_Init();
 80014d6:	f000 fa8d 	bl	80019f4 <MX_TIM3_Init>
  MX_ADC1_Init();
 80014da:	f000 fa01 	bl	80018e0 <MX_ADC1_Init>
  MX_TIM4_Init();
 80014de:	f000 fae1 	bl	8001aa4 <MX_TIM4_Init>
  /* USER CODE BEGIN 2 */

  //uint16_t tickstart=0;

  	  //relés
  HAL_GPIO_WritePin(GPIOA, GPIO_PIN_10, GPIO_PIN_SET);
 80014e2:	2201      	movs	r2, #1
 80014e4:	f44f 6180 	mov.w	r1, #1024	; 0x400
 80014e8:	4892      	ldr	r0, [pc, #584]	; (8001734 <main+0x290>)
 80014ea:	f002 fb3b 	bl	8003b64 <HAL_GPIO_WritePin>
  HAL_GPIO_WritePin(GPIOC, GPIO_PIN_8, GPIO_PIN_SET);
 80014ee:	2201      	movs	r2, #1
 80014f0:	f44f 7180 	mov.w	r1, #256	; 0x100
 80014f4:	4890      	ldr	r0, [pc, #576]	; (8001738 <main+0x294>)
 80014f6:	f002 fb35 	bl	8003b64 <HAL_GPIO_WritePin>

  	  //Inicialización de la pantalla
  ST7735_Init(0);
 80014fa:	2000      	movs	r0, #0
 80014fc:	f7ff f90a 	bl	8000714 <ST7735_Init>
  fillScreen(BLACK);
 8001500:	2000      	movs	r0, #0
 8001502:	f7fe fffd 	bl	8000500 <fillScreen>

  	  //Inicialización del PWM para el buzzer
  HAL_TIM_PWM_Start (&htim4, TIM_CHANNEL_1);
 8001506:	2100      	movs	r1, #0
 8001508:	488c      	ldr	r0, [pc, #560]	; (800173c <main+0x298>)
 800150a:	f003 fa25 	bl	8004958 <HAL_TIM_PWM_Start>
  	  //inicializacion del PWM para los LEDs
  HAL_TIM_PWM_Start (&htim3, TIM_CHANNEL_2);
 800150e:	2104      	movs	r1, #4
 8001510:	488b      	ldr	r0, [pc, #556]	; (8001740 <main+0x29c>)
 8001512:	f003 fa21 	bl	8004958 <HAL_TIM_PWM_Start>

	  //Interrupciones
  HAL_NVIC_EnableIRQ(EXTI0_IRQn);
 8001516:	2006      	movs	r0, #6
 8001518:	f001 fdbf 	bl	800309a <HAL_NVIC_EnableIRQ>

  	  //DMA potenciometro
  HAL_ADC_Start_DMA(&hadc1, &deg, 1);
 800151c:	2201      	movs	r2, #1
 800151e:	4989      	ldr	r1, [pc, #548]	; (8001744 <main+0x2a0>)
 8001520:	4889      	ldr	r0, [pc, #548]	; (8001748 <main+0x2a4>)
 8001522:	f001 f89d 	bl	8002660 <HAL_ADC_Start_DMA>

  	  //Peso
  tara=HX711_Average_Value(peso, 20);
 8001526:	4b81      	ldr	r3, [pc, #516]	; (800172c <main+0x288>)
 8001528:	2214      	movs	r2, #20
 800152a:	9201      	str	r2, [sp, #4]
 800152c:	691a      	ldr	r2, [r3, #16]
 800152e:	9200      	str	r2, [sp, #0]
 8001530:	cb0f      	ldmia	r3, {r0, r1, r2, r3}
 8001532:	f7ff faef 	bl	8000b14 <HX711_Average_Value>
 8001536:	4602      	mov	r2, r0
 8001538:	4b84      	ldr	r3, [pc, #528]	; (800174c <main+0x2a8>)
 800153a:	601a      	str	r2, [r3, #0]

  	  //ESTADOS
  Xstb=1;
 800153c:	4b84      	ldr	r3, [pc, #528]	; (8001750 <main+0x2ac>)
 800153e:	2201      	movs	r2, #1
 8001540:	701a      	strb	r2, [r3, #0]
  Xon=0;
 8001542:	4b84      	ldr	r3, [pc, #528]	; (8001754 <main+0x2b0>)
 8001544:	2200      	movs	r2, #0
 8001546:	701a      	strb	r2, [r3, #0]
  Xemer=0;
 8001548:	4b83      	ldr	r3, [pc, #524]	; (8001758 <main+0x2b4>)
 800154a:	2200      	movs	r2, #0
 800154c:	701a      	strb	r2, [r3, #0]
  Xfallo=0;
 800154e:	4b83      	ldr	r3, [pc, #524]	; (800175c <main+0x2b8>)
 8001550:	2200      	movs	r2, #0
 8001552:	701a      	strb	r2, [r3, #0]

    /* USER CODE BEGIN 3 */


	  //ESTADO Xfallo
	  if(Xfallo==1)
 8001554:	4b81      	ldr	r3, [pc, #516]	; (800175c <main+0x2b8>)
 8001556:	781b      	ldrb	r3, [r3, #0]
 8001558:	2b00      	cmp	r3, #0
 800155a:	d01c      	beq.n	8001596 <main+0xf2>
	  {
		  //confirmación del estado por LEDs de la placa
		  HAL_GPIO_WritePin(GPIOD, GPIO_PIN_15, GPIO_PIN_SET);
 800155c:	2201      	movs	r2, #1
 800155e:	f44f 4100 	mov.w	r1, #32768	; 0x8000
 8001562:	487f      	ldr	r0, [pc, #508]	; (8001760 <main+0x2bc>)
 8001564:	f002 fafe 	bl	8003b64 <HAL_GPIO_WritePin>
		  HAL_GPIO_WritePin(GPIOD, GPIO_PIN_13, GPIO_PIN_SET);
 8001568:	2201      	movs	r2, #1
 800156a:	f44f 5100 	mov.w	r1, #8192	; 0x2000
 800156e:	487c      	ldr	r0, [pc, #496]	; (8001760 <main+0x2bc>)
 8001570:	f002 faf8 	bl	8003b64 <HAL_GPIO_WritePin>
		  HAL_GPIO_WritePin(GPIOD, GPIO_PIN_14, GPIO_PIN_SET);
 8001574:	2201      	movs	r2, #1
 8001576:	f44f 4180 	mov.w	r1, #16384	; 0x4000
 800157a:	4879      	ldr	r0, [pc, #484]	; (8001760 <main+0x2bc>)
 800157c:	f002 faf2 	bl	8003b64 <HAL_GPIO_WritePin>

		  //Tratamiento
		  xfallo();
 8001580:	f7ff fb38 	bl	8000bf4 <xfallo>


		  //SEGURIDAD
		  Xstb=0;
 8001584:	4b72      	ldr	r3, [pc, #456]	; (8001750 <main+0x2ac>)
 8001586:	2200      	movs	r2, #0
 8001588:	701a      	strb	r2, [r3, #0]
		  Xon=0;
 800158a:	4b72      	ldr	r3, [pc, #456]	; (8001754 <main+0x2b0>)
 800158c:	2200      	movs	r2, #0
 800158e:	701a      	strb	r2, [r3, #0]
		  Xemer=0;
 8001590:	4b71      	ldr	r3, [pc, #452]	; (8001758 <main+0x2b4>)
 8001592:	2200      	movs	r2, #0
 8001594:	701a      	strb	r2, [r3, #0]
	  }

	  //ESTADO Xsby
	  if(Xstb==1)
 8001596:	4b6e      	ldr	r3, [pc, #440]	; (8001750 <main+0x2ac>)
 8001598:	781b      	ldrb	r3, [r3, #0]
 800159a:	2b00      	cmp	r3, #0
 800159c:	d060      	beq.n	8001660 <main+0x1bc>
	  {
		  //confirmación del estado por LEDs de la placa
		  HAL_GPIO_WritePin(GPIOD, GPIO_PIN_13, GPIO_PIN_SET);
 800159e:	2201      	movs	r2, #1
 80015a0:	f44f 5100 	mov.w	r1, #8192	; 0x2000
 80015a4:	486e      	ldr	r0, [pc, #440]	; (8001760 <main+0x2bc>)
 80015a6:	f002 fadd 	bl	8003b64 <HAL_GPIO_WritePin>
		  HAL_GPIO_WritePin(GPIOD, GPIO_PIN_15, GPIO_PIN_RESET);
 80015aa:	2200      	movs	r2, #0
 80015ac:	f44f 4100 	mov.w	r1, #32768	; 0x8000
 80015b0:	486b      	ldr	r0, [pc, #428]	; (8001760 <main+0x2bc>)
 80015b2:	f002 fad7 	bl	8003b64 <HAL_GPIO_WritePin>
		  HAL_GPIO_WritePin(GPIOD, GPIO_PIN_14, GPIO_PIN_RESET);
 80015b6:	2200      	movs	r2, #0
 80015b8:	f44f 4180 	mov.w	r1, #16384	; 0x4000
 80015bc:	4868      	ldr	r0, [pc, #416]	; (8001760 <main+0x2bc>)
 80015be:	f002 fad1 	bl	8003b64 <HAL_GPIO_WritePin>



		  //Tratamiento
		  xstb();
 80015c2:	f7ff fc61 	bl	8000e88 <xstb>


		  //Paso de Xstb->Xon
		  if(boton==1)
 80015c6:	4b67      	ldr	r3, [pc, #412]	; (8001764 <main+0x2c0>)
 80015c8:	681b      	ldr	r3, [r3, #0]
 80015ca:	2b01      	cmp	r3, #1
 80015cc:	d148      	bne.n	8001660 <main+0x1bc>
		  {
			  //resetear la pantalla para evitar fallos
			  fillScreen(BLACK);
 80015ce:	2000      	movs	r0, #0
 80015d0:	f7fe ff96 	bl	8000500 <fillScreen>

			  //Lectura del sensor de peso
			  p = HX711_Average_Value(peso, 4);
 80015d4:	4b55      	ldr	r3, [pc, #340]	; (800172c <main+0x288>)
 80015d6:	2204      	movs	r2, #4
 80015d8:	9201      	str	r2, [sp, #4]
 80015da:	691a      	ldr	r2, [r3, #16]
 80015dc:	9200      	str	r2, [sp, #0]
 80015de:	cb0f      	ldmia	r3, {r0, r1, r2, r3}
 80015e0:	f7ff fa98 	bl	8000b14 <HX711_Average_Value>
 80015e4:	4602      	mov	r2, r0
 80015e6:	4b60      	ldr	r3, [pc, #384]	; (8001768 <main+0x2c4>)
 80015e8:	601a      	str	r2, [r3, #0]
			  p = p - tara;
 80015ea:	4b5f      	ldr	r3, [pc, #380]	; (8001768 <main+0x2c4>)
 80015ec:	681a      	ldr	r2, [r3, #0]
 80015ee:	4b57      	ldr	r3, [pc, #348]	; (800174c <main+0x2a8>)
 80015f0:	681b      	ldr	r3, [r3, #0]
 80015f2:	1ad3      	subs	r3, r2, r3
 80015f4:	4a5c      	ldr	r2, [pc, #368]	; (8001768 <main+0x2c4>)
 80015f6:	6013      	str	r3, [r2, #0]

			  //comprobar que la ventana esta cerrada
			  if(HAL_GPIO_ReadPin(GPIOA, GPIO_PIN_2)!=1)
 80015f8:	2104      	movs	r1, #4
 80015fa:	484e      	ldr	r0, [pc, #312]	; (8001734 <main+0x290>)
 80015fc:	f002 fa9a 	bl	8003b34 <HAL_GPIO_ReadPin>
 8001600:	4603      	mov	r3, r0
 8001602:	2b01      	cmp	r3, #1
 8001604:	d003      	beq.n	800160e <main+0x16a>
			  {
			  ventana=0;
 8001606:	4b59      	ldr	r3, [pc, #356]	; (800176c <main+0x2c8>)
 8001608:	2200      	movs	r2, #0
 800160a:	601a      	str	r2, [r3, #0]
 800160c:	e002      	b.n	8001614 <main+0x170>
			  }else ventana=1;
 800160e:	4b57      	ldr	r3, [pc, #348]	; (800176c <main+0x2c8>)
 8001610:	2201      	movs	r2, #1
 8001612:	601a      	str	r2, [r3, #0]


			  if(deg<deg_max && p>-pres_max && ventana==0)
 8001614:	4b4b      	ldr	r3, [pc, #300]	; (8001744 <main+0x2a0>)
 8001616:	681b      	ldr	r3, [r3, #0]
 8001618:	2b13      	cmp	r3, #19
 800161a:	dc18      	bgt.n	800164e <main+0x1aa>
 800161c:	4b52      	ldr	r3, [pc, #328]	; (8001768 <main+0x2c4>)
 800161e:	681b      	ldr	r3, [r3, #0]
 8001620:	4a53      	ldr	r2, [pc, #332]	; (8001770 <main+0x2cc>)
 8001622:	4293      	cmp	r3, r2
 8001624:	db13      	blt.n	800164e <main+0x1aa>
 8001626:	4b51      	ldr	r3, [pc, #324]	; (800176c <main+0x2c8>)
 8001628:	681b      	ldr	r3, [r3, #0]
 800162a:	2b00      	cmp	r3, #0
 800162c:	d10f      	bne.n	800164e <main+0x1aa>
			  {
				  Xstb=0;
 800162e:	4b48      	ldr	r3, [pc, #288]	; (8001750 <main+0x2ac>)
 8001630:	2200      	movs	r2, #0
 8001632:	701a      	strb	r2, [r3, #0]
				  Xon=1;
 8001634:	4b47      	ldr	r3, [pc, #284]	; (8001754 <main+0x2b0>)
 8001636:	2201      	movs	r2, #1
 8001638:	701a      	strb	r2, [r3, #0]
				  boton=0;
 800163a:	4b4a      	ldr	r3, [pc, #296]	; (8001764 <main+0x2c0>)
 800163c:	2200      	movs	r2, #0
 800163e:	601a      	str	r2, [r3, #0]
				  alarm=0;
 8001640:	4b4c      	ldr	r3, [pc, #304]	; (8001774 <main+0x2d0>)
 8001642:	2200      	movs	r2, #0
 8001644:	601a      	str	r2, [r3, #0]

		  		  bdt=0;
 8001646:	4b4c      	ldr	r3, [pc, #304]	; (8001778 <main+0x2d4>)
 8001648:	2200      	movs	r2, #0
 800164a:	601a      	str	r2, [r3, #0]
 800164c:	e008      	b.n	8001660 <main+0x1bc>

			  }else
			  {
				  Xstb=0;
 800164e:	4b40      	ldr	r3, [pc, #256]	; (8001750 <main+0x2ac>)
 8001650:	2200      	movs	r2, #0
 8001652:	701a      	strb	r2, [r3, #0]
				  Xfallo=1;
 8001654:	4b41      	ldr	r3, [pc, #260]	; (800175c <main+0x2b8>)
 8001656:	2201      	movs	r2, #1
 8001658:	701a      	strb	r2, [r3, #0]
				  boton=0;
 800165a:	4b42      	ldr	r3, [pc, #264]	; (8001764 <main+0x2c0>)
 800165c:	2200      	movs	r2, #0
 800165e:	601a      	str	r2, [r3, #0]

	  }


	  //ESTADO Xon
	  if(Xon==1)
 8001660:	4b3c      	ldr	r3, [pc, #240]	; (8001754 <main+0x2b0>)
 8001662:	781b      	ldrb	r3, [r3, #0]
 8001664:	2b00      	cmp	r3, #0
 8001666:	f000 8095 	beq.w	8001794 <main+0x2f0>
	  {
		  //confirmación del estado por LEDs de la placa
		  HAL_GPIO_WritePin(GPIOD, GPIO_PIN_15, GPIO_PIN_SET);
 800166a:	2201      	movs	r2, #1
 800166c:	f44f 4100 	mov.w	r1, #32768	; 0x8000
 8001670:	483b      	ldr	r0, [pc, #236]	; (8001760 <main+0x2bc>)
 8001672:	f002 fa77 	bl	8003b64 <HAL_GPIO_WritePin>
		  HAL_GPIO_WritePin(GPIOD, GPIO_PIN_13, GPIO_PIN_RESET);
 8001676:	2200      	movs	r2, #0
 8001678:	f44f 5100 	mov.w	r1, #8192	; 0x2000
 800167c:	4838      	ldr	r0, [pc, #224]	; (8001760 <main+0x2bc>)
 800167e:	f002 fa71 	bl	8003b64 <HAL_GPIO_WritePin>
		  HAL_GPIO_WritePin(GPIOD, GPIO_PIN_14, GPIO_PIN_RESET);
 8001682:	2200      	movs	r2, #0
 8001684:	f44f 4180 	mov.w	r1, #16384	; 0x4000
 8001688:	4835      	ldr	r0, [pc, #212]	; (8001760 <main+0x2bc>)
 800168a:	f002 fa6b 	bl	8003b64 <HAL_GPIO_WritePin>

		  //tratamiento
		  xon();
 800168e:	f7ff fcc5 	bl	800101c <xon>

		  //Paso de Xon->Xstb
		  if(boton==1)	//Hay que mantener el boton pulsado hasta el cambio de estado
 8001692:	4b34      	ldr	r3, [pc, #208]	; (8001764 <main+0x2c0>)
 8001694:	681b      	ldr	r3, [r3, #0]
 8001696:	2b01      	cmp	r3, #1
 8001698:	d10e      	bne.n	80016b8 <main+0x214>
		  {
			  //resetear la pantalla para evitar fallos
			  fillScreen(BLACK);
 800169a:	2000      	movs	r0, #0
 800169c:	f7fe ff30 	bl	8000500 <fillScreen>

			  Xon=0;
 80016a0:	4b2c      	ldr	r3, [pc, #176]	; (8001754 <main+0x2b0>)
 80016a2:	2200      	movs	r2, #0
 80016a4:	701a      	strb	r2, [r3, #0]
			  Xstb=1;
 80016a6:	4b2a      	ldr	r3, [pc, #168]	; (8001750 <main+0x2ac>)
 80016a8:	2201      	movs	r2, #1
 80016aa:	701a      	strb	r2, [r3, #0]
			  boton=0;
 80016ac:	4b2d      	ldr	r3, [pc, #180]	; (8001764 <main+0x2c0>)
 80016ae:	2200      	movs	r2, #0
 80016b0:	601a      	str	r2, [r3, #0]

			  bdt=0;
 80016b2:	4b31      	ldr	r3, [pc, #196]	; (8001778 <main+0x2d4>)
 80016b4:	2200      	movs	r2, #0
 80016b6:	601a      	str	r2, [r3, #0]
		  }

		  //Paso de Xon->Xemer


		  if(ventana==1)
 80016b8:	4b2c      	ldr	r3, [pc, #176]	; (800176c <main+0x2c8>)
 80016ba:	681b      	ldr	r3, [r3, #0]
 80016bc:	2b01      	cmp	r3, #1
 80016be:	d102      	bne.n	80016c6 <main+0x222>
			  alarm= 1;
 80016c0:	4b2c      	ldr	r3, [pc, #176]	; (8001774 <main+0x2d0>)
 80016c2:	2201      	movs	r2, #1
 80016c4:	601a      	str	r2, [r3, #0]

		  //Lectura del sensor de peso
		  p = HX711_Average_Value(peso, 4);
 80016c6:	4b19      	ldr	r3, [pc, #100]	; (800172c <main+0x288>)
 80016c8:	2204      	movs	r2, #4
 80016ca:	9201      	str	r2, [sp, #4]
 80016cc:	691a      	ldr	r2, [r3, #16]
 80016ce:	9200      	str	r2, [sp, #0]
 80016d0:	cb0f      	ldmia	r3, {r0, r1, r2, r3}
 80016d2:	f7ff fa1f 	bl	8000b14 <HX711_Average_Value>
 80016d6:	4602      	mov	r2, r0
 80016d8:	4b23      	ldr	r3, [pc, #140]	; (8001768 <main+0x2c4>)
 80016da:	601a      	str	r2, [r3, #0]
		  p = p - tara;
 80016dc:	4b22      	ldr	r3, [pc, #136]	; (8001768 <main+0x2c4>)
 80016de:	681a      	ldr	r2, [r3, #0]
 80016e0:	4b1a      	ldr	r3, [pc, #104]	; (800174c <main+0x2a8>)
 80016e2:	681b      	ldr	r3, [r3, #0]
 80016e4:	1ad3      	subs	r3, r2, r3
 80016e6:	4a20      	ldr	r2, [pc, #128]	; (8001768 <main+0x2c4>)
 80016e8:	6013      	str	r3, [r2, #0]


		  if(p<=-pres_max)
 80016ea:	4b1f      	ldr	r3, [pc, #124]	; (8001768 <main+0x2c4>)
 80016ec:	681b      	ldr	r3, [r3, #0]
 80016ee:	4a20      	ldr	r2, [pc, #128]	; (8001770 <main+0x2cc>)
 80016f0:	4293      	cmp	r3, r2
 80016f2:	da02      	bge.n	80016fa <main+0x256>
			  alarm= 2;
 80016f4:	4b1f      	ldr	r3, [pc, #124]	; (8001774 <main+0x2d0>)
 80016f6:	2202      	movs	r2, #2
 80016f8:	601a      	str	r2, [r3, #0]

		  if(deg>deg_max)
 80016fa:	4b12      	ldr	r3, [pc, #72]	; (8001744 <main+0x2a0>)
 80016fc:	681b      	ldr	r3, [r3, #0]
 80016fe:	2b14      	cmp	r3, #20
 8001700:	dd02      	ble.n	8001708 <main+0x264>
			  alarm= 3;
 8001702:	4b1c      	ldr	r3, [pc, #112]	; (8001774 <main+0x2d0>)
 8001704:	2203      	movs	r2, #3
 8001706:	601a      	str	r2, [r3, #0]

		  if(alarm!=0)
 8001708:	4b1a      	ldr	r3, [pc, #104]	; (8001774 <main+0x2d0>)
 800170a:	681b      	ldr	r3, [r3, #0]
 800170c:	2b00      	cmp	r3, #0
 800170e:	d041      	beq.n	8001794 <main+0x2f0>
		  {
			  //resetear la pantalla para evitar fallos
			  fillScreen(BLACK);
 8001710:	2000      	movs	r0, #0
 8001712:	f7fe fef5 	bl	8000500 <fillScreen>

			  //Comprobar que la ventana se ha cerrado antes de poner la ventana a 0
			  if(HAL_GPIO_ReadPin(GPIOA, GPIO_PIN_2)!=1)
 8001716:	2104      	movs	r1, #4
 8001718:	4806      	ldr	r0, [pc, #24]	; (8001734 <main+0x290>)
 800171a:	f002 fa0b 	bl	8003b34 <HAL_GPIO_ReadPin>
 800171e:	4603      	mov	r3, r0
 8001720:	2b01      	cmp	r3, #1
 8001722:	d02b      	beq.n	800177c <main+0x2d8>
			  {
			  ventana=0;
 8001724:	4b11      	ldr	r3, [pc, #68]	; (800176c <main+0x2c8>)
 8001726:	2200      	movs	r2, #0
 8001728:	601a      	str	r2, [r3, #0]
 800172a:	e02a      	b.n	8001782 <main+0x2de>
 800172c:	200000e8 	.word	0x200000e8
 8001730:	40021000 	.word	0x40021000
 8001734:	40020000 	.word	0x40020000
 8001738:	40020800 	.word	0x40020800
 800173c:	20000068 	.word	0x20000068
 8001740:	200000a8 	.word	0x200000a8
 8001744:	20000040 	.word	0x20000040
 8001748:	200000fc 	.word	0x200000fc
 800174c:	2000003c 	.word	0x2000003c
 8001750:	200001aa 	.word	0x200001aa
 8001754:	20000144 	.word	0x20000144
 8001758:	20000204 	.word	0x20000204
 800175c:	2000004c 	.word	0x2000004c
 8001760:	40020c00 	.word	0x40020c00
 8001764:	20000044 	.word	0x20000044
 8001768:	20000038 	.word	0x20000038
 800176c:	20000048 	.word	0x20000048
 8001770:	fffe7961 	.word	0xfffe7961
 8001774:	20000050 	.word	0x20000050
 8001778:	20000054 	.word	0x20000054
			  }else ventana=1;
 800177c:	4b1c      	ldr	r3, [pc, #112]	; (80017f0 <main+0x34c>)
 800177e:	2201      	movs	r2, #1
 8001780:	601a      	str	r2, [r3, #0]


			  Xon=0;
 8001782:	4b1c      	ldr	r3, [pc, #112]	; (80017f4 <main+0x350>)
 8001784:	2200      	movs	r2, #0
 8001786:	701a      	strb	r2, [r3, #0]
			  Xemer=1;
 8001788:	4b1b      	ldr	r3, [pc, #108]	; (80017f8 <main+0x354>)
 800178a:	2201      	movs	r2, #1
 800178c:	701a      	strb	r2, [r3, #0]

			  bdt=0;
 800178e:	4b1b      	ldr	r3, [pc, #108]	; (80017fc <main+0x358>)
 8001790:	2200      	movs	r2, #0
 8001792:	601a      	str	r2, [r3, #0]
		  }
	  }

	  //Estado Xemer
	  if(Xemer==1)
 8001794:	4b18      	ldr	r3, [pc, #96]	; (80017f8 <main+0x354>)
 8001796:	781b      	ldrb	r3, [r3, #0]
 8001798:	2b00      	cmp	r3, #0
 800179a:	f43f aedb 	beq.w	8001554 <main+0xb0>
	  {
		  //confirmación del estado por LEDs de la placa
		  HAL_GPIO_WritePin(GPIOD, GPIO_PIN_14, GPIO_PIN_SET);
 800179e:	2201      	movs	r2, #1
 80017a0:	f44f 4180 	mov.w	r1, #16384	; 0x4000
 80017a4:	4816      	ldr	r0, [pc, #88]	; (8001800 <main+0x35c>)
 80017a6:	f002 f9dd 	bl	8003b64 <HAL_GPIO_WritePin>
		  HAL_GPIO_WritePin(GPIOD, GPIO_PIN_15, GPIO_PIN_RESET);
 80017aa:	2200      	movs	r2, #0
 80017ac:	f44f 4100 	mov.w	r1, #32768	; 0x8000
 80017b0:	4813      	ldr	r0, [pc, #76]	; (8001800 <main+0x35c>)
 80017b2:	f002 f9d7 	bl	8003b64 <HAL_GPIO_WritePin>
		  HAL_GPIO_WritePin(GPIOD, GPIO_PIN_13, GPIO_PIN_RESET);
 80017b6:	2200      	movs	r2, #0
 80017b8:	f44f 5100 	mov.w	r1, #8192	; 0x2000
 80017bc:	4810      	ldr	r0, [pc, #64]	; (8001800 <main+0x35c>)
 80017be:	f002 f9d1 	bl	8003b64 <HAL_GPIO_WritePin>

		  //Tratamiento
		  xemer();
 80017c2:	f7ff fcc7 	bl	8001154 <xemer>

		  //Paso de Xemer>->Xstb
		  if(boton==1)
 80017c6:	4b0f      	ldr	r3, [pc, #60]	; (8001804 <main+0x360>)
 80017c8:	681b      	ldr	r3, [r3, #0]
 80017ca:	2b01      	cmp	r3, #1
 80017cc:	f47f aec2 	bne.w	8001554 <main+0xb0>
		  {
			  //resetear la pantalla para evitar fallos
			  fillScreen(BLACK);
 80017d0:	2000      	movs	r0, #0
 80017d2:	f7fe fe95 	bl	8000500 <fillScreen>

			  Xemer=0;
 80017d6:	4b08      	ldr	r3, [pc, #32]	; (80017f8 <main+0x354>)
 80017d8:	2200      	movs	r2, #0
 80017da:	701a      	strb	r2, [r3, #0]
			  Xstb=1;
 80017dc:	4b0a      	ldr	r3, [pc, #40]	; (8001808 <main+0x364>)
 80017de:	2201      	movs	r2, #1
 80017e0:	701a      	strb	r2, [r3, #0]
			  boton=0;
 80017e2:	4b08      	ldr	r3, [pc, #32]	; (8001804 <main+0x360>)
 80017e4:	2200      	movs	r2, #0
 80017e6:	601a      	str	r2, [r3, #0]

			  bdt=0;
 80017e8:	4b04      	ldr	r3, [pc, #16]	; (80017fc <main+0x358>)
 80017ea:	2200      	movs	r2, #0
 80017ec:	601a      	str	r2, [r3, #0]
	  if(Xfallo==1)
 80017ee:	e6b1      	b.n	8001554 <main+0xb0>
 80017f0:	20000048 	.word	0x20000048
 80017f4:	20000144 	.word	0x20000144
 80017f8:	20000204 	.word	0x20000204
 80017fc:	20000054 	.word	0x20000054
 8001800:	40020c00 	.word	0x40020c00
 8001804:	20000044 	.word	0x20000044
 8001808:	200001aa 	.word	0x200001aa

0800180c <SystemClock_Config>:
/**
  * @brief System Clock Configuration
  * @retval None
  */
void SystemClock_Config(void)
{
 800180c:	b580      	push	{r7, lr}
 800180e:	b094      	sub	sp, #80	; 0x50
 8001810:	af00      	add	r7, sp, #0
  RCC_OscInitTypeDef RCC_OscInitStruct = {0};
 8001812:	f107 0320 	add.w	r3, r7, #32
 8001816:	2230      	movs	r2, #48	; 0x30
 8001818:	2100      	movs	r1, #0
 800181a:	4618      	mov	r0, r3
 800181c:	f003 fe22 	bl	8005464 <memset>
  RCC_ClkInitTypeDef RCC_ClkInitStruct = {0};
 8001820:	f107 030c 	add.w	r3, r7, #12
 8001824:	2200      	movs	r2, #0
 8001826:	601a      	str	r2, [r3, #0]
 8001828:	605a      	str	r2, [r3, #4]
 800182a:	609a      	str	r2, [r3, #8]
 800182c:	60da      	str	r2, [r3, #12]
 800182e:	611a      	str	r2, [r3, #16]

  /** Configure the main internal regulator output voltage
  */
  __HAL_RCC_PWR_CLK_ENABLE();
 8001830:	2300      	movs	r3, #0
 8001832:	60bb      	str	r3, [r7, #8]
 8001834:	4b28      	ldr	r3, [pc, #160]	; (80018d8 <SystemClock_Config+0xcc>)
 8001836:	6c1b      	ldr	r3, [r3, #64]	; 0x40
 8001838:	4a27      	ldr	r2, [pc, #156]	; (80018d8 <SystemClock_Config+0xcc>)
 800183a:	f043 5380 	orr.w	r3, r3, #268435456	; 0x10000000
 800183e:	6413      	str	r3, [r2, #64]	; 0x40
 8001840:	4b25      	ldr	r3, [pc, #148]	; (80018d8 <SystemClock_Config+0xcc>)
 8001842:	6c1b      	ldr	r3, [r3, #64]	; 0x40
 8001844:	f003 5380 	and.w	r3, r3, #268435456	; 0x10000000
 8001848:	60bb      	str	r3, [r7, #8]
 800184a:	68bb      	ldr	r3, [r7, #8]
  __HAL_PWR_VOLTAGESCALING_CONFIG(PWR_REGULATOR_VOLTAGE_SCALE1);
 800184c:	2300      	movs	r3, #0
 800184e:	607b      	str	r3, [r7, #4]
 8001850:	4b22      	ldr	r3, [pc, #136]	; (80018dc <SystemClock_Config+0xd0>)
 8001852:	681b      	ldr	r3, [r3, #0]
 8001854:	4a21      	ldr	r2, [pc, #132]	; (80018dc <SystemClock_Config+0xd0>)
 8001856:	f443 4380 	orr.w	r3, r3, #16384	; 0x4000
 800185a:	6013      	str	r3, [r2, #0]
 800185c:	4b1f      	ldr	r3, [pc, #124]	; (80018dc <SystemClock_Config+0xd0>)
 800185e:	681b      	ldr	r3, [r3, #0]
 8001860:	f403 4380 	and.w	r3, r3, #16384	; 0x4000
 8001864:	607b      	str	r3, [r7, #4]
 8001866:	687b      	ldr	r3, [r7, #4]
  /** Initializes the RCC Oscillators according to the specified parameters
  * in the RCC_OscInitTypeDef structure.
  */
  RCC_OscInitStruct.OscillatorType = RCC_OSCILLATORTYPE_HSE;
 8001868:	2301      	movs	r3, #1
 800186a:	623b      	str	r3, [r7, #32]
  RCC_OscInitStruct.HSEState = RCC_HSE_ON;
 800186c:	f44f 3380 	mov.w	r3, #65536	; 0x10000
 8001870:	627b      	str	r3, [r7, #36]	; 0x24
  RCC_OscInitStruct.PLL.PLLState = RCC_PLL_ON;
 8001872:	2302      	movs	r3, #2
 8001874:	63bb      	str	r3, [r7, #56]	; 0x38
  RCC_OscInitStruct.PLL.PLLSource = RCC_PLLSOURCE_HSE;
 8001876:	f44f 0380 	mov.w	r3, #4194304	; 0x400000
 800187a:	63fb      	str	r3, [r7, #60]	; 0x3c
  RCC_OscInitStruct.PLL.PLLM = 4;
 800187c:	2304      	movs	r3, #4
 800187e:	643b      	str	r3, [r7, #64]	; 0x40
  RCC_OscInitStruct.PLL.PLLN = 168;
 8001880:	23a8      	movs	r3, #168	; 0xa8
 8001882:	647b      	str	r3, [r7, #68]	; 0x44
  RCC_OscInitStruct.PLL.PLLP = RCC_PLLP_DIV2;
 8001884:	2302      	movs	r3, #2
 8001886:	64bb      	str	r3, [r7, #72]	; 0x48
  RCC_OscInitStruct.PLL.PLLQ = 7;
 8001888:	2307      	movs	r3, #7
 800188a:	64fb      	str	r3, [r7, #76]	; 0x4c
  if (HAL_RCC_OscConfig(&RCC_OscInitStruct) != HAL_OK)
 800188c:	f107 0320 	add.w	r3, r7, #32
 8001890:	4618      	mov	r0, r3
 8001892:	f002 f999 	bl	8003bc8 <HAL_RCC_OscConfig>
 8001896:	4603      	mov	r3, r0
 8001898:	2b00      	cmp	r3, #0
 800189a:	d001      	beq.n	80018a0 <SystemClock_Config+0x94>
  {
    Error_Handler();
 800189c:	f000 faa2 	bl	8001de4 <Error_Handler>
  }
  /** Initializes the CPU, AHB and APB buses clocks
  */
  RCC_ClkInitStruct.ClockType = RCC_CLOCKTYPE_HCLK|RCC_CLOCKTYPE_SYSCLK
 80018a0:	230f      	movs	r3, #15
 80018a2:	60fb      	str	r3, [r7, #12]
                              |RCC_CLOCKTYPE_PCLK1|RCC_CLOCKTYPE_PCLK2;
  RCC_ClkInitStruct.SYSCLKSource = RCC_SYSCLKSOURCE_PLLCLK;
 80018a4:	2302      	movs	r3, #2
 80018a6:	613b      	str	r3, [r7, #16]
  RCC_ClkInitStruct.AHBCLKDivider = RCC_SYSCLK_DIV1;
 80018a8:	2300      	movs	r3, #0
 80018aa:	617b      	str	r3, [r7, #20]
  RCC_ClkInitStruct.APB1CLKDivider = RCC_HCLK_DIV4;
 80018ac:	f44f 53a0 	mov.w	r3, #5120	; 0x1400
 80018b0:	61bb      	str	r3, [r7, #24]
  RCC_ClkInitStruct.APB2CLKDivider = RCC_HCLK_DIV2;
 80018b2:	f44f 5380 	mov.w	r3, #4096	; 0x1000
 80018b6:	61fb      	str	r3, [r7, #28]

  if (HAL_RCC_ClockConfig(&RCC_ClkInitStruct, FLASH_LATENCY_5) != HAL_OK)
 80018b8:	f107 030c 	add.w	r3, r7, #12
 80018bc:	2105      	movs	r1, #5
 80018be:	4618      	mov	r0, r3
 80018c0:	f002 fbf2 	bl	80040a8 <HAL_RCC_ClockConfig>
 80018c4:	4603      	mov	r3, r0
 80018c6:	2b00      	cmp	r3, #0
 80018c8:	d001      	beq.n	80018ce <SystemClock_Config+0xc2>
  {
    Error_Handler();
 80018ca:	f000 fa8b 	bl	8001de4 <Error_Handler>
  }
}
 80018ce:	bf00      	nop
 80018d0:	3750      	adds	r7, #80	; 0x50
 80018d2:	46bd      	mov	sp, r7
 80018d4:	bd80      	pop	{r7, pc}
 80018d6:	bf00      	nop
 80018d8:	40023800 	.word	0x40023800
 80018dc:	40007000 	.word	0x40007000

080018e0 <MX_ADC1_Init>:
  * @brief ADC1 Initialization Function
  * @param None
  * @retval None
  */
static void MX_ADC1_Init(void)
{
 80018e0:	b580      	push	{r7, lr}
 80018e2:	b084      	sub	sp, #16
 80018e4:	af00      	add	r7, sp, #0

  /* USER CODE BEGIN ADC1_Init 0 */

  /* USER CODE END ADC1_Init 0 */

  ADC_ChannelConfTypeDef sConfig = {0};
 80018e6:	463b      	mov	r3, r7
 80018e8:	2200      	movs	r2, #0
 80018ea:	601a      	str	r2, [r3, #0]
 80018ec:	605a      	str	r2, [r3, #4]
 80018ee:	609a      	str	r2, [r3, #8]
 80018f0:	60da      	str	r2, [r3, #12]
  /* USER CODE BEGIN ADC1_Init 1 */

  /* USER CODE END ADC1_Init 1 */
  /** Configure the global features of the ADC (Clock, Resolution, Data Alignment and number of conversion)
  */
  hadc1.Instance = ADC1;
 80018f2:	4b22      	ldr	r3, [pc, #136]	; (800197c <MX_ADC1_Init+0x9c>)
 80018f4:	4a22      	ldr	r2, [pc, #136]	; (8001980 <MX_ADC1_Init+0xa0>)
 80018f6:	601a      	str	r2, [r3, #0]
  hadc1.Init.ClockPrescaler = ADC_CLOCK_SYNC_PCLK_DIV4;
 80018f8:	4b20      	ldr	r3, [pc, #128]	; (800197c <MX_ADC1_Init+0x9c>)
 80018fa:	f44f 3280 	mov.w	r2, #65536	; 0x10000
 80018fe:	605a      	str	r2, [r3, #4]
  hadc1.Init.Resolution = ADC_RESOLUTION_8B;
 8001900:	4b1e      	ldr	r3, [pc, #120]	; (800197c <MX_ADC1_Init+0x9c>)
 8001902:	f04f 7200 	mov.w	r2, #33554432	; 0x2000000
 8001906:	609a      	str	r2, [r3, #8]
  hadc1.Init.ScanConvMode = ENABLE;
 8001908:	4b1c      	ldr	r3, [pc, #112]	; (800197c <MX_ADC1_Init+0x9c>)
 800190a:	2201      	movs	r2, #1
 800190c:	611a      	str	r2, [r3, #16]
  hadc1.Init.ContinuousConvMode = ENABLE;
 800190e:	4b1b      	ldr	r3, [pc, #108]	; (800197c <MX_ADC1_Init+0x9c>)
 8001910:	2201      	movs	r2, #1
 8001912:	761a      	strb	r2, [r3, #24]
  hadc1.Init.DiscontinuousConvMode = DISABLE;
 8001914:	4b19      	ldr	r3, [pc, #100]	; (800197c <MX_ADC1_Init+0x9c>)
 8001916:	2200      	movs	r2, #0
 8001918:	f883 2020 	strb.w	r2, [r3, #32]
  hadc1.Init.ExternalTrigConvEdge = ADC_EXTERNALTRIGCONVEDGE_NONE;
 800191c:	4b17      	ldr	r3, [pc, #92]	; (800197c <MX_ADC1_Init+0x9c>)
 800191e:	2200      	movs	r2, #0
 8001920:	62da      	str	r2, [r3, #44]	; 0x2c
  hadc1.Init.ExternalTrigConv = ADC_SOFTWARE_START;
 8001922:	4b16      	ldr	r3, [pc, #88]	; (800197c <MX_ADC1_Init+0x9c>)
 8001924:	4a17      	ldr	r2, [pc, #92]	; (8001984 <MX_ADC1_Init+0xa4>)
 8001926:	629a      	str	r2, [r3, #40]	; 0x28
  hadc1.Init.DataAlign = ADC_DATAALIGN_RIGHT;
 8001928:	4b14      	ldr	r3, [pc, #80]	; (800197c <MX_ADC1_Init+0x9c>)
 800192a:	2200      	movs	r2, #0
 800192c:	60da      	str	r2, [r3, #12]
  hadc1.Init.NbrOfConversion = 1;
 800192e:	4b13      	ldr	r3, [pc, #76]	; (800197c <MX_ADC1_Init+0x9c>)
 8001930:	2201      	movs	r2, #1
 8001932:	61da      	str	r2, [r3, #28]
  hadc1.Init.DMAContinuousRequests = ENABLE;
 8001934:	4b11      	ldr	r3, [pc, #68]	; (800197c <MX_ADC1_Init+0x9c>)
 8001936:	2201      	movs	r2, #1
 8001938:	f883 2030 	strb.w	r2, [r3, #48]	; 0x30
  hadc1.Init.EOCSelection = ADC_EOC_SINGLE_CONV;
 800193c:	4b0f      	ldr	r3, [pc, #60]	; (800197c <MX_ADC1_Init+0x9c>)
 800193e:	2201      	movs	r2, #1
 8001940:	615a      	str	r2, [r3, #20]
  if (HAL_ADC_Init(&hadc1) != HAL_OK)
 8001942:	480e      	ldr	r0, [pc, #56]	; (800197c <MX_ADC1_Init+0x9c>)
 8001944:	f000 fd08 	bl	8002358 <HAL_ADC_Init>
 8001948:	4603      	mov	r3, r0
 800194a:	2b00      	cmp	r3, #0
 800194c:	d001      	beq.n	8001952 <MX_ADC1_Init+0x72>
  {
    Error_Handler();
 800194e:	f000 fa49 	bl	8001de4 <Error_Handler>
  }
  /** Configure for the selected ADC regular channel its corresponding rank in the sequencer and its sample time.
  */
  sConfig.Channel = ADC_CHANNEL_1;
 8001952:	2301      	movs	r3, #1
 8001954:	603b      	str	r3, [r7, #0]
  sConfig.Rank = 1;
 8001956:	2301      	movs	r3, #1
 8001958:	607b      	str	r3, [r7, #4]
  sConfig.SamplingTime = ADC_SAMPLETIME_480CYCLES;
 800195a:	2307      	movs	r3, #7
 800195c:	60bb      	str	r3, [r7, #8]
  if (HAL_ADC_ConfigChannel(&hadc1, &sConfig) != HAL_OK)
 800195e:	463b      	mov	r3, r7
 8001960:	4619      	mov	r1, r3
 8001962:	4806      	ldr	r0, [pc, #24]	; (800197c <MX_ADC1_Init+0x9c>)
 8001964:	f000 ff96 	bl	8002894 <HAL_ADC_ConfigChannel>
 8001968:	4603      	mov	r3, r0
 800196a:	2b00      	cmp	r3, #0
 800196c:	d001      	beq.n	8001972 <MX_ADC1_Init+0x92>
  {
    Error_Handler();
 800196e:	f000 fa39 	bl	8001de4 <Error_Handler>
  }
  /* USER CODE BEGIN ADC1_Init 2 */

  /* USER CODE END ADC1_Init 2 */

}
 8001972:	bf00      	nop
 8001974:	3710      	adds	r7, #16
 8001976:	46bd      	mov	sp, r7
 8001978:	bd80      	pop	{r7, pc}
 800197a:	bf00      	nop
 800197c:	200000fc 	.word	0x200000fc
 8001980:	40012000 	.word	0x40012000
 8001984:	0f000001 	.word	0x0f000001

08001988 <MX_SPI1_Init>:
  * @brief SPI1 Initialization Function
  * @param None
  * @retval None
  */
static void MX_SPI1_Init(void)
{
 8001988:	b580      	push	{r7, lr}
 800198a:	af00      	add	r7, sp, #0

  /* USER CODE BEGIN SPI1_Init 1 */

  /* USER CODE END SPI1_Init 1 */
  /* SPI1 parameter configuration*/
  hspi1.Instance = SPI1;
 800198c:	4b17      	ldr	r3, [pc, #92]	; (80019ec <MX_SPI1_Init+0x64>)
 800198e:	4a18      	ldr	r2, [pc, #96]	; (80019f0 <MX_SPI1_Init+0x68>)
 8001990:	601a      	str	r2, [r3, #0]
  hspi1.Init.Mode = SPI_MODE_MASTER;
 8001992:	4b16      	ldr	r3, [pc, #88]	; (80019ec <MX_SPI1_Init+0x64>)
 8001994:	f44f 7282 	mov.w	r2, #260	; 0x104
 8001998:	605a      	str	r2, [r3, #4]
  hspi1.Init.Direction = SPI_DIRECTION_2LINES;
 800199a:	4b14      	ldr	r3, [pc, #80]	; (80019ec <MX_SPI1_Init+0x64>)
 800199c:	2200      	movs	r2, #0
 800199e:	609a      	str	r2, [r3, #8]
  hspi1.Init.DataSize = SPI_DATASIZE_8BIT;
 80019a0:	4b12      	ldr	r3, [pc, #72]	; (80019ec <MX_SPI1_Init+0x64>)
 80019a2:	2200      	movs	r2, #0
 80019a4:	60da      	str	r2, [r3, #12]
  hspi1.Init.CLKPolarity = SPI_POLARITY_LOW;
 80019a6:	4b11      	ldr	r3, [pc, #68]	; (80019ec <MX_SPI1_Init+0x64>)
 80019a8:	2200      	movs	r2, #0
 80019aa:	611a      	str	r2, [r3, #16]
  hspi1.Init.CLKPhase = SPI_PHASE_1EDGE;
 80019ac:	4b0f      	ldr	r3, [pc, #60]	; (80019ec <MX_SPI1_Init+0x64>)
 80019ae:	2200      	movs	r2, #0
 80019b0:	615a      	str	r2, [r3, #20]
  hspi1.Init.NSS = SPI_NSS_SOFT;
 80019b2:	4b0e      	ldr	r3, [pc, #56]	; (80019ec <MX_SPI1_Init+0x64>)
 80019b4:	f44f 7200 	mov.w	r2, #512	; 0x200
 80019b8:	619a      	str	r2, [r3, #24]
  hspi1.Init.BaudRatePrescaler = SPI_BAUDRATEPRESCALER_16;
 80019ba:	4b0c      	ldr	r3, [pc, #48]	; (80019ec <MX_SPI1_Init+0x64>)
 80019bc:	2218      	movs	r2, #24
 80019be:	61da      	str	r2, [r3, #28]
  hspi1.Init.FirstBit = SPI_FIRSTBIT_MSB;
 80019c0:	4b0a      	ldr	r3, [pc, #40]	; (80019ec <MX_SPI1_Init+0x64>)
 80019c2:	2200      	movs	r2, #0
 80019c4:	621a      	str	r2, [r3, #32]
  hspi1.Init.TIMode = SPI_TIMODE_DISABLE;
 80019c6:	4b09      	ldr	r3, [pc, #36]	; (80019ec <MX_SPI1_Init+0x64>)
 80019c8:	2200      	movs	r2, #0
 80019ca:	625a      	str	r2, [r3, #36]	; 0x24
  hspi1.Init.CRCCalculation = SPI_CRCCALCULATION_DISABLE;
 80019cc:	4b07      	ldr	r3, [pc, #28]	; (80019ec <MX_SPI1_Init+0x64>)
 80019ce:	2200      	movs	r2, #0
 80019d0:	629a      	str	r2, [r3, #40]	; 0x28
  hspi1.Init.CRCPolynomial = 10;
 80019d2:	4b06      	ldr	r3, [pc, #24]	; (80019ec <MX_SPI1_Init+0x64>)
 80019d4:	220a      	movs	r2, #10
 80019d6:	62da      	str	r2, [r3, #44]	; 0x2c
  if (HAL_SPI_Init(&hspi1) != HAL_OK)
 80019d8:	4804      	ldr	r0, [pc, #16]	; (80019ec <MX_SPI1_Init+0x64>)
 80019da:	f002 fd23 	bl	8004424 <HAL_SPI_Init>
 80019de:	4603      	mov	r3, r0
 80019e0:	2b00      	cmp	r3, #0
 80019e2:	d001      	beq.n	80019e8 <MX_SPI1_Init+0x60>
  {
    Error_Handler();
 80019e4:	f000 f9fe 	bl	8001de4 <Error_Handler>
  }
  /* USER CODE BEGIN SPI1_Init 2 */

  /* USER CODE END SPI1_Init 2 */

}
 80019e8:	bf00      	nop
 80019ea:	bd80      	pop	{r7, pc}
 80019ec:	200001ac 	.word	0x200001ac
 80019f0:	40013000 	.word	0x40013000

080019f4 <MX_TIM3_Init>:
  * @brief TIM3 Initialization Function
  * @param None
  * @retval None
  */
static void MX_TIM3_Init(void)
{
 80019f4:	b580      	push	{r7, lr}
 80019f6:	b08a      	sub	sp, #40	; 0x28
 80019f8:	af00      	add	r7, sp, #0

  /* USER CODE BEGIN TIM3_Init 0 */

  /* USER CODE END TIM3_Init 0 */

  TIM_MasterConfigTypeDef sMasterConfig = {0};
 80019fa:	f107 0320 	add.w	r3, r7, #32
 80019fe:	2200      	movs	r2, #0
 8001a00:	601a      	str	r2, [r3, #0]
 8001a02:	605a      	str	r2, [r3, #4]
  TIM_OC_InitTypeDef sConfigOC = {0};
 8001a04:	1d3b      	adds	r3, r7, #4
 8001a06:	2200      	movs	r2, #0
 8001a08:	601a      	str	r2, [r3, #0]
 8001a0a:	605a      	str	r2, [r3, #4]
 8001a0c:	609a      	str	r2, [r3, #8]
 8001a0e:	60da      	str	r2, [r3, #12]
 8001a10:	611a      	str	r2, [r3, #16]
 8001a12:	615a      	str	r2, [r3, #20]
 8001a14:	619a      	str	r2, [r3, #24]

  /* USER CODE BEGIN TIM3_Init 1 */

  /* USER CODE END TIM3_Init 1 */
  htim3.Instance = TIM3;
 8001a16:	4b21      	ldr	r3, [pc, #132]	; (8001a9c <MX_TIM3_Init+0xa8>)
 8001a18:	4a21      	ldr	r2, [pc, #132]	; (8001aa0 <MX_TIM3_Init+0xac>)
 8001a1a:	601a      	str	r2, [r3, #0]
  htim3.Init.Prescaler = 84-1;
 8001a1c:	4b1f      	ldr	r3, [pc, #124]	; (8001a9c <MX_TIM3_Init+0xa8>)
 8001a1e:	2253      	movs	r2, #83	; 0x53
 8001a20:	605a      	str	r2, [r3, #4]
  htim3.Init.CounterMode = TIM_COUNTERMODE_UP;
 8001a22:	4b1e      	ldr	r3, [pc, #120]	; (8001a9c <MX_TIM3_Init+0xa8>)
 8001a24:	2200      	movs	r2, #0
 8001a26:	609a      	str	r2, [r3, #8]
  htim3.Init.Period = 100-1;
 8001a28:	4b1c      	ldr	r3, [pc, #112]	; (8001a9c <MX_TIM3_Init+0xa8>)
 8001a2a:	2263      	movs	r2, #99	; 0x63
 8001a2c:	60da      	str	r2, [r3, #12]
  htim3.Init.ClockDivision = TIM_CLOCKDIVISION_DIV1;
 8001a2e:	4b1b      	ldr	r3, [pc, #108]	; (8001a9c <MX_TIM3_Init+0xa8>)
 8001a30:	2200      	movs	r2, #0
 8001a32:	611a      	str	r2, [r3, #16]
  htim3.Init.AutoReloadPreload = TIM_AUTORELOAD_PRELOAD_DISABLE;
 8001a34:	4b19      	ldr	r3, [pc, #100]	; (8001a9c <MX_TIM3_Init+0xa8>)
 8001a36:	2200      	movs	r2, #0
 8001a38:	619a      	str	r2, [r3, #24]
  if (HAL_TIM_PWM_Init(&htim3) != HAL_OK)
 8001a3a:	4818      	ldr	r0, [pc, #96]	; (8001a9c <MX_TIM3_Init+0xa8>)
 8001a3c:	f002 ff61 	bl	8004902 <HAL_TIM_PWM_Init>
 8001a40:	4603      	mov	r3, r0
 8001a42:	2b00      	cmp	r3, #0
 8001a44:	d001      	beq.n	8001a4a <MX_TIM3_Init+0x56>
  {
    Error_Handler();
 8001a46:	f000 f9cd 	bl	8001de4 <Error_Handler>
  }
  sMasterConfig.MasterOutputTrigger = TIM_TRGO_RESET;
 8001a4a:	2300      	movs	r3, #0
 8001a4c:	623b      	str	r3, [r7, #32]
  sMasterConfig.MasterSlaveMode = TIM_MASTERSLAVEMODE_DISABLE;
 8001a4e:	2300      	movs	r3, #0
 8001a50:	627b      	str	r3, [r7, #36]	; 0x24
  if (HAL_TIMEx_MasterConfigSynchronization(&htim3, &sMasterConfig) != HAL_OK)
 8001a52:	f107 0320 	add.w	r3, r7, #32
 8001a56:	4619      	mov	r1, r3
 8001a58:	4810      	ldr	r0, [pc, #64]	; (8001a9c <MX_TIM3_Init+0xa8>)
 8001a5a:	f003 fc49 	bl	80052f0 <HAL_TIMEx_MasterConfigSynchronization>
 8001a5e:	4603      	mov	r3, r0
 8001a60:	2b00      	cmp	r3, #0
 8001a62:	d001      	beq.n	8001a68 <MX_TIM3_Init+0x74>
  {
    Error_Handler();
 8001a64:	f000 f9be 	bl	8001de4 <Error_Handler>
  }
  sConfigOC.OCMode = TIM_OCMODE_PWM1;
 8001a68:	2360      	movs	r3, #96	; 0x60
 8001a6a:	607b      	str	r3, [r7, #4]
  sConfigOC.Pulse = 0;
 8001a6c:	2300      	movs	r3, #0
 8001a6e:	60bb      	str	r3, [r7, #8]
  sConfigOC.OCPolarity = TIM_OCPOLARITY_HIGH;
 8001a70:	2300      	movs	r3, #0
 8001a72:	60fb      	str	r3, [r7, #12]
  sConfigOC.OCFastMode = TIM_OCFAST_DISABLE;
 8001a74:	2300      	movs	r3, #0
 8001a76:	617b      	str	r3, [r7, #20]
  if (HAL_TIM_PWM_ConfigChannel(&htim3, &sConfigOC, TIM_CHANNEL_2) != HAL_OK)
 8001a78:	1d3b      	adds	r3, r7, #4
 8001a7a:	2204      	movs	r2, #4
 8001a7c:	4619      	mov	r1, r3
 8001a7e:	4807      	ldr	r0, [pc, #28]	; (8001a9c <MX_TIM3_Init+0xa8>)
 8001a80:	f002 ffa8 	bl	80049d4 <HAL_TIM_PWM_ConfigChannel>
 8001a84:	4603      	mov	r3, r0
 8001a86:	2b00      	cmp	r3, #0
 8001a88:	d001      	beq.n	8001a8e <MX_TIM3_Init+0x9a>
  {
    Error_Handler();
 8001a8a:	f000 f9ab 	bl	8001de4 <Error_Handler>
  }
  /* USER CODE BEGIN TIM3_Init 2 */

  /* USER CODE END TIM3_Init 2 */
  HAL_TIM_MspPostInit(&htim3);
 8001a8e:	4803      	ldr	r0, [pc, #12]	; (8001a9c <MX_TIM3_Init+0xa8>)
 8001a90:	f000 fae0 	bl	8002054 <HAL_TIM_MspPostInit>

}
 8001a94:	bf00      	nop
 8001a96:	3728      	adds	r7, #40	; 0x28
 8001a98:	46bd      	mov	sp, r7
 8001a9a:	bd80      	pop	{r7, pc}
 8001a9c:	200000a8 	.word	0x200000a8
 8001aa0:	40000400 	.word	0x40000400

08001aa4 <MX_TIM4_Init>:
  * @brief TIM4 Initialization Function
  * @param None
  * @retval None
  */
static void MX_TIM4_Init(void)
{
 8001aa4:	b580      	push	{r7, lr}
 8001aa6:	b08e      	sub	sp, #56	; 0x38
 8001aa8:	af00      	add	r7, sp, #0

  /* USER CODE BEGIN TIM4_Init 0 */

  /* USER CODE END TIM4_Init 0 */

  TIM_ClockConfigTypeDef sClockSourceConfig = {0};
 8001aaa:	f107 0328 	add.w	r3, r7, #40	; 0x28
 8001aae:	2200      	movs	r2, #0
 8001ab0:	601a      	str	r2, [r3, #0]
 8001ab2:	605a      	str	r2, [r3, #4]
 8001ab4:	609a      	str	r2, [r3, #8]
 8001ab6:	60da      	str	r2, [r3, #12]
  TIM_MasterConfigTypeDef sMasterConfig = {0};
 8001ab8:	f107 0320 	add.w	r3, r7, #32
 8001abc:	2200      	movs	r2, #0
 8001abe:	601a      	str	r2, [r3, #0]
 8001ac0:	605a      	str	r2, [r3, #4]
  TIM_OC_InitTypeDef sConfigOC = {0};
 8001ac2:	1d3b      	adds	r3, r7, #4
 8001ac4:	2200      	movs	r2, #0
 8001ac6:	601a      	str	r2, [r3, #0]
 8001ac8:	605a      	str	r2, [r3, #4]
 8001aca:	609a      	str	r2, [r3, #8]
 8001acc:	60da      	str	r2, [r3, #12]
 8001ace:	611a      	str	r2, [r3, #16]
 8001ad0:	615a      	str	r2, [r3, #20]
 8001ad2:	619a      	str	r2, [r3, #24]

  /* USER CODE BEGIN TIM4_Init 1 */

  /* USER CODE END TIM4_Init 1 */
  htim4.Instance = TIM4;
 8001ad4:	4b2c      	ldr	r3, [pc, #176]	; (8001b88 <MX_TIM4_Init+0xe4>)
 8001ad6:	4a2d      	ldr	r2, [pc, #180]	; (8001b8c <MX_TIM4_Init+0xe8>)
 8001ad8:	601a      	str	r2, [r3, #0]
  htim4.Init.Prescaler = 336-1;
 8001ada:	4b2b      	ldr	r3, [pc, #172]	; (8001b88 <MX_TIM4_Init+0xe4>)
 8001adc:	f240 124f 	movw	r2, #335	; 0x14f
 8001ae0:	605a      	str	r2, [r3, #4]
  htim4.Init.CounterMode = TIM_COUNTERMODE_UP;
 8001ae2:	4b29      	ldr	r3, [pc, #164]	; (8001b88 <MX_TIM4_Init+0xe4>)
 8001ae4:	2200      	movs	r2, #0
 8001ae6:	609a      	str	r2, [r3, #8]
  htim4.Init.Period = 100-1;
 8001ae8:	4b27      	ldr	r3, [pc, #156]	; (8001b88 <MX_TIM4_Init+0xe4>)
 8001aea:	2263      	movs	r2, #99	; 0x63
 8001aec:	60da      	str	r2, [r3, #12]
  htim4.Init.ClockDivision = TIM_CLOCKDIVISION_DIV1;
 8001aee:	4b26      	ldr	r3, [pc, #152]	; (8001b88 <MX_TIM4_Init+0xe4>)
 8001af0:	2200      	movs	r2, #0
 8001af2:	611a      	str	r2, [r3, #16]
  htim4.Init.AutoReloadPreload = TIM_AUTORELOAD_PRELOAD_DISABLE;
 8001af4:	4b24      	ldr	r3, [pc, #144]	; (8001b88 <MX_TIM4_Init+0xe4>)
 8001af6:	2200      	movs	r2, #0
 8001af8:	619a      	str	r2, [r3, #24]
  if (HAL_TIM_Base_Init(&htim4) != HAL_OK)
 8001afa:	4823      	ldr	r0, [pc, #140]	; (8001b88 <MX_TIM4_Init+0xe4>)
 8001afc:	f002 fed6 	bl	80048ac <HAL_TIM_Base_Init>
 8001b00:	4603      	mov	r3, r0
 8001b02:	2b00      	cmp	r3, #0
 8001b04:	d001      	beq.n	8001b0a <MX_TIM4_Init+0x66>
  {
    Error_Handler();
 8001b06:	f000 f96d 	bl	8001de4 <Error_Handler>
  }
  sClockSourceConfig.ClockSource = TIM_CLOCKSOURCE_INTERNAL;
 8001b0a:	f44f 5380 	mov.w	r3, #4096	; 0x1000
 8001b0e:	62bb      	str	r3, [r7, #40]	; 0x28
  if (HAL_TIM_ConfigClockSource(&htim4, &sClockSourceConfig) != HAL_OK)
 8001b10:	f107 0328 	add.w	r3, r7, #40	; 0x28
 8001b14:	4619      	mov	r1, r3
 8001b16:	481c      	ldr	r0, [pc, #112]	; (8001b88 <MX_TIM4_Init+0xe4>)
 8001b18:	f003 f822 	bl	8004b60 <HAL_TIM_ConfigClockSource>
 8001b1c:	4603      	mov	r3, r0
 8001b1e:	2b00      	cmp	r3, #0
 8001b20:	d001      	beq.n	8001b26 <MX_TIM4_Init+0x82>
  {
    Error_Handler();
 8001b22:	f000 f95f 	bl	8001de4 <Error_Handler>
  }
  if (HAL_TIM_PWM_Init(&htim4) != HAL_OK)
 8001b26:	4818      	ldr	r0, [pc, #96]	; (8001b88 <MX_TIM4_Init+0xe4>)
 8001b28:	f002 feeb 	bl	8004902 <HAL_TIM_PWM_Init>
 8001b2c:	4603      	mov	r3, r0
 8001b2e:	2b00      	cmp	r3, #0
 8001b30:	d001      	beq.n	8001b36 <MX_TIM4_Init+0x92>
  {
    Error_Handler();
 8001b32:	f000 f957 	bl	8001de4 <Error_Handler>
  }
  sMasterConfig.MasterOutputTrigger = TIM_TRGO_RESET;
 8001b36:	2300      	movs	r3, #0
 8001b38:	623b      	str	r3, [r7, #32]
  sMasterConfig.MasterSlaveMode = TIM_MASTERSLAVEMODE_DISABLE;
 8001b3a:	2300      	movs	r3, #0
 8001b3c:	627b      	str	r3, [r7, #36]	; 0x24
  if (HAL_TIMEx_MasterConfigSynchronization(&htim4, &sMasterConfig) != HAL_OK)
 8001b3e:	f107 0320 	add.w	r3, r7, #32
 8001b42:	4619      	mov	r1, r3
 8001b44:	4810      	ldr	r0, [pc, #64]	; (8001b88 <MX_TIM4_Init+0xe4>)
 8001b46:	f003 fbd3 	bl	80052f0 <HAL_TIMEx_MasterConfigSynchronization>
 8001b4a:	4603      	mov	r3, r0
 8001b4c:	2b00      	cmp	r3, #0
 8001b4e:	d001      	beq.n	8001b54 <MX_TIM4_Init+0xb0>
  {
    Error_Handler();
 8001b50:	f000 f948 	bl	8001de4 <Error_Handler>
  }
  sConfigOC.OCMode = TIM_OCMODE_PWM1;
 8001b54:	2360      	movs	r3, #96	; 0x60
 8001b56:	607b      	str	r3, [r7, #4]
  sConfigOC.Pulse = 0;
 8001b58:	2300      	movs	r3, #0
 8001b5a:	60bb      	str	r3, [r7, #8]
  sConfigOC.OCPolarity = TIM_OCPOLARITY_HIGH;
 8001b5c:	2300      	movs	r3, #0
 8001b5e:	60fb      	str	r3, [r7, #12]
  sConfigOC.OCFastMode = TIM_OCFAST_DISABLE;
 8001b60:	2300      	movs	r3, #0
 8001b62:	617b      	str	r3, [r7, #20]
  if (HAL_TIM_PWM_ConfigChannel(&htim4, &sConfigOC, TIM_CHANNEL_1) != HAL_OK)
 8001b64:	1d3b      	adds	r3, r7, #4
 8001b66:	2200      	movs	r2, #0
 8001b68:	4619      	mov	r1, r3
 8001b6a:	4807      	ldr	r0, [pc, #28]	; (8001b88 <MX_TIM4_Init+0xe4>)
 8001b6c:	f002 ff32 	bl	80049d4 <HAL_TIM_PWM_ConfigChannel>
 8001b70:	4603      	mov	r3, r0
 8001b72:	2b00      	cmp	r3, #0
 8001b74:	d001      	beq.n	8001b7a <MX_TIM4_Init+0xd6>
  {
    Error_Handler();
 8001b76:	f000 f935 	bl	8001de4 <Error_Handler>
  }
  /* USER CODE BEGIN TIM4_Init 2 */

  /* USER CODE END TIM4_Init 2 */
  HAL_TIM_MspPostInit(&htim4);
 8001b7a:	4803      	ldr	r0, [pc, #12]	; (8001b88 <MX_TIM4_Init+0xe4>)
 8001b7c:	f000 fa6a 	bl	8002054 <HAL_TIM_MspPostInit>

}
 8001b80:	bf00      	nop
 8001b82:	3738      	adds	r7, #56	; 0x38
 8001b84:	46bd      	mov	sp, r7
 8001b86:	bd80      	pop	{r7, pc}
 8001b88:	20000068 	.word	0x20000068
 8001b8c:	40000800 	.word	0x40000800

08001b90 <MX_DMA_Init>:

/**
  * Enable DMA controller clock
  */
static void MX_DMA_Init(void)
{
 8001b90:	b580      	push	{r7, lr}
 8001b92:	b082      	sub	sp, #8
 8001b94:	af00      	add	r7, sp, #0

  /* DMA controller clock enable */
  __HAL_RCC_DMA2_CLK_ENABLE();
 8001b96:	2300      	movs	r3, #0
 8001b98:	607b      	str	r3, [r7, #4]
 8001b9a:	4b0c      	ldr	r3, [pc, #48]	; (8001bcc <MX_DMA_Init+0x3c>)
 8001b9c:	6b1b      	ldr	r3, [r3, #48]	; 0x30
 8001b9e:	4a0b      	ldr	r2, [pc, #44]	; (8001bcc <MX_DMA_Init+0x3c>)
 8001ba0:	f443 0380 	orr.w	r3, r3, #4194304	; 0x400000
 8001ba4:	6313      	str	r3, [r2, #48]	; 0x30
 8001ba6:	4b09      	ldr	r3, [pc, #36]	; (8001bcc <MX_DMA_Init+0x3c>)
 8001ba8:	6b1b      	ldr	r3, [r3, #48]	; 0x30
 8001baa:	f403 0380 	and.w	r3, r3, #4194304	; 0x400000
 8001bae:	607b      	str	r3, [r7, #4]
 8001bb0:	687b      	ldr	r3, [r7, #4]

  /* DMA interrupt init */
  /* DMA2_Stream0_IRQn interrupt configuration */
  HAL_NVIC_SetPriority(DMA2_Stream0_IRQn, 0, 0);
 8001bb2:	2200      	movs	r2, #0
 8001bb4:	2100      	movs	r1, #0
 8001bb6:	2038      	movs	r0, #56	; 0x38
 8001bb8:	f001 fa53 	bl	8003062 <HAL_NVIC_SetPriority>
  HAL_NVIC_EnableIRQ(DMA2_Stream0_IRQn);
 8001bbc:	2038      	movs	r0, #56	; 0x38
 8001bbe:	f001 fa6c 	bl	800309a <HAL_NVIC_EnableIRQ>

}
 8001bc2:	bf00      	nop
 8001bc4:	3708      	adds	r7, #8
 8001bc6:	46bd      	mov	sp, r7
 8001bc8:	bd80      	pop	{r7, pc}
 8001bca:	bf00      	nop
 8001bcc:	40023800 	.word	0x40023800

08001bd0 <MX_GPIO_Init>:
  * @brief GPIO Initialization Function
  * @param None
  * @retval None
  */
static void MX_GPIO_Init(void)
{
 8001bd0:	b580      	push	{r7, lr}
 8001bd2:	b08c      	sub	sp, #48	; 0x30
 8001bd4:	af00      	add	r7, sp, #0
  GPIO_InitTypeDef GPIO_InitStruct = {0};
 8001bd6:	f107 031c 	add.w	r3, r7, #28
 8001bda:	2200      	movs	r2, #0
 8001bdc:	601a      	str	r2, [r3, #0]
 8001bde:	605a      	str	r2, [r3, #4]
 8001be0:	609a      	str	r2, [r3, #8]
 8001be2:	60da      	str	r2, [r3, #12]
 8001be4:	611a      	str	r2, [r3, #16]

  /* GPIO Ports Clock Enable */
  __HAL_RCC_GPIOH_CLK_ENABLE();
 8001be6:	2300      	movs	r3, #0
 8001be8:	61bb      	str	r3, [r7, #24]
 8001bea:	4b77      	ldr	r3, [pc, #476]	; (8001dc8 <MX_GPIO_Init+0x1f8>)
 8001bec:	6b1b      	ldr	r3, [r3, #48]	; 0x30
 8001bee:	4a76      	ldr	r2, [pc, #472]	; (8001dc8 <MX_GPIO_Init+0x1f8>)
 8001bf0:	f043 0380 	orr.w	r3, r3, #128	; 0x80
 8001bf4:	6313      	str	r3, [r2, #48]	; 0x30
 8001bf6:	4b74      	ldr	r3, [pc, #464]	; (8001dc8 <MX_GPIO_Init+0x1f8>)
 8001bf8:	6b1b      	ldr	r3, [r3, #48]	; 0x30
 8001bfa:	f003 0380 	and.w	r3, r3, #128	; 0x80
 8001bfe:	61bb      	str	r3, [r7, #24]
 8001c00:	69bb      	ldr	r3, [r7, #24]
  __HAL_RCC_GPIOC_CLK_ENABLE();
 8001c02:	2300      	movs	r3, #0
 8001c04:	617b      	str	r3, [r7, #20]
 8001c06:	4b70      	ldr	r3, [pc, #448]	; (8001dc8 <MX_GPIO_Init+0x1f8>)
 8001c08:	6b1b      	ldr	r3, [r3, #48]	; 0x30
 8001c0a:	4a6f      	ldr	r2, [pc, #444]	; (8001dc8 <MX_GPIO_Init+0x1f8>)
 8001c0c:	f043 0304 	orr.w	r3, r3, #4
 8001c10:	6313      	str	r3, [r2, #48]	; 0x30
 8001c12:	4b6d      	ldr	r3, [pc, #436]	; (8001dc8 <MX_GPIO_Init+0x1f8>)
 8001c14:	6b1b      	ldr	r3, [r3, #48]	; 0x30
 8001c16:	f003 0304 	and.w	r3, r3, #4
 8001c1a:	617b      	str	r3, [r7, #20]
 8001c1c:	697b      	ldr	r3, [r7, #20]
  __HAL_RCC_GPIOA_CLK_ENABLE();
 8001c1e:	2300      	movs	r3, #0
 8001c20:	613b      	str	r3, [r7, #16]
 8001c22:	4b69      	ldr	r3, [pc, #420]	; (8001dc8 <MX_GPIO_Init+0x1f8>)
 8001c24:	6b1b      	ldr	r3, [r3, #48]	; 0x30
 8001c26:	4a68      	ldr	r2, [pc, #416]	; (8001dc8 <MX_GPIO_Init+0x1f8>)
 8001c28:	f043 0301 	orr.w	r3, r3, #1
 8001c2c:	6313      	str	r3, [r2, #48]	; 0x30
 8001c2e:	4b66      	ldr	r3, [pc, #408]	; (8001dc8 <MX_GPIO_Init+0x1f8>)
 8001c30:	6b1b      	ldr	r3, [r3, #48]	; 0x30
 8001c32:	f003 0301 	and.w	r3, r3, #1
 8001c36:	613b      	str	r3, [r7, #16]
 8001c38:	693b      	ldr	r3, [r7, #16]
  __HAL_RCC_GPIOB_CLK_ENABLE();
 8001c3a:	2300      	movs	r3, #0
 8001c3c:	60fb      	str	r3, [r7, #12]
 8001c3e:	4b62      	ldr	r3, [pc, #392]	; (8001dc8 <MX_GPIO_Init+0x1f8>)
 8001c40:	6b1b      	ldr	r3, [r3, #48]	; 0x30
 8001c42:	4a61      	ldr	r2, [pc, #388]	; (8001dc8 <MX_GPIO_Init+0x1f8>)
 8001c44:	f043 0302 	orr.w	r3, r3, #2
 8001c48:	6313      	str	r3, [r2, #48]	; 0x30
 8001c4a:	4b5f      	ldr	r3, [pc, #380]	; (8001dc8 <MX_GPIO_Init+0x1f8>)
 8001c4c:	6b1b      	ldr	r3, [r3, #48]	; 0x30
 8001c4e:	f003 0302 	and.w	r3, r3, #2
 8001c52:	60fb      	str	r3, [r7, #12]
 8001c54:	68fb      	ldr	r3, [r7, #12]
  __HAL_RCC_GPIOE_CLK_ENABLE();
 8001c56:	2300      	movs	r3, #0
 8001c58:	60bb      	str	r3, [r7, #8]
 8001c5a:	4b5b      	ldr	r3, [pc, #364]	; (8001dc8 <MX_GPIO_Init+0x1f8>)
 8001c5c:	6b1b      	ldr	r3, [r3, #48]	; 0x30
 8001c5e:	4a5a      	ldr	r2, [pc, #360]	; (8001dc8 <MX_GPIO_Init+0x1f8>)
 8001c60:	f043 0310 	orr.w	r3, r3, #16
 8001c64:	6313      	str	r3, [r2, #48]	; 0x30
 8001c66:	4b58      	ldr	r3, [pc, #352]	; (8001dc8 <MX_GPIO_Init+0x1f8>)
 8001c68:	6b1b      	ldr	r3, [r3, #48]	; 0x30
 8001c6a:	f003 0310 	and.w	r3, r3, #16
 8001c6e:	60bb      	str	r3, [r7, #8]
 8001c70:	68bb      	ldr	r3, [r7, #8]
  __HAL_RCC_GPIOD_CLK_ENABLE();
 8001c72:	2300      	movs	r3, #0
 8001c74:	607b      	str	r3, [r7, #4]
 8001c76:	4b54      	ldr	r3, [pc, #336]	; (8001dc8 <MX_GPIO_Init+0x1f8>)
 8001c78:	6b1b      	ldr	r3, [r3, #48]	; 0x30
 8001c7a:	4a53      	ldr	r2, [pc, #332]	; (8001dc8 <MX_GPIO_Init+0x1f8>)
 8001c7c:	f043 0308 	orr.w	r3, r3, #8
 8001c80:	6313      	str	r3, [r2, #48]	; 0x30
 8001c82:	4b51      	ldr	r3, [pc, #324]	; (8001dc8 <MX_GPIO_Init+0x1f8>)
 8001c84:	6b1b      	ldr	r3, [r3, #48]	; 0x30
 8001c86:	f003 0308 	and.w	r3, r3, #8
 8001c8a:	607b      	str	r3, [r7, #4]
 8001c8c:	687b      	ldr	r3, [r7, #4]

  /*Configure GPIO pin Output Level */
  HAL_GPIO_WritePin(GPIOC, GPIO_PIN_5|GPIO_PIN_8, GPIO_PIN_RESET);
 8001c8e:	2200      	movs	r2, #0
 8001c90:	f44f 7190 	mov.w	r1, #288	; 0x120
 8001c94:	484d      	ldr	r0, [pc, #308]	; (8001dcc <MX_GPIO_Init+0x1fc>)
 8001c96:	f001 ff65 	bl	8003b64 <HAL_GPIO_WritePin>

  /*Configure GPIO pin Output Level */
  HAL_GPIO_WritePin(GPIOB, GPIO_PIN_1, GPIO_PIN_RESET);
 8001c9a:	2200      	movs	r2, #0
 8001c9c:	2102      	movs	r1, #2
 8001c9e:	484c      	ldr	r0, [pc, #304]	; (8001dd0 <MX_GPIO_Init+0x200>)
 8001ca0:	f001 ff60 	bl	8003b64 <HAL_GPIO_WritePin>

  /*Configure GPIO pin Output Level */
  HAL_GPIO_WritePin(GPIOE, GPIO_PIN_7|GPIO_PIN_1, GPIO_PIN_RESET);
 8001ca4:	2200      	movs	r2, #0
 8001ca6:	2182      	movs	r1, #130	; 0x82
 8001ca8:	484a      	ldr	r0, [pc, #296]	; (8001dd4 <MX_GPIO_Init+0x204>)
 8001caa:	f001 ff5b 	bl	8003b64 <HAL_GPIO_WritePin>

  /*Configure GPIO pin Output Level */
  HAL_GPIO_WritePin(GPIOD, GPIO_PIN_13|GPIO_PIN_14|GPIO_PIN_15, GPIO_PIN_RESET);
 8001cae:	2200      	movs	r2, #0
 8001cb0:	f44f 4160 	mov.w	r1, #57344	; 0xe000
 8001cb4:	4848      	ldr	r0, [pc, #288]	; (8001dd8 <MX_GPIO_Init+0x208>)
 8001cb6:	f001 ff55 	bl	8003b64 <HAL_GPIO_WritePin>

  /*Configure GPIO pin Output Level */
  HAL_GPIO_WritePin(GPIOA, GPIO_PIN_10, GPIO_PIN_RESET);
 8001cba:	2200      	movs	r2, #0
 8001cbc:	f44f 6180 	mov.w	r1, #1024	; 0x400
 8001cc0:	4846      	ldr	r0, [pc, #280]	; (8001ddc <MX_GPIO_Init+0x20c>)
 8001cc2:	f001 ff4f 	bl	8003b64 <HAL_GPIO_WritePin>

  /*Configure GPIO pin : PC0 */
  GPIO_InitStruct.Pin = GPIO_PIN_0;
 8001cc6:	2301      	movs	r3, #1
 8001cc8:	61fb      	str	r3, [r7, #28]
  GPIO_InitStruct.Mode = GPIO_MODE_IT_RISING;
 8001cca:	4b45      	ldr	r3, [pc, #276]	; (8001de0 <MX_GPIO_Init+0x210>)
 8001ccc:	623b      	str	r3, [r7, #32]
  GPIO_InitStruct.Pull = GPIO_PULLUP;
 8001cce:	2301      	movs	r3, #1
 8001cd0:	627b      	str	r3, [r7, #36]	; 0x24
  HAL_GPIO_Init(GPIOC, &GPIO_InitStruct);
 8001cd2:	f107 031c 	add.w	r3, r7, #28
 8001cd6:	4619      	mov	r1, r3
 8001cd8:	483c      	ldr	r0, [pc, #240]	; (8001dcc <MX_GPIO_Init+0x1fc>)
 8001cda:	f001 fd91 	bl	8003800 <HAL_GPIO_Init>

  /*Configure GPIO pin : PA2 */
  GPIO_InitStruct.Pin = GPIO_PIN_2;
 8001cde:	2304      	movs	r3, #4
 8001ce0:	61fb      	str	r3, [r7, #28]
  GPIO_InitStruct.Mode = GPIO_MODE_IT_RISING;
 8001ce2:	4b3f      	ldr	r3, [pc, #252]	; (8001de0 <MX_GPIO_Init+0x210>)
 8001ce4:	623b      	str	r3, [r7, #32]
  GPIO_InitStruct.Pull = GPIO_PULLDOWN;
 8001ce6:	2302      	movs	r3, #2
 8001ce8:	627b      	str	r3, [r7, #36]	; 0x24
  HAL_GPIO_Init(GPIOA, &GPIO_InitStruct);
 8001cea:	f107 031c 	add.w	r3, r7, #28
 8001cee:	4619      	mov	r1, r3
 8001cf0:	483a      	ldr	r0, [pc, #232]	; (8001ddc <MX_GPIO_Init+0x20c>)
 8001cf2:	f001 fd85 	bl	8003800 <HAL_GPIO_Init>

  /*Configure GPIO pins : PC5 PC8 */
  GPIO_InitStruct.Pin = GPIO_PIN_5|GPIO_PIN_8;
 8001cf6:	f44f 7390 	mov.w	r3, #288	; 0x120
 8001cfa:	61fb      	str	r3, [r7, #28]
  GPIO_InitStruct.Mode = GPIO_MODE_OUTPUT_PP;
 8001cfc:	2301      	movs	r3, #1
 8001cfe:	623b      	str	r3, [r7, #32]
  GPIO_InitStruct.Pull = GPIO_NOPULL;
 8001d00:	2300      	movs	r3, #0
 8001d02:	627b      	str	r3, [r7, #36]	; 0x24
  GPIO_InitStruct.Speed = GPIO_SPEED_FREQ_LOW;
 8001d04:	2300      	movs	r3, #0
 8001d06:	62bb      	str	r3, [r7, #40]	; 0x28
  HAL_GPIO_Init(GPIOC, &GPIO_InitStruct);
 8001d08:	f107 031c 	add.w	r3, r7, #28
 8001d0c:	4619      	mov	r1, r3
 8001d0e:	482f      	ldr	r0, [pc, #188]	; (8001dcc <MX_GPIO_Init+0x1fc>)
 8001d10:	f001 fd76 	bl	8003800 <HAL_GPIO_Init>

  /*Configure GPIO pin : PB1 */
  GPIO_InitStruct.Pin = GPIO_PIN_1;
 8001d14:	2302      	movs	r3, #2
 8001d16:	61fb      	str	r3, [r7, #28]
  GPIO_InitStruct.Mode = GPIO_MODE_OUTPUT_PP;
 8001d18:	2301      	movs	r3, #1
 8001d1a:	623b      	str	r3, [r7, #32]
  GPIO_InitStruct.Pull = GPIO_NOPULL;
 8001d1c:	2300      	movs	r3, #0
 8001d1e:	627b      	str	r3, [r7, #36]	; 0x24
  GPIO_InitStruct.Speed = GPIO_SPEED_FREQ_LOW;
 8001d20:	2300      	movs	r3, #0
 8001d22:	62bb      	str	r3, [r7, #40]	; 0x28
  HAL_GPIO_Init(GPIOB, &GPIO_InitStruct);
 8001d24:	f107 031c 	add.w	r3, r7, #28
 8001d28:	4619      	mov	r1, r3
 8001d2a:	4829      	ldr	r0, [pc, #164]	; (8001dd0 <MX_GPIO_Init+0x200>)
 8001d2c:	f001 fd68 	bl	8003800 <HAL_GPIO_Init>

  /*Configure GPIO pins : PE7 PE1 */
  GPIO_InitStruct.Pin = GPIO_PIN_7|GPIO_PIN_1;
 8001d30:	2382      	movs	r3, #130	; 0x82
 8001d32:	61fb      	str	r3, [r7, #28]
  GPIO_InitStruct.Mode = GPIO_MODE_OUTPUT_PP;
 8001d34:	2301      	movs	r3, #1
 8001d36:	623b      	str	r3, [r7, #32]
  GPIO_InitStruct.Pull = GPIO_NOPULL;
 8001d38:	2300      	movs	r3, #0
 8001d3a:	627b      	str	r3, [r7, #36]	; 0x24
  GPIO_InitStruct.Speed = GPIO_SPEED_FREQ_LOW;
 8001d3c:	2300      	movs	r3, #0
 8001d3e:	62bb      	str	r3, [r7, #40]	; 0x28
  HAL_GPIO_Init(GPIOE, &GPIO_InitStruct);
 8001d40:	f107 031c 	add.w	r3, r7, #28
 8001d44:	4619      	mov	r1, r3
 8001d46:	4823      	ldr	r0, [pc, #140]	; (8001dd4 <MX_GPIO_Init+0x204>)
 8001d48:	f001 fd5a 	bl	8003800 <HAL_GPIO_Init>

  /*Configure GPIO pins : PD13 PD14 PD15 */
  GPIO_InitStruct.Pin = GPIO_PIN_13|GPIO_PIN_14|GPIO_PIN_15;
 8001d4c:	f44f 4360 	mov.w	r3, #57344	; 0xe000
 8001d50:	61fb      	str	r3, [r7, #28]
  GPIO_InitStruct.Mode = GPIO_MODE_OUTPUT_PP;
 8001d52:	2301      	movs	r3, #1
 8001d54:	623b      	str	r3, [r7, #32]
  GPIO_InitStruct.Pull = GPIO_NOPULL;
 8001d56:	2300      	movs	r3, #0
 8001d58:	627b      	str	r3, [r7, #36]	; 0x24
  GPIO_InitStruct.Speed = GPIO_SPEED_FREQ_LOW;
 8001d5a:	2300      	movs	r3, #0
 8001d5c:	62bb      	str	r3, [r7, #40]	; 0x28
  HAL_GPIO_Init(GPIOD, &GPIO_InitStruct);
 8001d5e:	f107 031c 	add.w	r3, r7, #28
 8001d62:	4619      	mov	r1, r3
 8001d64:	481c      	ldr	r0, [pc, #112]	; (8001dd8 <MX_GPIO_Init+0x208>)
 8001d66:	f001 fd4b 	bl	8003800 <HAL_GPIO_Init>

  /*Configure GPIO pin : PA10 */
  GPIO_InitStruct.Pin = GPIO_PIN_10;
 8001d6a:	f44f 6380 	mov.w	r3, #1024	; 0x400
 8001d6e:	61fb      	str	r3, [r7, #28]
  GPIO_InitStruct.Mode = GPIO_MODE_OUTPUT_PP;
 8001d70:	2301      	movs	r3, #1
 8001d72:	623b      	str	r3, [r7, #32]
  GPIO_InitStruct.Pull = GPIO_NOPULL;
 8001d74:	2300      	movs	r3, #0
 8001d76:	627b      	str	r3, [r7, #36]	; 0x24
  GPIO_InitStruct.Speed = GPIO_SPEED_FREQ_LOW;
 8001d78:	2300      	movs	r3, #0
 8001d7a:	62bb      	str	r3, [r7, #40]	; 0x28
  HAL_GPIO_Init(GPIOA, &GPIO_InitStruct);
 8001d7c:	f107 031c 	add.w	r3, r7, #28
 8001d80:	4619      	mov	r1, r3
 8001d82:	4816      	ldr	r0, [pc, #88]	; (8001ddc <MX_GPIO_Init+0x20c>)
 8001d84:	f001 fd3c 	bl	8003800 <HAL_GPIO_Init>

  /*Configure GPIO pin : PE0 */
  GPIO_InitStruct.Pin = GPIO_PIN_0;
 8001d88:	2301      	movs	r3, #1
 8001d8a:	61fb      	str	r3, [r7, #28]
  GPIO_InitStruct.Mode = GPIO_MODE_INPUT;
 8001d8c:	2300      	movs	r3, #0
 8001d8e:	623b      	str	r3, [r7, #32]
  GPIO_InitStruct.Pull = GPIO_NOPULL;
 8001d90:	2300      	movs	r3, #0
 8001d92:	627b      	str	r3, [r7, #36]	; 0x24
  HAL_GPIO_Init(GPIOE, &GPIO_InitStruct);
 8001d94:	f107 031c 	add.w	r3, r7, #28
 8001d98:	4619      	mov	r1, r3
 8001d9a:	480e      	ldr	r0, [pc, #56]	; (8001dd4 <MX_GPIO_Init+0x204>)
 8001d9c:	f001 fd30 	bl	8003800 <HAL_GPIO_Init>

  /* EXTI interrupt init*/
  HAL_NVIC_SetPriority(EXTI0_IRQn, 0, 0);
 8001da0:	2200      	movs	r2, #0
 8001da2:	2100      	movs	r1, #0
 8001da4:	2006      	movs	r0, #6
 8001da6:	f001 f95c 	bl	8003062 <HAL_NVIC_SetPriority>
  HAL_NVIC_EnableIRQ(EXTI0_IRQn);
 8001daa:	2006      	movs	r0, #6
 8001dac:	f001 f975 	bl	800309a <HAL_NVIC_EnableIRQ>

  HAL_NVIC_SetPriority(EXTI2_IRQn, 0, 0);
 8001db0:	2200      	movs	r2, #0
 8001db2:	2100      	movs	r1, #0
 8001db4:	2008      	movs	r0, #8
 8001db6:	f001 f954 	bl	8003062 <HAL_NVIC_SetPriority>
  HAL_NVIC_EnableIRQ(EXTI2_IRQn);
 8001dba:	2008      	movs	r0, #8
 8001dbc:	f001 f96d 	bl	800309a <HAL_NVIC_EnableIRQ>

}
 8001dc0:	bf00      	nop
 8001dc2:	3730      	adds	r7, #48	; 0x30
 8001dc4:	46bd      	mov	sp, r7
 8001dc6:	bd80      	pop	{r7, pc}
 8001dc8:	40023800 	.word	0x40023800
 8001dcc:	40020800 	.word	0x40020800
 8001dd0:	40020400 	.word	0x40020400
 8001dd4:	40021000 	.word	0x40021000
 8001dd8:	40020c00 	.word	0x40020c00
 8001ddc:	40020000 	.word	0x40020000
 8001de0:	10110000 	.word	0x10110000

08001de4 <Error_Handler>:
/**
  * @brief  This function is executed in case of error occurrence.
  * @retval None
  */
void Error_Handler(void)
{
 8001de4:	b480      	push	{r7}
 8001de6:	af00      	add	r7, sp, #0
  \details Disables IRQ interrupts by setting the I-bit in the CPSR.
           Can only be executed in Privileged modes.
 */
__STATIC_FORCEINLINE void __disable_irq(void)
{
  __ASM volatile ("cpsid i" : : : "memory");
 8001de8:	b672      	cpsid	i
  /* USER CODE BEGIN Error_Handler_Debug */
  /* User can add his own implementation to report the HAL error return state */
  __disable_irq();
  while (1)
 8001dea:	e7fe      	b.n	8001dea <Error_Handler+0x6>

08001dec <HAL_MspInit>:
void HAL_TIM_MspPostInit(TIM_HandleTypeDef *htim);
                                        /**
  * Initializes the Global MSP.
  */
void HAL_MspInit(void)
{
 8001dec:	b580      	push	{r7, lr}
 8001dee:	b082      	sub	sp, #8
 8001df0:	af00      	add	r7, sp, #0
  /* USER CODE BEGIN MspInit 0 */

  /* USER CODE END MspInit 0 */

  __HAL_RCC_SYSCFG_CLK_ENABLE();
 8001df2:	2300      	movs	r3, #0
 8001df4:	607b      	str	r3, [r7, #4]
 8001df6:	4b10      	ldr	r3, [pc, #64]	; (8001e38 <HAL_MspInit+0x4c>)
 8001df8:	6c5b      	ldr	r3, [r3, #68]	; 0x44
 8001dfa:	4a0f      	ldr	r2, [pc, #60]	; (8001e38 <HAL_MspInit+0x4c>)
 8001dfc:	f443 4380 	orr.w	r3, r3, #16384	; 0x4000
 8001e00:	6453      	str	r3, [r2, #68]	; 0x44
 8001e02:	4b0d      	ldr	r3, [pc, #52]	; (8001e38 <HAL_MspInit+0x4c>)
 8001e04:	6c5b      	ldr	r3, [r3, #68]	; 0x44
 8001e06:	f403 4380 	and.w	r3, r3, #16384	; 0x4000
 8001e0a:	607b      	str	r3, [r7, #4]
 8001e0c:	687b      	ldr	r3, [r7, #4]
  __HAL_RCC_PWR_CLK_ENABLE();
 8001e0e:	2300      	movs	r3, #0
 8001e10:	603b      	str	r3, [r7, #0]
 8001e12:	4b09      	ldr	r3, [pc, #36]	; (8001e38 <HAL_MspInit+0x4c>)
 8001e14:	6c1b      	ldr	r3, [r3, #64]	; 0x40
 8001e16:	4a08      	ldr	r2, [pc, #32]	; (8001e38 <HAL_MspInit+0x4c>)
 8001e18:	f043 5380 	orr.w	r3, r3, #268435456	; 0x10000000
 8001e1c:	6413      	str	r3, [r2, #64]	; 0x40
 8001e1e:	4b06      	ldr	r3, [pc, #24]	; (8001e38 <HAL_MspInit+0x4c>)
 8001e20:	6c1b      	ldr	r3, [r3, #64]	; 0x40
 8001e22:	f003 5380 	and.w	r3, r3, #268435456	; 0x10000000
 8001e26:	603b      	str	r3, [r7, #0]
 8001e28:	683b      	ldr	r3, [r7, #0]

  HAL_NVIC_SetPriorityGrouping(NVIC_PRIORITYGROUP_0);
 8001e2a:	2007      	movs	r0, #7
 8001e2c:	f001 f90e 	bl	800304c <HAL_NVIC_SetPriorityGrouping>
  /* System interrupt init*/

  /* USER CODE BEGIN MspInit 1 */

  /* USER CODE END MspInit 1 */
}
 8001e30:	bf00      	nop
 8001e32:	3708      	adds	r7, #8
 8001e34:	46bd      	mov	sp, r7
 8001e36:	bd80      	pop	{r7, pc}
 8001e38:	40023800 	.word	0x40023800

08001e3c <HAL_ADC_MspInit>:
* This function configures the hardware resources used in this example
* @param hadc: ADC handle pointer
* @retval None
*/
void HAL_ADC_MspInit(ADC_HandleTypeDef* hadc)
{
 8001e3c:	b580      	push	{r7, lr}
 8001e3e:	b08a      	sub	sp, #40	; 0x28
 8001e40:	af00      	add	r7, sp, #0
 8001e42:	6078      	str	r0, [r7, #4]
  GPIO_InitTypeDef GPIO_InitStruct = {0};
 8001e44:	f107 0314 	add.w	r3, r7, #20
 8001e48:	2200      	movs	r2, #0
 8001e4a:	601a      	str	r2, [r3, #0]
 8001e4c:	605a      	str	r2, [r3, #4]
 8001e4e:	609a      	str	r2, [r3, #8]
 8001e50:	60da      	str	r2, [r3, #12]
 8001e52:	611a      	str	r2, [r3, #16]
  if(hadc->Instance==ADC1)
 8001e54:	687b      	ldr	r3, [r7, #4]
 8001e56:	681b      	ldr	r3, [r3, #0]
 8001e58:	4a33      	ldr	r2, [pc, #204]	; (8001f28 <HAL_ADC_MspInit+0xec>)
 8001e5a:	4293      	cmp	r3, r2
 8001e5c:	d15f      	bne.n	8001f1e <HAL_ADC_MspInit+0xe2>
  {
  /* USER CODE BEGIN ADC1_MspInit 0 */

  /* USER CODE END ADC1_MspInit 0 */
    /* Peripheral clock enable */
    __HAL_RCC_ADC1_CLK_ENABLE();
 8001e5e:	2300      	movs	r3, #0
 8001e60:	613b      	str	r3, [r7, #16]
 8001e62:	4b32      	ldr	r3, [pc, #200]	; (8001f2c <HAL_ADC_MspInit+0xf0>)
 8001e64:	6c5b      	ldr	r3, [r3, #68]	; 0x44
 8001e66:	4a31      	ldr	r2, [pc, #196]	; (8001f2c <HAL_ADC_MspInit+0xf0>)
 8001e68:	f443 7380 	orr.w	r3, r3, #256	; 0x100
 8001e6c:	6453      	str	r3, [r2, #68]	; 0x44
 8001e6e:	4b2f      	ldr	r3, [pc, #188]	; (8001f2c <HAL_ADC_MspInit+0xf0>)
 8001e70:	6c5b      	ldr	r3, [r3, #68]	; 0x44
 8001e72:	f403 7380 	and.w	r3, r3, #256	; 0x100
 8001e76:	613b      	str	r3, [r7, #16]
 8001e78:	693b      	ldr	r3, [r7, #16]

    __HAL_RCC_GPIOA_CLK_ENABLE();
 8001e7a:	2300      	movs	r3, #0
 8001e7c:	60fb      	str	r3, [r7, #12]
 8001e7e:	4b2b      	ldr	r3, [pc, #172]	; (8001f2c <HAL_ADC_MspInit+0xf0>)
 8001e80:	6b1b      	ldr	r3, [r3, #48]	; 0x30
 8001e82:	4a2a      	ldr	r2, [pc, #168]	; (8001f2c <HAL_ADC_MspInit+0xf0>)
 8001e84:	f043 0301 	orr.w	r3, r3, #1
 8001e88:	6313      	str	r3, [r2, #48]	; 0x30
 8001e8a:	4b28      	ldr	r3, [pc, #160]	; (8001f2c <HAL_ADC_MspInit+0xf0>)
 8001e8c:	6b1b      	ldr	r3, [r3, #48]	; 0x30
 8001e8e:	f003 0301 	and.w	r3, r3, #1
 8001e92:	60fb      	str	r3, [r7, #12]
 8001e94:	68fb      	ldr	r3, [r7, #12]
    /**ADC1 GPIO Configuration
    PA1     ------> ADC1_IN1
    */
    GPIO_InitStruct.Pin = GPIO_PIN_1;
 8001e96:	2302      	movs	r3, #2
 8001e98:	617b      	str	r3, [r7, #20]
    GPIO_InitStruct.Mode = GPIO_MODE_ANALOG;
 8001e9a:	2303      	movs	r3, #3
 8001e9c:	61bb      	str	r3, [r7, #24]
    GPIO_InitStruct.Pull = GPIO_NOPULL;
 8001e9e:	2300      	movs	r3, #0
 8001ea0:	61fb      	str	r3, [r7, #28]
    HAL_GPIO_Init(GPIOA, &GPIO_InitStruct);
 8001ea2:	f107 0314 	add.w	r3, r7, #20
 8001ea6:	4619      	mov	r1, r3
 8001ea8:	4821      	ldr	r0, [pc, #132]	; (8001f30 <HAL_ADC_MspInit+0xf4>)
 8001eaa:	f001 fca9 	bl	8003800 <HAL_GPIO_Init>

    /* ADC1 DMA Init */
    /* ADC1 Init */
    hdma_adc1.Instance = DMA2_Stream0;
 8001eae:	4b21      	ldr	r3, [pc, #132]	; (8001f34 <HAL_ADC_MspInit+0xf8>)
 8001eb0:	4a21      	ldr	r2, [pc, #132]	; (8001f38 <HAL_ADC_MspInit+0xfc>)
 8001eb2:	601a      	str	r2, [r3, #0]
    hdma_adc1.Init.Channel = DMA_CHANNEL_0;
 8001eb4:	4b1f      	ldr	r3, [pc, #124]	; (8001f34 <HAL_ADC_MspInit+0xf8>)
 8001eb6:	2200      	movs	r2, #0
 8001eb8:	605a      	str	r2, [r3, #4]
    hdma_adc1.Init.Direction = DMA_PERIPH_TO_MEMORY;
 8001eba:	4b1e      	ldr	r3, [pc, #120]	; (8001f34 <HAL_ADC_MspInit+0xf8>)
 8001ebc:	2200      	movs	r2, #0
 8001ebe:	609a      	str	r2, [r3, #8]
    hdma_adc1.Init.PeriphInc = DMA_PINC_DISABLE;
 8001ec0:	4b1c      	ldr	r3, [pc, #112]	; (8001f34 <HAL_ADC_MspInit+0xf8>)
 8001ec2:	2200      	movs	r2, #0
 8001ec4:	60da      	str	r2, [r3, #12]
    hdma_adc1.Init.MemInc = DMA_MINC_ENABLE;
 8001ec6:	4b1b      	ldr	r3, [pc, #108]	; (8001f34 <HAL_ADC_MspInit+0xf8>)
 8001ec8:	f44f 6280 	mov.w	r2, #1024	; 0x400
 8001ecc:	611a      	str	r2, [r3, #16]
    hdma_adc1.Init.PeriphDataAlignment = DMA_PDATAALIGN_WORD;
 8001ece:	4b19      	ldr	r3, [pc, #100]	; (8001f34 <HAL_ADC_MspInit+0xf8>)
 8001ed0:	f44f 5280 	mov.w	r2, #4096	; 0x1000
 8001ed4:	615a      	str	r2, [r3, #20]
    hdma_adc1.Init.MemDataAlignment = DMA_MDATAALIGN_WORD;
 8001ed6:	4b17      	ldr	r3, [pc, #92]	; (8001f34 <HAL_ADC_MspInit+0xf8>)
 8001ed8:	f44f 4280 	mov.w	r2, #16384	; 0x4000
 8001edc:	619a      	str	r2, [r3, #24]
    hdma_adc1.Init.Mode = DMA_CIRCULAR;
 8001ede:	4b15      	ldr	r3, [pc, #84]	; (8001f34 <HAL_ADC_MspInit+0xf8>)
 8001ee0:	f44f 7280 	mov.w	r2, #256	; 0x100
 8001ee4:	61da      	str	r2, [r3, #28]
    hdma_adc1.Init.Priority = DMA_PRIORITY_LOW;
 8001ee6:	4b13      	ldr	r3, [pc, #76]	; (8001f34 <HAL_ADC_MspInit+0xf8>)
 8001ee8:	2200      	movs	r2, #0
 8001eea:	621a      	str	r2, [r3, #32]
    hdma_adc1.Init.FIFOMode = DMA_FIFOMODE_DISABLE;
 8001eec:	4b11      	ldr	r3, [pc, #68]	; (8001f34 <HAL_ADC_MspInit+0xf8>)
 8001eee:	2200      	movs	r2, #0
 8001ef0:	625a      	str	r2, [r3, #36]	; 0x24
    if (HAL_DMA_Init(&hdma_adc1) != HAL_OK)
 8001ef2:	4810      	ldr	r0, [pc, #64]	; (8001f34 <HAL_ADC_MspInit+0xf8>)
 8001ef4:	f001 f916 	bl	8003124 <HAL_DMA_Init>
 8001ef8:	4603      	mov	r3, r0
 8001efa:	2b00      	cmp	r3, #0
 8001efc:	d001      	beq.n	8001f02 <HAL_ADC_MspInit+0xc6>
    {
      Error_Handler();
 8001efe:	f7ff ff71 	bl	8001de4 <Error_Handler>
    }

    __HAL_LINKDMA(hadc,DMA_Handle,hdma_adc1);
 8001f02:	687b      	ldr	r3, [r7, #4]
 8001f04:	4a0b      	ldr	r2, [pc, #44]	; (8001f34 <HAL_ADC_MspInit+0xf8>)
 8001f06:	639a      	str	r2, [r3, #56]	; 0x38
 8001f08:	4a0a      	ldr	r2, [pc, #40]	; (8001f34 <HAL_ADC_MspInit+0xf8>)
 8001f0a:	687b      	ldr	r3, [r7, #4]
 8001f0c:	6393      	str	r3, [r2, #56]	; 0x38

    /* ADC1 interrupt Init */
    HAL_NVIC_SetPriority(ADC_IRQn, 0, 0);
 8001f0e:	2200      	movs	r2, #0
 8001f10:	2100      	movs	r1, #0
 8001f12:	2012      	movs	r0, #18
 8001f14:	f001 f8a5 	bl	8003062 <HAL_NVIC_SetPriority>
    HAL_NVIC_EnableIRQ(ADC_IRQn);
 8001f18:	2012      	movs	r0, #18
 8001f1a:	f001 f8be 	bl	800309a <HAL_NVIC_EnableIRQ>
  /* USER CODE BEGIN ADC1_MspInit 1 */

  /* USER CODE END ADC1_MspInit 1 */
  }

}
 8001f1e:	bf00      	nop
 8001f20:	3728      	adds	r7, #40	; 0x28
 8001f22:	46bd      	mov	sp, r7
 8001f24:	bd80      	pop	{r7, pc}
 8001f26:	bf00      	nop
 8001f28:	40012000 	.word	0x40012000
 8001f2c:	40023800 	.word	0x40023800
 8001f30:	40020000 	.word	0x40020000
 8001f34:	20000148 	.word	0x20000148
 8001f38:	40026410 	.word	0x40026410

08001f3c <HAL_SPI_MspInit>:
* This function configures the hardware resources used in this example
* @param hspi: SPI handle pointer
* @retval None
*/
void HAL_SPI_MspInit(SPI_HandleTypeDef* hspi)
{
 8001f3c:	b580      	push	{r7, lr}
 8001f3e:	b08a      	sub	sp, #40	; 0x28
 8001f40:	af00      	add	r7, sp, #0
 8001f42:	6078      	str	r0, [r7, #4]
  GPIO_InitTypeDef GPIO_InitStruct = {0};
 8001f44:	f107 0314 	add.w	r3, r7, #20
 8001f48:	2200      	movs	r2, #0
 8001f4a:	601a      	str	r2, [r3, #0]
 8001f4c:	605a      	str	r2, [r3, #4]
 8001f4e:	609a      	str	r2, [r3, #8]
 8001f50:	60da      	str	r2, [r3, #12]
 8001f52:	611a      	str	r2, [r3, #16]
  if(hspi->Instance==SPI1)
 8001f54:	687b      	ldr	r3, [r7, #4]
 8001f56:	681b      	ldr	r3, [r3, #0]
 8001f58:	4a19      	ldr	r2, [pc, #100]	; (8001fc0 <HAL_SPI_MspInit+0x84>)
 8001f5a:	4293      	cmp	r3, r2
 8001f5c:	d12b      	bne.n	8001fb6 <HAL_SPI_MspInit+0x7a>
  {
  /* USER CODE BEGIN SPI1_MspInit 0 */

  /* USER CODE END SPI1_MspInit 0 */
    /* Peripheral clock enable */
    __HAL_RCC_SPI1_CLK_ENABLE();
 8001f5e:	2300      	movs	r3, #0
 8001f60:	613b      	str	r3, [r7, #16]
 8001f62:	4b18      	ldr	r3, [pc, #96]	; (8001fc4 <HAL_SPI_MspInit+0x88>)
 8001f64:	6c5b      	ldr	r3, [r3, #68]	; 0x44
 8001f66:	4a17      	ldr	r2, [pc, #92]	; (8001fc4 <HAL_SPI_MspInit+0x88>)
 8001f68:	f443 5380 	orr.w	r3, r3, #4096	; 0x1000
 8001f6c:	6453      	str	r3, [r2, #68]	; 0x44
 8001f6e:	4b15      	ldr	r3, [pc, #84]	; (8001fc4 <HAL_SPI_MspInit+0x88>)
 8001f70:	6c5b      	ldr	r3, [r3, #68]	; 0x44
 8001f72:	f403 5380 	and.w	r3, r3, #4096	; 0x1000
 8001f76:	613b      	str	r3, [r7, #16]
 8001f78:	693b      	ldr	r3, [r7, #16]

    __HAL_RCC_GPIOA_CLK_ENABLE();
 8001f7a:	2300      	movs	r3, #0
 8001f7c:	60fb      	str	r3, [r7, #12]
 8001f7e:	4b11      	ldr	r3, [pc, #68]	; (8001fc4 <HAL_SPI_MspInit+0x88>)
 8001f80:	6b1b      	ldr	r3, [r3, #48]	; 0x30
 8001f82:	4a10      	ldr	r2, [pc, #64]	; (8001fc4 <HAL_SPI_MspInit+0x88>)
 8001f84:	f043 0301 	orr.w	r3, r3, #1
 8001f88:	6313      	str	r3, [r2, #48]	; 0x30
 8001f8a:	4b0e      	ldr	r3, [pc, #56]	; (8001fc4 <HAL_SPI_MspInit+0x88>)
 8001f8c:	6b1b      	ldr	r3, [r3, #48]	; 0x30
 8001f8e:	f003 0301 	and.w	r3, r3, #1
 8001f92:	60fb      	str	r3, [r7, #12]
 8001f94:	68fb      	ldr	r3, [r7, #12]
    /**SPI1 GPIO Configuration
    PA5     ------> SPI1_SCK
    PA6     ------> SPI1_MISO
    PA7     ------> SPI1_MOSI
    */
    GPIO_InitStruct.Pin = GPIO_PIN_5|GPIO_PIN_6|GPIO_PIN_7;
 8001f96:	23e0      	movs	r3, #224	; 0xe0
 8001f98:	617b      	str	r3, [r7, #20]
    GPIO_InitStruct.Mode = GPIO_MODE_AF_PP;
 8001f9a:	2302      	movs	r3, #2
 8001f9c:	61bb      	str	r3, [r7, #24]
    GPIO_InitStruct.Pull = GPIO_NOPULL;
 8001f9e:	2300      	movs	r3, #0
 8001fa0:	61fb      	str	r3, [r7, #28]
    GPIO_InitStruct.Speed = GPIO_SPEED_FREQ_VERY_HIGH;
 8001fa2:	2303      	movs	r3, #3
 8001fa4:	623b      	str	r3, [r7, #32]
    GPIO_InitStruct.Alternate = GPIO_AF5_SPI1;
 8001fa6:	2305      	movs	r3, #5
 8001fa8:	627b      	str	r3, [r7, #36]	; 0x24
    HAL_GPIO_Init(GPIOA, &GPIO_InitStruct);
 8001faa:	f107 0314 	add.w	r3, r7, #20
 8001fae:	4619      	mov	r1, r3
 8001fb0:	4805      	ldr	r0, [pc, #20]	; (8001fc8 <HAL_SPI_MspInit+0x8c>)
 8001fb2:	f001 fc25 	bl	8003800 <HAL_GPIO_Init>
  /* USER CODE BEGIN SPI1_MspInit 1 */

  /* USER CODE END SPI1_MspInit 1 */
  }

}
 8001fb6:	bf00      	nop
 8001fb8:	3728      	adds	r7, #40	; 0x28
 8001fba:	46bd      	mov	sp, r7
 8001fbc:	bd80      	pop	{r7, pc}
 8001fbe:	bf00      	nop
 8001fc0:	40013000 	.word	0x40013000
 8001fc4:	40023800 	.word	0x40023800
 8001fc8:	40020000 	.word	0x40020000

08001fcc <HAL_TIM_PWM_MspInit>:
* This function configures the hardware resources used in this example
* @param htim_pwm: TIM_PWM handle pointer
* @retval None
*/
void HAL_TIM_PWM_MspInit(TIM_HandleTypeDef* htim_pwm)
{
 8001fcc:	b480      	push	{r7}
 8001fce:	b085      	sub	sp, #20
 8001fd0:	af00      	add	r7, sp, #0
 8001fd2:	6078      	str	r0, [r7, #4]
  if(htim_pwm->Instance==TIM3)
 8001fd4:	687b      	ldr	r3, [r7, #4]
 8001fd6:	681b      	ldr	r3, [r3, #0]
 8001fd8:	4a0b      	ldr	r2, [pc, #44]	; (8002008 <HAL_TIM_PWM_MspInit+0x3c>)
 8001fda:	4293      	cmp	r3, r2
 8001fdc:	d10d      	bne.n	8001ffa <HAL_TIM_PWM_MspInit+0x2e>
  {
  /* USER CODE BEGIN TIM3_MspInit 0 */

  /* USER CODE END TIM3_MspInit 0 */
    /* Peripheral clock enable */
    __HAL_RCC_TIM3_CLK_ENABLE();
 8001fde:	2300      	movs	r3, #0
 8001fe0:	60fb      	str	r3, [r7, #12]
 8001fe2:	4b0a      	ldr	r3, [pc, #40]	; (800200c <HAL_TIM_PWM_MspInit+0x40>)
 8001fe4:	6c1b      	ldr	r3, [r3, #64]	; 0x40
 8001fe6:	4a09      	ldr	r2, [pc, #36]	; (800200c <HAL_TIM_PWM_MspInit+0x40>)
 8001fe8:	f043 0302 	orr.w	r3, r3, #2
 8001fec:	6413      	str	r3, [r2, #64]	; 0x40
 8001fee:	4b07      	ldr	r3, [pc, #28]	; (800200c <HAL_TIM_PWM_MspInit+0x40>)
 8001ff0:	6c1b      	ldr	r3, [r3, #64]	; 0x40
 8001ff2:	f003 0302 	and.w	r3, r3, #2
 8001ff6:	60fb      	str	r3, [r7, #12]
 8001ff8:	68fb      	ldr	r3, [r7, #12]
  /* USER CODE BEGIN TIM3_MspInit 1 */

  /* USER CODE END TIM3_MspInit 1 */
  }

}
 8001ffa:	bf00      	nop
 8001ffc:	3714      	adds	r7, #20
 8001ffe:	46bd      	mov	sp, r7
 8002000:	f85d 7b04 	ldr.w	r7, [sp], #4
 8002004:	4770      	bx	lr
 8002006:	bf00      	nop
 8002008:	40000400 	.word	0x40000400
 800200c:	40023800 	.word	0x40023800

08002010 <HAL_TIM_Base_MspInit>:
* This function configures the hardware resources used in this example
* @param htim_base: TIM_Base handle pointer
* @retval None
*/
void HAL_TIM_Base_MspInit(TIM_HandleTypeDef* htim_base)
{
 8002010:	b480      	push	{r7}
 8002012:	b085      	sub	sp, #20
 8002014:	af00      	add	r7, sp, #0
 8002016:	6078      	str	r0, [r7, #4]
  if(htim_base->Instance==TIM4)
 8002018:	687b      	ldr	r3, [r7, #4]
 800201a:	681b      	ldr	r3, [r3, #0]
 800201c:	4a0b      	ldr	r2, [pc, #44]	; (800204c <HAL_TIM_Base_MspInit+0x3c>)
 800201e:	4293      	cmp	r3, r2
 8002020:	d10d      	bne.n	800203e <HAL_TIM_Base_MspInit+0x2e>
  {
  /* USER CODE BEGIN TIM4_MspInit 0 */

  /* USER CODE END TIM4_MspInit 0 */
    /* Peripheral clock enable */
    __HAL_RCC_TIM4_CLK_ENABLE();
 8002022:	2300      	movs	r3, #0
 8002024:	60fb      	str	r3, [r7, #12]
 8002026:	4b0a      	ldr	r3, [pc, #40]	; (8002050 <HAL_TIM_Base_MspInit+0x40>)
 8002028:	6c1b      	ldr	r3, [r3, #64]	; 0x40
 800202a:	4a09      	ldr	r2, [pc, #36]	; (8002050 <HAL_TIM_Base_MspInit+0x40>)
 800202c:	f043 0304 	orr.w	r3, r3, #4
 8002030:	6413      	str	r3, [r2, #64]	; 0x40
 8002032:	4b07      	ldr	r3, [pc, #28]	; (8002050 <HAL_TIM_Base_MspInit+0x40>)
 8002034:	6c1b      	ldr	r3, [r3, #64]	; 0x40
 8002036:	f003 0304 	and.w	r3, r3, #4
 800203a:	60fb      	str	r3, [r7, #12]
 800203c:	68fb      	ldr	r3, [r7, #12]
  /* USER CODE BEGIN TIM4_MspInit 1 */

  /* USER CODE END TIM4_MspInit 1 */
  }

}
 800203e:	bf00      	nop
 8002040:	3714      	adds	r7, #20
 8002042:	46bd      	mov	sp, r7
 8002044:	f85d 7b04 	ldr.w	r7, [sp], #4
 8002048:	4770      	bx	lr
 800204a:	bf00      	nop
 800204c:	40000800 	.word	0x40000800
 8002050:	40023800 	.word	0x40023800

08002054 <HAL_TIM_MspPostInit>:

void HAL_TIM_MspPostInit(TIM_HandleTypeDef* htim)
{
 8002054:	b580      	push	{r7, lr}
 8002056:	b08a      	sub	sp, #40	; 0x28
 8002058:	af00      	add	r7, sp, #0
 800205a:	6078      	str	r0, [r7, #4]
  GPIO_InitTypeDef GPIO_InitStruct = {0};
 800205c:	f107 0314 	add.w	r3, r7, #20
 8002060:	2200      	movs	r2, #0
 8002062:	601a      	str	r2, [r3, #0]
 8002064:	605a      	str	r2, [r3, #4]
 8002066:	609a      	str	r2, [r3, #8]
 8002068:	60da      	str	r2, [r3, #12]
 800206a:	611a      	str	r2, [r3, #16]
  if(htim->Instance==TIM3)
 800206c:	687b      	ldr	r3, [r7, #4]
 800206e:	681b      	ldr	r3, [r3, #0]
 8002070:	4a24      	ldr	r2, [pc, #144]	; (8002104 <HAL_TIM_MspPostInit+0xb0>)
 8002072:	4293      	cmp	r3, r2
 8002074:	d11e      	bne.n	80020b4 <HAL_TIM_MspPostInit+0x60>
  {
  /* USER CODE BEGIN TIM3_MspPostInit 0 */

  /* USER CODE END TIM3_MspPostInit 0 */
    __HAL_RCC_GPIOC_CLK_ENABLE();
 8002076:	2300      	movs	r3, #0
 8002078:	613b      	str	r3, [r7, #16]
 800207a:	4b23      	ldr	r3, [pc, #140]	; (8002108 <HAL_TIM_MspPostInit+0xb4>)
 800207c:	6b1b      	ldr	r3, [r3, #48]	; 0x30
 800207e:	4a22      	ldr	r2, [pc, #136]	; (8002108 <HAL_TIM_MspPostInit+0xb4>)
 8002080:	f043 0304 	orr.w	r3, r3, #4
 8002084:	6313      	str	r3, [r2, #48]	; 0x30
 8002086:	4b20      	ldr	r3, [pc, #128]	; (8002108 <HAL_TIM_MspPostInit+0xb4>)
 8002088:	6b1b      	ldr	r3, [r3, #48]	; 0x30
 800208a:	f003 0304 	and.w	r3, r3, #4
 800208e:	613b      	str	r3, [r7, #16]
 8002090:	693b      	ldr	r3, [r7, #16]
    /**TIM3 GPIO Configuration
    PC7     ------> TIM3_CH2
    */
    GPIO_InitStruct.Pin = GPIO_PIN_7;
 8002092:	2380      	movs	r3, #128	; 0x80
 8002094:	617b      	str	r3, [r7, #20]
    GPIO_InitStruct.Mode = GPIO_MODE_AF_PP;
 8002096:	2302      	movs	r3, #2
 8002098:	61bb      	str	r3, [r7, #24]
    GPIO_InitStruct.Pull = GPIO_NOPULL;
 800209a:	2300      	movs	r3, #0
 800209c:	61fb      	str	r3, [r7, #28]
    GPIO_InitStruct.Speed = GPIO_SPEED_FREQ_LOW;
 800209e:	2300      	movs	r3, #0
 80020a0:	623b      	str	r3, [r7, #32]
    GPIO_InitStruct.Alternate = GPIO_AF2_TIM3;
 80020a2:	2302      	movs	r3, #2
 80020a4:	627b      	str	r3, [r7, #36]	; 0x24
    HAL_GPIO_Init(GPIOC, &GPIO_InitStruct);
 80020a6:	f107 0314 	add.w	r3, r7, #20
 80020aa:	4619      	mov	r1, r3
 80020ac:	4817      	ldr	r0, [pc, #92]	; (800210c <HAL_TIM_MspPostInit+0xb8>)
 80020ae:	f001 fba7 	bl	8003800 <HAL_GPIO_Init>
  /* USER CODE BEGIN TIM4_MspPostInit 1 */

  /* USER CODE END TIM4_MspPostInit 1 */
  }

}
 80020b2:	e023      	b.n	80020fc <HAL_TIM_MspPostInit+0xa8>
  else if(htim->Instance==TIM4)
 80020b4:	687b      	ldr	r3, [r7, #4]
 80020b6:	681b      	ldr	r3, [r3, #0]
 80020b8:	4a15      	ldr	r2, [pc, #84]	; (8002110 <HAL_TIM_MspPostInit+0xbc>)
 80020ba:	4293      	cmp	r3, r2
 80020bc:	d11e      	bne.n	80020fc <HAL_TIM_MspPostInit+0xa8>
    __HAL_RCC_GPIOD_CLK_ENABLE();
 80020be:	2300      	movs	r3, #0
 80020c0:	60fb      	str	r3, [r7, #12]
 80020c2:	4b11      	ldr	r3, [pc, #68]	; (8002108 <HAL_TIM_MspPostInit+0xb4>)
 80020c4:	6b1b      	ldr	r3, [r3, #48]	; 0x30
 80020c6:	4a10      	ldr	r2, [pc, #64]	; (8002108 <HAL_TIM_MspPostInit+0xb4>)
 80020c8:	f043 0308 	orr.w	r3, r3, #8
 80020cc:	6313      	str	r3, [r2, #48]	; 0x30
 80020ce:	4b0e      	ldr	r3, [pc, #56]	; (8002108 <HAL_TIM_MspPostInit+0xb4>)
 80020d0:	6b1b      	ldr	r3, [r3, #48]	; 0x30
 80020d2:	f003 0308 	and.w	r3, r3, #8
 80020d6:	60fb      	str	r3, [r7, #12]
 80020d8:	68fb      	ldr	r3, [r7, #12]
    GPIO_InitStruct.Pin = GPIO_PIN_12;
 80020da:	f44f 5380 	mov.w	r3, #4096	; 0x1000
 80020de:	617b      	str	r3, [r7, #20]
    GPIO_InitStruct.Mode = GPIO_MODE_AF_PP;
 80020e0:	2302      	movs	r3, #2
 80020e2:	61bb      	str	r3, [r7, #24]
    GPIO_InitStruct.Pull = GPIO_NOPULL;
 80020e4:	2300      	movs	r3, #0
 80020e6:	61fb      	str	r3, [r7, #28]
    GPIO_InitStruct.Speed = GPIO_SPEED_FREQ_LOW;
 80020e8:	2300      	movs	r3, #0
 80020ea:	623b      	str	r3, [r7, #32]
    GPIO_InitStruct.Alternate = GPIO_AF2_TIM4;
 80020ec:	2302      	movs	r3, #2
 80020ee:	627b      	str	r3, [r7, #36]	; 0x24
    HAL_GPIO_Init(GPIOD, &GPIO_InitStruct);
 80020f0:	f107 0314 	add.w	r3, r7, #20
 80020f4:	4619      	mov	r1, r3
 80020f6:	4807      	ldr	r0, [pc, #28]	; (8002114 <HAL_TIM_MspPostInit+0xc0>)
 80020f8:	f001 fb82 	bl	8003800 <HAL_GPIO_Init>
}
 80020fc:	bf00      	nop
 80020fe:	3728      	adds	r7, #40	; 0x28
 8002100:	46bd      	mov	sp, r7
 8002102:	bd80      	pop	{r7, pc}
 8002104:	40000400 	.word	0x40000400
 8002108:	40023800 	.word	0x40023800
 800210c:	40020800 	.word	0x40020800
 8002110:	40000800 	.word	0x40000800
 8002114:	40020c00 	.word	0x40020c00

08002118 <NMI_Handler>:
/******************************************************************************/
/**
  * @brief This function handles Non maskable interrupt.
  */
void NMI_Handler(void)
{
 8002118:	b480      	push	{r7}
 800211a:	af00      	add	r7, sp, #0
  /* USER CODE BEGIN NonMaskableInt_IRQn 0 */

  /* USER CODE END NonMaskableInt_IRQn 0 */
  /* USER CODE BEGIN NonMaskableInt_IRQn 1 */
  while (1)
 800211c:	e7fe      	b.n	800211c <NMI_Handler+0x4>

0800211e <HardFault_Handler>:

/**
  * @brief This function handles Hard fault interrupt.
  */
void HardFault_Handler(void)
{
 800211e:	b480      	push	{r7}
 8002120:	af00      	add	r7, sp, #0
  /* USER CODE BEGIN HardFault_IRQn 0 */

  /* USER CODE END HardFault_IRQn 0 */
  while (1)
 8002122:	e7fe      	b.n	8002122 <HardFault_Handler+0x4>

08002124 <MemManage_Handler>:

/**
  * @brief This function handles Memory management fault.
  */
void MemManage_Handler(void)
{
 8002124:	b480      	push	{r7}
 8002126:	af00      	add	r7, sp, #0
  /* USER CODE BEGIN MemoryManagement_IRQn 0 */

  /* USER CODE END MemoryManagement_IRQn 0 */
  while (1)
 8002128:	e7fe      	b.n	8002128 <MemManage_Handler+0x4>

0800212a <BusFault_Handler>:

/**
  * @brief This function handles Pre-fetch fault, memory access fault.
  */
void BusFault_Handler(void)
{
 800212a:	b480      	push	{r7}
 800212c:	af00      	add	r7, sp, #0
  /* USER CODE BEGIN BusFault_IRQn 0 */

  /* USER CODE END BusFault_IRQn 0 */
  while (1)
 800212e:	e7fe      	b.n	800212e <BusFault_Handler+0x4>

08002130 <UsageFault_Handler>:

/**
  * @brief This function handles Undefined instruction or illegal state.
  */
void UsageFault_Handler(void)
{
 8002130:	b480      	push	{r7}
 8002132:	af00      	add	r7, sp, #0
  /* USER CODE BEGIN UsageFault_IRQn 0 */

  /* USER CODE END UsageFault_IRQn 0 */
  while (1)
 8002134:	e7fe      	b.n	8002134 <UsageFault_Handler+0x4>

08002136 <SVC_Handler>:

/**
  * @brief This function handles System service call via SWI instruction.
  */
void SVC_Handler(void)
{
 8002136:	b480      	push	{r7}
 8002138:	af00      	add	r7, sp, #0

  /* USER CODE END SVCall_IRQn 0 */
  /* USER CODE BEGIN SVCall_IRQn 1 */

  /* USER CODE END SVCall_IRQn 1 */
}
 800213a:	bf00      	nop
 800213c:	46bd      	mov	sp, r7
 800213e:	f85d 7b04 	ldr.w	r7, [sp], #4
 8002142:	4770      	bx	lr

08002144 <DebugMon_Handler>:

/**
  * @brief This function handles Debug monitor.
  */
void DebugMon_Handler(void)
{
 8002144:	b480      	push	{r7}
 8002146:	af00      	add	r7, sp, #0

  /* USER CODE END DebugMonitor_IRQn 0 */
  /* USER CODE BEGIN DebugMonitor_IRQn 1 */

  /* USER CODE END DebugMonitor_IRQn 1 */
}
 8002148:	bf00      	nop
 800214a:	46bd      	mov	sp, r7
 800214c:	f85d 7b04 	ldr.w	r7, [sp], #4
 8002150:	4770      	bx	lr

08002152 <PendSV_Handler>:

/**
  * @brief This function handles Pendable request for system service.
  */
void PendSV_Handler(void)
{
 8002152:	b480      	push	{r7}
 8002154:	af00      	add	r7, sp, #0

  /* USER CODE END PendSV_IRQn 0 */
  /* USER CODE BEGIN PendSV_IRQn 1 */

  /* USER CODE END PendSV_IRQn 1 */
}
 8002156:	bf00      	nop
 8002158:	46bd      	mov	sp, r7
 800215a:	f85d 7b04 	ldr.w	r7, [sp], #4
 800215e:	4770      	bx	lr

08002160 <SysTick_Handler>:

/**
  * @brief This function handles System tick timer.
  */
void SysTick_Handler(void)
{
 8002160:	b580      	push	{r7, lr}
 8002162:	af00      	add	r7, sp, #0
  /* USER CODE BEGIN SysTick_IRQn 0 */

  /* USER CODE END SysTick_IRQn 0 */
  HAL_IncTick();
 8002164:	f000 f8b6 	bl	80022d4 <HAL_IncTick>
  /* USER CODE BEGIN SysTick_IRQn 1 */

  /* USER CODE END SysTick_IRQn 1 */
}
 8002168:	bf00      	nop
 800216a:	bd80      	pop	{r7, pc}

0800216c <EXTI0_IRQHandler>:

/**
  * @brief This function handles EXTI line0 interrupt.
  */
void EXTI0_IRQHandler(void)
{
 800216c:	b580      	push	{r7, lr}
 800216e:	af00      	add	r7, sp, #0
  /* USER CODE BEGIN EXTI0_IRQn 0 */

  /* USER CODE END EXTI0_IRQn 0 */
  HAL_GPIO_EXTI_IRQHandler(GPIO_PIN_0);
 8002170:	2001      	movs	r0, #1
 8002172:	f001 fd11 	bl	8003b98 <HAL_GPIO_EXTI_IRQHandler>
  /* USER CODE BEGIN EXTI0_IRQn 1 */

  /* USER CODE END EXTI0_IRQn 1 */
}
 8002176:	bf00      	nop
 8002178:	bd80      	pop	{r7, pc}

0800217a <EXTI2_IRQHandler>:

/**
  * @brief This function handles EXTI line2 interrupt.
  */
void EXTI2_IRQHandler(void)
{
 800217a:	b580      	push	{r7, lr}
 800217c:	af00      	add	r7, sp, #0
  /* USER CODE BEGIN EXTI2_IRQn 0 */

  /* USER CODE END EXTI2_IRQn 0 */
  HAL_GPIO_EXTI_IRQHandler(GPIO_PIN_2);
 800217e:	2004      	movs	r0, #4
 8002180:	f001 fd0a 	bl	8003b98 <HAL_GPIO_EXTI_IRQHandler>
  /* USER CODE BEGIN EXTI2_IRQn 1 */

  /* USER CODE END EXTI2_IRQn 1 */
}
 8002184:	bf00      	nop
 8002186:	bd80      	pop	{r7, pc}

08002188 <ADC_IRQHandler>:

/**
  * @brief This function handles ADC1, ADC2 and ADC3 global interrupts.
  */
void ADC_IRQHandler(void)
{
 8002188:	b580      	push	{r7, lr}
 800218a:	af00      	add	r7, sp, #0
  /* USER CODE BEGIN ADC_IRQn 0 */

  /* USER CODE END ADC_IRQn 0 */
  HAL_ADC_IRQHandler(&hadc1);
 800218c:	4802      	ldr	r0, [pc, #8]	; (8002198 <ADC_IRQHandler+0x10>)
 800218e:	f000 f926 	bl	80023de <HAL_ADC_IRQHandler>
  /* USER CODE BEGIN ADC_IRQn 1 */

  /* USER CODE END ADC_IRQn 1 */
}
 8002192:	bf00      	nop
 8002194:	bd80      	pop	{r7, pc}
 8002196:	bf00      	nop
 8002198:	200000fc 	.word	0x200000fc

0800219c <DMA2_Stream0_IRQHandler>:

/**
  * @brief This function handles DMA2 stream0 global interrupt.
  */
void DMA2_Stream0_IRQHandler(void)
{
 800219c:	b580      	push	{r7, lr}
 800219e:	af00      	add	r7, sp, #0
  /* USER CODE BEGIN DMA2_Stream0_IRQn 0 */

  /* USER CODE END DMA2_Stream0_IRQn 0 */
  HAL_DMA_IRQHandler(&hdma_adc1);
 80021a0:	4802      	ldr	r0, [pc, #8]	; (80021ac <DMA2_Stream0_IRQHandler+0x10>)
 80021a2:	f001 f8c5 	bl	8003330 <HAL_DMA_IRQHandler>
  /* USER CODE BEGIN DMA2_Stream0_IRQn 1 */

  /* USER CODE END DMA2_Stream0_IRQn 1 */
}
 80021a6:	bf00      	nop
 80021a8:	bd80      	pop	{r7, pc}
 80021aa:	bf00      	nop
 80021ac:	20000148 	.word	0x20000148

080021b0 <SystemInit>:
  *         configuration.
  * @param  None
  * @retval None
  */
void SystemInit(void)
{
 80021b0:	b480      	push	{r7}
 80021b2:	af00      	add	r7, sp, #0
  /* FPU settings ------------------------------------------------------------*/
  #if (__FPU_PRESENT == 1) && (__FPU_USED == 1)
    SCB->CPACR |= ((3UL << 10*2)|(3UL << 11*2));  /* set CP10 and CP11 Full Access */
 80021b4:	4b08      	ldr	r3, [pc, #32]	; (80021d8 <SystemInit+0x28>)
 80021b6:	f8d3 3088 	ldr.w	r3, [r3, #136]	; 0x88
 80021ba:	4a07      	ldr	r2, [pc, #28]	; (80021d8 <SystemInit+0x28>)
 80021bc:	f443 0370 	orr.w	r3, r3, #15728640	; 0xf00000
 80021c0:	f8c2 3088 	str.w	r3, [r2, #136]	; 0x88

  /* Configure the Vector Table location add offset address ------------------*/
#ifdef VECT_TAB_SRAM
  SCB->VTOR = SRAM_BASE | VECT_TAB_OFFSET; /* Vector Table Relocation in Internal SRAM */
#else
  SCB->VTOR = FLASH_BASE | VECT_TAB_OFFSET; /* Vector Table Relocation in Internal FLASH */
 80021c4:	4b04      	ldr	r3, [pc, #16]	; (80021d8 <SystemInit+0x28>)
 80021c6:	f04f 6200 	mov.w	r2, #134217728	; 0x8000000
 80021ca:	609a      	str	r2, [r3, #8]
#endif
}
 80021cc:	bf00      	nop
 80021ce:	46bd      	mov	sp, r7
 80021d0:	f85d 7b04 	ldr.w	r7, [sp], #4
 80021d4:	4770      	bx	lr
 80021d6:	bf00      	nop
 80021d8:	e000ed00 	.word	0xe000ed00

080021dc <Reset_Handler>:

    .section  .text.Reset_Handler
  .weak  Reset_Handler
  .type  Reset_Handler, %function
Reset_Handler:  
  ldr   sp, =_estack     /* set stack pointer */
 80021dc:	f8df d034 	ldr.w	sp, [pc, #52]	; 8002214 <LoopFillZerobss+0x14>

/* Copy the data segment initializers from flash to SRAM */  
  movs  r1, #0
 80021e0:	2100      	movs	r1, #0
  b  LoopCopyDataInit
 80021e2:	e003      	b.n	80021ec <LoopCopyDataInit>

080021e4 <CopyDataInit>:

CopyDataInit:
  ldr  r3, =_sidata
 80021e4:	4b0c      	ldr	r3, [pc, #48]	; (8002218 <LoopFillZerobss+0x18>)
  ldr  r3, [r3, r1]
 80021e6:	585b      	ldr	r3, [r3, r1]
  str  r3, [r0, r1]
 80021e8:	5043      	str	r3, [r0, r1]
  adds  r1, r1, #4
 80021ea:	3104      	adds	r1, #4

080021ec <LoopCopyDataInit>:
    
LoopCopyDataInit:
  ldr  r0, =_sdata
 80021ec:	480b      	ldr	r0, [pc, #44]	; (800221c <LoopFillZerobss+0x1c>)
  ldr  r3, =_edata
 80021ee:	4b0c      	ldr	r3, [pc, #48]	; (8002220 <LoopFillZerobss+0x20>)
  adds  r2, r0, r1
 80021f0:	1842      	adds	r2, r0, r1
  cmp  r2, r3
 80021f2:	429a      	cmp	r2, r3
  bcc  CopyDataInit
 80021f4:	d3f6      	bcc.n	80021e4 <CopyDataInit>
  ldr  r2, =_sbss
 80021f6:	4a0b      	ldr	r2, [pc, #44]	; (8002224 <LoopFillZerobss+0x24>)
  b  LoopFillZerobss
 80021f8:	e002      	b.n	8002200 <LoopFillZerobss>

080021fa <FillZerobss>:
/* Zero fill the bss segment. */  
FillZerobss:
  movs  r3, #0
 80021fa:	2300      	movs	r3, #0
  str  r3, [r2], #4
 80021fc:	f842 3b04 	str.w	r3, [r2], #4

08002200 <LoopFillZerobss>:
    
LoopFillZerobss:
  ldr  r3, = _ebss
 8002200:	4b09      	ldr	r3, [pc, #36]	; (8002228 <LoopFillZerobss+0x28>)
  cmp  r2, r3
 8002202:	429a      	cmp	r2, r3
  bcc  FillZerobss
 8002204:	d3f9      	bcc.n	80021fa <FillZerobss>

/* Call the clock system intitialization function.*/
  bl  SystemInit   
 8002206:	f7ff ffd3 	bl	80021b0 <SystemInit>
/* Call static constructors */
    bl __libc_init_array
 800220a:	f003 f8ed 	bl	80053e8 <__libc_init_array>
/* Call the application's entry point.*/
  bl  main
 800220e:	f7ff f949 	bl	80014a4 <main>
  bx  lr    
 8002212:	4770      	bx	lr
  ldr   sp, =_estack     /* set stack pointer */
 8002214:	20020000 	.word	0x20020000
  ldr  r3, =_sidata
 8002218:	08006c4c 	.word	0x08006c4c
  ldr  r0, =_sdata
 800221c:	20000000 	.word	0x20000000
  ldr  r3, =_edata
 8002220:	2000001c 	.word	0x2000001c
  ldr  r2, =_sbss
 8002224:	2000001c 	.word	0x2000001c
  ldr  r3, = _ebss
 8002228:	20000214 	.word	0x20000214

0800222c <CAN1_RX0_IRQHandler>:
 * @retval None       
*/
    .section  .text.Default_Handler,"ax",%progbits
Default_Handler:
Infinite_Loop:
  b  Infinite_Loop
 800222c:	e7fe      	b.n	800222c <CAN1_RX0_IRQHandler>
	...

08002230 <HAL_Init>:
  *         need to ensure that the SysTick time base is always set to 1 millisecond
  *         to have correct HAL operation.
  * @retval HAL status
  */
HAL_StatusTypeDef HAL_Init(void)
{
 8002230:	b580      	push	{r7, lr}
 8002232:	af00      	add	r7, sp, #0
  /* Configure Flash prefetch, Instruction cache, Data cache */ 
#if (INSTRUCTION_CACHE_ENABLE != 0U)
  __HAL_FLASH_INSTRUCTION_CACHE_ENABLE();
 8002234:	4b0e      	ldr	r3, [pc, #56]	; (8002270 <HAL_Init+0x40>)
 8002236:	681b      	ldr	r3, [r3, #0]
 8002238:	4a0d      	ldr	r2, [pc, #52]	; (8002270 <HAL_Init+0x40>)
 800223a:	f443 7300 	orr.w	r3, r3, #512	; 0x200
 800223e:	6013      	str	r3, [r2, #0]
#endif /* INSTRUCTION_CACHE_ENABLE */

#if (DATA_CACHE_ENABLE != 0U)
  __HAL_FLASH_DATA_CACHE_ENABLE();
 8002240:	4b0b      	ldr	r3, [pc, #44]	; (8002270 <HAL_Init+0x40>)
 8002242:	681b      	ldr	r3, [r3, #0]
 8002244:	4a0a      	ldr	r2, [pc, #40]	; (8002270 <HAL_Init+0x40>)
 8002246:	f443 6380 	orr.w	r3, r3, #1024	; 0x400
 800224a:	6013      	str	r3, [r2, #0]
#endif /* DATA_CACHE_ENABLE */

#if (PREFETCH_ENABLE != 0U)
  __HAL_FLASH_PREFETCH_BUFFER_ENABLE();
 800224c:	4b08      	ldr	r3, [pc, #32]	; (8002270 <HAL_Init+0x40>)
 800224e:	681b      	ldr	r3, [r3, #0]
 8002250:	4a07      	ldr	r2, [pc, #28]	; (8002270 <HAL_Init+0x40>)
 8002252:	f443 7380 	orr.w	r3, r3, #256	; 0x100
 8002256:	6013      	str	r3, [r2, #0]
#endif /* PREFETCH_ENABLE */

  /* Set Interrupt Group Priority */
  HAL_NVIC_SetPriorityGrouping(NVIC_PRIORITYGROUP_4);
 8002258:	2003      	movs	r0, #3
 800225a:	f000 fef7 	bl	800304c <HAL_NVIC_SetPriorityGrouping>

  /* Use systick as time base source and configure 1ms tick (default clock after Reset is HSI) */
  HAL_InitTick(TICK_INT_PRIORITY);
 800225e:	2000      	movs	r0, #0
 8002260:	f000 f808 	bl	8002274 <HAL_InitTick>

  /* Init the low level hardware */
  HAL_MspInit();
 8002264:	f7ff fdc2 	bl	8001dec <HAL_MspInit>

  /* Return function status */
  return HAL_OK;
 8002268:	2300      	movs	r3, #0
}
 800226a:	4618      	mov	r0, r3
 800226c:	bd80      	pop	{r7, pc}
 800226e:	bf00      	nop
 8002270:	40023c00 	.word	0x40023c00

08002274 <HAL_InitTick>:
  *       implementation  in user file.
  * @param TickPriority Tick interrupt priority.
  * @retval HAL status
  */
__weak HAL_StatusTypeDef HAL_InitTick(uint32_t TickPriority)
{
 8002274:	b580      	push	{r7, lr}
 8002276:	b082      	sub	sp, #8
 8002278:	af00      	add	r7, sp, #0
 800227a:	6078      	str	r0, [r7, #4]
  /* Configure the SysTick to have interrupt in 1ms time basis*/
  if (HAL_SYSTICK_Config(SystemCoreClock / (1000U / uwTickFreq)) > 0U)
 800227c:	4b12      	ldr	r3, [pc, #72]	; (80022c8 <HAL_InitTick+0x54>)
 800227e:	681a      	ldr	r2, [r3, #0]
 8002280:	4b12      	ldr	r3, [pc, #72]	; (80022cc <HAL_InitTick+0x58>)
 8002282:	781b      	ldrb	r3, [r3, #0]
 8002284:	4619      	mov	r1, r3
 8002286:	f44f 737a 	mov.w	r3, #1000	; 0x3e8
 800228a:	fbb3 f3f1 	udiv	r3, r3, r1
 800228e:	fbb2 f3f3 	udiv	r3, r2, r3
 8002292:	4618      	mov	r0, r3
 8002294:	f000 ff1d 	bl	80030d2 <HAL_SYSTICK_Config>
 8002298:	4603      	mov	r3, r0
 800229a:	2b00      	cmp	r3, #0
 800229c:	d001      	beq.n	80022a2 <HAL_InitTick+0x2e>
  {
    return HAL_ERROR;
 800229e:	2301      	movs	r3, #1
 80022a0:	e00e      	b.n	80022c0 <HAL_InitTick+0x4c>
  }

  /* Configure the SysTick IRQ priority */
  if (TickPriority < (1UL << __NVIC_PRIO_BITS))
 80022a2:	687b      	ldr	r3, [r7, #4]
 80022a4:	2b0f      	cmp	r3, #15
 80022a6:	d80a      	bhi.n	80022be <HAL_InitTick+0x4a>
  {
    HAL_NVIC_SetPriority(SysTick_IRQn, TickPriority, 0U);
 80022a8:	2200      	movs	r2, #0
 80022aa:	6879      	ldr	r1, [r7, #4]
 80022ac:	f04f 30ff 	mov.w	r0, #4294967295
 80022b0:	f000 fed7 	bl	8003062 <HAL_NVIC_SetPriority>
    uwTickPrio = TickPriority;
 80022b4:	4a06      	ldr	r2, [pc, #24]	; (80022d0 <HAL_InitTick+0x5c>)
 80022b6:	687b      	ldr	r3, [r7, #4]
 80022b8:	6013      	str	r3, [r2, #0]
  {
    return HAL_ERROR;
  }

  /* Return function status */
  return HAL_OK;
 80022ba:	2300      	movs	r3, #0
 80022bc:	e000      	b.n	80022c0 <HAL_InitTick+0x4c>
    return HAL_ERROR;
 80022be:	2301      	movs	r3, #1
}
 80022c0:	4618      	mov	r0, r3
 80022c2:	3708      	adds	r7, #8
 80022c4:	46bd      	mov	sp, r7
 80022c6:	bd80      	pop	{r7, pc}
 80022c8:	20000010 	.word	0x20000010
 80022cc:	20000018 	.word	0x20000018
 80022d0:	20000014 	.word	0x20000014

080022d4 <HAL_IncTick>:
 * @note This function is declared as __weak to be overwritten in case of other 
  *      implementations in user file.
  * @retval None
  */
__weak void HAL_IncTick(void)
{
 80022d4:	b480      	push	{r7}
 80022d6:	af00      	add	r7, sp, #0
  uwTick += uwTickFreq;
 80022d8:	4b06      	ldr	r3, [pc, #24]	; (80022f4 <HAL_IncTick+0x20>)
 80022da:	781b      	ldrb	r3, [r3, #0]
 80022dc:	461a      	mov	r2, r3
 80022de:	4b06      	ldr	r3, [pc, #24]	; (80022f8 <HAL_IncTick+0x24>)
 80022e0:	681b      	ldr	r3, [r3, #0]
 80022e2:	4413      	add	r3, r2
 80022e4:	4a04      	ldr	r2, [pc, #16]	; (80022f8 <HAL_IncTick+0x24>)
 80022e6:	6013      	str	r3, [r2, #0]
}
 80022e8:	bf00      	nop
 80022ea:	46bd      	mov	sp, r7
 80022ec:	f85d 7b04 	ldr.w	r7, [sp], #4
 80022f0:	4770      	bx	lr
 80022f2:	bf00      	nop
 80022f4:	20000018 	.word	0x20000018
 80022f8:	20000210 	.word	0x20000210

080022fc <HAL_GetTick>:
  * @note This function is declared as __weak to be overwritten in case of other 
  *       implementations in user file.
  * @retval tick value
  */
__weak uint32_t HAL_GetTick(void)
{
 80022fc:	b480      	push	{r7}
 80022fe:	af00      	add	r7, sp, #0
  return uwTick;
 8002300:	4b03      	ldr	r3, [pc, #12]	; (8002310 <HAL_GetTick+0x14>)
 8002302:	681b      	ldr	r3, [r3, #0]
}
 8002304:	4618      	mov	r0, r3
 8002306:	46bd      	mov	sp, r7
 8002308:	f85d 7b04 	ldr.w	r7, [sp], #4
 800230c:	4770      	bx	lr
 800230e:	bf00      	nop
 8002310:	20000210 	.word	0x20000210

08002314 <HAL_Delay>:
  *       implementations in user file.
  * @param Delay specifies the delay time length, in milliseconds.
  * @retval None
  */
__weak void HAL_Delay(uint32_t Delay)
{
 8002314:	b580      	push	{r7, lr}
 8002316:	b084      	sub	sp, #16
 8002318:	af00      	add	r7, sp, #0
 800231a:	6078      	str	r0, [r7, #4]
  uint32_t tickstart = HAL_GetTick();
 800231c:	f7ff ffee 	bl	80022fc <HAL_GetTick>
 8002320:	60b8      	str	r0, [r7, #8]
  uint32_t wait = Delay;
 8002322:	687b      	ldr	r3, [r7, #4]
 8002324:	60fb      	str	r3, [r7, #12]

  /* Add a freq to guarantee minimum wait */
  if (wait < HAL_MAX_DELAY)
 8002326:	68fb      	ldr	r3, [r7, #12]
 8002328:	f1b3 3fff 	cmp.w	r3, #4294967295
 800232c:	d005      	beq.n	800233a <HAL_Delay+0x26>
  {
    wait += (uint32_t)(uwTickFreq);
 800232e:	4b09      	ldr	r3, [pc, #36]	; (8002354 <HAL_Delay+0x40>)
 8002330:	781b      	ldrb	r3, [r3, #0]
 8002332:	461a      	mov	r2, r3
 8002334:	68fb      	ldr	r3, [r7, #12]
 8002336:	4413      	add	r3, r2
 8002338:	60fb      	str	r3, [r7, #12]
  }

  while((HAL_GetTick() - tickstart) < wait)
 800233a:	bf00      	nop
 800233c:	f7ff ffde 	bl	80022fc <HAL_GetTick>
 8002340:	4602      	mov	r2, r0
 8002342:	68bb      	ldr	r3, [r7, #8]
 8002344:	1ad3      	subs	r3, r2, r3
 8002346:	68fa      	ldr	r2, [r7, #12]
 8002348:	429a      	cmp	r2, r3
 800234a:	d8f7      	bhi.n	800233c <HAL_Delay+0x28>
  {
  }
}
 800234c:	bf00      	nop
 800234e:	3710      	adds	r7, #16
 8002350:	46bd      	mov	sp, r7
 8002352:	bd80      	pop	{r7, pc}
 8002354:	20000018 	.word	0x20000018

08002358 <HAL_ADC_Init>:
  * @param  hadc pointer to a ADC_HandleTypeDef structure that contains
  *         the configuration information for the specified ADC.  
  * @retval HAL status
  */
HAL_StatusTypeDef HAL_ADC_Init(ADC_HandleTypeDef* hadc)
{
 8002358:	b580      	push	{r7, lr}
 800235a:	b084      	sub	sp, #16
 800235c:	af00      	add	r7, sp, #0
 800235e:	6078      	str	r0, [r7, #4]
  HAL_StatusTypeDef tmp_hal_status = HAL_OK;
 8002360:	2300      	movs	r3, #0
 8002362:	73fb      	strb	r3, [r7, #15]
  
  /* Check ADC handle */
  if(hadc == NULL)
 8002364:	687b      	ldr	r3, [r7, #4]
 8002366:	2b00      	cmp	r3, #0
 8002368:	d101      	bne.n	800236e <HAL_ADC_Init+0x16>
  {
    return HAL_ERROR;
 800236a:	2301      	movs	r3, #1
 800236c:	e033      	b.n	80023d6 <HAL_ADC_Init+0x7e>
  if(hadc->Init.ExternalTrigConv != ADC_SOFTWARE_START)
  {
    assert_param(IS_ADC_EXT_TRIG_EDGE(hadc->Init.ExternalTrigConvEdge));
  }
  
  if(hadc->State == HAL_ADC_STATE_RESET)
 800236e:	687b      	ldr	r3, [r7, #4]
 8002370:	6c1b      	ldr	r3, [r3, #64]	; 0x40
 8002372:	2b00      	cmp	r3, #0
 8002374:	d109      	bne.n	800238a <HAL_ADC_Init+0x32>

    /* Init the low level hardware */
    hadc->MspInitCallback(hadc);
#else
    /* Init the low level hardware */
    HAL_ADC_MspInit(hadc);
 8002376:	6878      	ldr	r0, [r7, #4]
 8002378:	f7ff fd60 	bl	8001e3c <HAL_ADC_MspInit>
#endif /* USE_HAL_ADC_REGISTER_CALLBACKS */

    /* Initialize ADC error code */
    ADC_CLEAR_ERRORCODE(hadc);
 800237c:	687b      	ldr	r3, [r7, #4]
 800237e:	2200      	movs	r2, #0
 8002380:	645a      	str	r2, [r3, #68]	; 0x44
    
    /* Allocate lock resource and initialize it */
    hadc->Lock = HAL_UNLOCKED;
 8002382:	687b      	ldr	r3, [r7, #4]
 8002384:	2200      	movs	r2, #0
 8002386:	f883 203c 	strb.w	r2, [r3, #60]	; 0x3c
  }
  
  /* Configuration of ADC parameters if previous preliminary actions are      */ 
  /* correctly completed.                                                     */
  if (HAL_IS_BIT_CLR(hadc->State, HAL_ADC_STATE_ERROR_INTERNAL))
 800238a:	687b      	ldr	r3, [r7, #4]
 800238c:	6c1b      	ldr	r3, [r3, #64]	; 0x40
 800238e:	f003 0310 	and.w	r3, r3, #16
 8002392:	2b00      	cmp	r3, #0
 8002394:	d118      	bne.n	80023c8 <HAL_ADC_Init+0x70>
  {
    /* Set ADC state */
    ADC_STATE_CLR_SET(hadc->State,
 8002396:	687b      	ldr	r3, [r7, #4]
 8002398:	6c1b      	ldr	r3, [r3, #64]	; 0x40
 800239a:	f423 5388 	bic.w	r3, r3, #4352	; 0x1100
 800239e:	f023 0302 	bic.w	r3, r3, #2
 80023a2:	f043 0202 	orr.w	r2, r3, #2
 80023a6:	687b      	ldr	r3, [r7, #4]
 80023a8:	641a      	str	r2, [r3, #64]	; 0x40
                      HAL_ADC_STATE_REG_BUSY | HAL_ADC_STATE_INJ_BUSY,
                      HAL_ADC_STATE_BUSY_INTERNAL);
    
    /* Set ADC parameters */
    ADC_Init(hadc);
 80023aa:	6878      	ldr	r0, [r7, #4]
 80023ac:	f000 fb94 	bl	8002ad8 <ADC_Init>
    
    /* Set ADC error code to none */
    ADC_CLEAR_ERRORCODE(hadc);
 80023b0:	687b      	ldr	r3, [r7, #4]
 80023b2:	2200      	movs	r2, #0
 80023b4:	645a      	str	r2, [r3, #68]	; 0x44
    
    /* Set the ADC state */
    ADC_STATE_CLR_SET(hadc->State,
